:020000040800F2
:10000000B0070020910100087D060008690500087E
:1000100079060008490400087F130008000000006A
:100020000000000000000000000000002908000897
:100030004D0400080000000005070008CD09000875
:10004000AB010008AB010008AB010008AB010008E0
:10005000AB010008AB010008AB010008AB010008D0
:10006000AB010008AB010008AB010008AB010008C0
:10007000AB010008AB010008AB010008AB010008B0
:10008000AB010008AB010008AB010008AB010008A0
:10009000AB010008AB010008AB010008AB01000890
:1000A000AB010008AB010008AB010008AB01000880
:1000B000710C0008AB010008AB010008AB0100089F
:1000C000AB010008AB010008AB010008AB01000860
:1000D000AB0100084D110008D5110008AB01000864
:1000E000AB010008AB010008AB01000800F002F80A
:1000F00000F03FF80AA090E8000C82448344AAF183
:100100000107DA4501D100F034F8AFF2090EBAE880
:100110000F0013F0010F18BFFB1A43F0010318473B
:10012000EC1300000C140000103A24BF78C878C10A
:10013000FAD8520724BF30C830C144BF04680C60ED
:10014000704700000023002400250026103A28BF35
:1001500078C1FBD8520728BF30C148BF0B60704739
:10016000642900F07780002070471FB51FBD10B5CF
:1001700010BD00F037F91146FFF7F7FF01F05AF90B
:1001800000F055F903B4FFF7F2FF03BC01F0F9F8F2
:100190000948804709480047FEE7FEE7FEE7FEE71B
:1001A000FEE7FEE7FEE7FEE7FEE7FEE70448054957
:1001B000054A064B70470000D1090008ED00000811
:1001C000B0010020B0070020B0030020B0030020E1
:1001D000704700000FB4044910B503AA029800F05C
:1001E000D3F810BC5DF814FB1C0000202DE9F04191
:1001F0000E460446002020622046E168884730B35E
:10020000252805D0D4E901219047206A401CF2E757
:10021000E168204600278847050018D0A5F1410075
:10022000192802D820354FF4006732462946204667
:100230002760FFF795FF40B1012804D0F61D26F096
:1002400007060836D8E7361DD6E72846DAE7206ADB
:10025000BDE8F0812DE9F0410646002410687529BB
:10026000314616A510D0AFF30080002802DA4042D4
:1002700013A507E031688A0701D512A502E04907F6
:1002800004D511A5012401E0AFF3008000210A226A
:1002900006F1240709E0B0FBF2FCB0FBF2F302FB2D
:1002A0001C00303078541846491C0028F3D12346EE
:1002B0002A463046BDE8F04100F00CB800000000CE
:1002C0002D0000002B000000200000007047704748
:1002D000704770472DE9F0470D469946924604460F
:1002E00000F124080168880604D5E06921F01001B6
:1002F000216000E00120A84201DD471B00E000274B
:10030000A1697A1902EB0900081AA0612078C006D9
:1003100002D42046AFF30080002608E0D4E9012192
:100320001AF806009047206A401C761C20624E4551
:10033000F4DB2078C0060AD52046AFF3008006E043
:10034000D4E9012130209047206A401C2062381EE9
:10035000A7F10107F4DC07E0D4E9012118F8050052
:100360009047206A401C2062281EA5F10105F3DC9D
:100370002046AFF300802078000602D50220BDE8B9
:10038000F0870120FBE70000074B70B50D467B446A
:1003900000F011F80446284600F020F810B14FF0A4
:1003A000FF3070BD204670BD8710000001694A1CF7
:1003B00002610878704700B58FB0CDE901310021A6
:1003C000059105497944CDE9031011466846FFF7C8
:1003D0000DFF0FB000BD0000E5FFFFFF007B00F048
:1003E00080007047754600F02BF8AE460500694660
:1003F000534620F00700854618B020B5FFF7D6FE1B
:10040000BDE820404FF000064FF000074FF0000815
:100410004FF0000B21F00701AC46ACE8C009ACE896
:10042000C009ACE8C009ACE8C0098D46704710B5FA
:100430000446AFF300802046BDE81040FFF7A2BE9F
:10044000004870474C01002000BFFEE770472DE9CF
:10045000F04102460025002600200023002400274A
:1004600091F803C00CF00F0591F803C00CF0100CCC
:10047000BCF1000F03D091F802C04CEA050591F8D9
:1004800000C0BCF1000F31D0146800202BE04FF009
:10049000010C0CFA00F3B1F800C00CEA03069E420E
:1004A00020D183004FF00F0C0CFA03F7BC4305FA80
:1004B00003FC4CEA040491F803C0BCF1280F06D1F8
:1004C0004FF0010C0CFA00FCC2F814C00AE091F8DD
:1004D00003C0BCF1480F05D14FF0010C0CFA00FC31
:1004E000C2F810C0401C0828D1D31460B1F800C075
:1004F000BCF1FF0F34DD546800202EE000F1080C41
:100500004FF0010808FA0CF3B1F800C00CEA03063A
:100510009E4221D183004FF00F0C0CFA03F7BC432D
:1005200005FA03FC4CEA040491F803C0BCF1280F5F
:1005300005D100F1080C08FA0CF8C2F8148091F803
:1005400003C0BCF1480F07D100F1080C4FF00108BF
:1005500008FA0CF8C2F81080401C0828CED354606A
:10056000BDE8F0810161704700BFFEE710B50020D3
:1005700006490860C82000F029FF01200449C1F89D
:10058000B401C82000F022FF10BD0000B4012242D7
:100590000000224208B50121102000F0C5F84FF4F8
:1005A0000050ADF8000010208DF8030003208DF8F6
:1005B000020069460448FFF74AFF4FF40051024821
:1005C000FFF7D0FF08BD00000010014010B5044641
:1005D0000121194800880C300004184A02EB9030C1
:1005E000C0F88011012C0BD113480068401C12493F
:1005F00008600846006804280FD1002008600CE05D
:10060000022C0AD10C480068401E0B4908600846BD
:100610000068002801DA03200860002106480088ED
:100620000C300004054A02EB9030C0F88011C8205D
:1006300000F0CCFE10BD000014000020008021421C
:1006400008B50121082000F06FF84FF47040ADF8B4
:10065000000010208DF8030003208DF80200694689
:100660000448FFF7F4FE4FF470410248FFF77AFFA9
:1006700008BD0000000C014000BFFEE7704700000D
:1006800070B5002100230F22C47804B3154C2468F0
:1006900004F4E064C4F5E064210AC1F10403CA4033
:1006A000447804FA03F184781440214309010E4C84
:1006B0000678A155047804F01F050124AC400578A4
:1006C0006D11AD0005F1E025C5F8004109E00478A1
:1006D00004F01F050124AC40044D0678761145F85E
:1006E000264070BD0CED00E000E400E080E100E099
:1006F00002490143024A1160704700000000FA05F8
:100700000CED00E07047000029B1064AD2690243AF
:10071000044BDA6104E0034AD2698243014BDA6197
:10072000704700000010024029B1064A9269024356
:10073000044B9A6104E0034A92698243014B9A6137
:10074000704700000010024030B500210022002454
:1007500000232D4D6D6805F00C0121B1042905D051
:10076000082923D105E0294D056022E0274D0560C9
:100770001FE0254D6D6805F47012234D6D6805F47A
:100780008034022505EB92421CB9214D554305608A
:100790000BE01D4D6D6805F400351DB11C4D554332
:1007A000056002E0194D5543056002E0174D0560F4
:1007B00000BF00BF144D6D6805F0F0010909154D2B
:1007C0006B5C0568DD4045600F4D6D6805F4E061C8
:1007D000090A104D6B5C4568DD4085600A4D6D6807
:1007E00005F46051C90A0B4D6B5C4568DD40C5607E
:1007F000054D6D6805F44041890B074D6B5CC5687C
:10080000B5FBF3F5056130BD0010024000127A001F
:1008100000093D00220000203200002001468A8CA1
:1008200010B200228A847047704770B5044640F2C7
:100830002551206800F0E2FC40B3206800F09AFDEA
:10084000C5B20D2D03D10120A4F8460015E00A2DF4
:1008500007D1B4F84600012803D10220A4F84600CD
:100860000BE00020A4F84600B4F84810201D4554C1
:10087000B4F84800401CA4F84800B4F848004028E8
:1008800004DD0020A4F84800A4F8460070BD000074
:1008900000F12D01014A118070470000340400402E
:1008A00010B540F21F3140F2077000F047FA2D20DA
:1008B0000149088010BD00003404004010B500F06C
:1008C00001F810BD0CB5002001900090334800687D
:1008D00040F480303149086000BF3048006800F4BF
:1008E000003000900198401C0190009818B90198C0
:1008F000B0F5A06FF1D12948006800F4003010B1C4
:100900000120009001E0002000900098012843D1D0
:100910002348006840F0100021490860084600683C
:1009200020F0030008600846006840F002000860FC
:100930001A484068194948600846406848600846B7
:10094000406840F4806048600846406820F47C10AD
:1009500048600846406840F4E8104860084600686F
:1009600040F08070086000BF0C48006800F0007024
:100970000028F9D00948406820F003000749486082
:100980000846406840F00200486000BF03484068E5
:1009900000F00C000828F9D10CBD00000010024046
:1009A00000200240042808D14FF0E021096941F0FD
:1009B00004014FF0E022116107E04FF0E0210969E6
:1009C00021F004014FF0E0221161704770470000F0
:1009D00010B51348006840F001001149086008464E
:1009E0004068104908400E494860084600680E49B2
:1009F00008400B4908600846006820F48020086021
:100A00000846406820F4FE0048604FF41F008860EC
:100A1000FFF754FF4FF000600449086010BD00006C
:100A2000001002400000FFF8FFFFF6FE08ED00E0B6
:100A3000F0B50C46154600220021068C4FF6FE77D5
:100A40003E400684028B018C4FF60C7632407E1CB1
:100A500006EA03162E433243104EB0420ED0104E1B
:100A6000B0420BD0B0F1804F08D00E4EB04205D04E
:100A70000D4EB04202D00D4EB04206D14FF6FD767B
:100A8000314044F00106314305E04FF6F576314040
:100A900044F00106314302830184F0BD002C014083
:100AA000003401400004004000080040000C0040F9
:100AB000F0B50C461546002200210026078C4FF6A3
:100AC000EF7C07EA0C070784028B018C4FF6FF7757
:100AD00007EA041640F6FF473A404FF6FF7707EA69
:100AE00003373A434FF6FF7707EA05273A43114F9A
:100AF000B8420ED0104FB8420BD0B0F1804F08D0A2
:100B00000E4FB84205D00E4FB84202D00D4FB8423A
:100B100006D14FF6DF77394046F01007394305E03C
:100B20004FF65F77394044F0100739430283018460
:100B3000F0BD0000002C01400034014000040040E2
:100B400000080040000C0040F0B50C46154600229D
:100B500000210026078C4FF6FF6C07EA0C0707847C
:100B6000828B018C4FF6FF7707EA04264FF60C774D
:100B70003A404FF6FF7707EA03172F433A43114FE6
:100B8000B8420ED0104FB8420BD0B0F1804F08D011
:100B90000E4FB84205D00E4FB84202D00D4FB842AA
:100BA00006D14FF6FF57394046F48077394305E0C8
:100BB0004FF2FF57394044F48077394382830184F0
:100BC000F0BD0000002C0140003401400004004052
:100BD00000080040000C0040F0B50C46154600220D
:100BE00000210026078C4EF6FF7C07EA0C070784DD
:100BF000828B018C4FF6FF7707EA043640F6FF47F9
:100C00003A404FF6FF7707EA05273A434FF6FF775A
:100C100007EA03373A43114FB8420ED0104FB8429B
:100C20000BD0B0F1804F08D00E4FB84205D00E4F18
:100C3000B84202D00D4FB84206D14DF6FF77394089
:100C400046F48057394305E047F6FF57394044F4EE
:100C50008057394382830184F0BD0000002C01409D
:100C6000003401400004004000080040000C004037
:100C700070B54FF08040008A00F00100B0B1012053
:100C8000FFF7A4FC0E48FFF7C9FD0446B4206043FB
:100C900040F2DC5190FBF1F000F15A052A46214662
:100CA00008A0FFF797FAE8B2FFF7F2FD4FF0804097
:100CB000008A20F001004FF08041088270BD0000E2
:100CC0000008004074345F656E636F646572203D98
:100CD0002025642C616E676C653D25640D0A00005B
:100CE0007FB504460D4601210846FFF70DFDADF81E
:100CF0000850ADF804400020ADF80A00ADF8060039
:100D000001A94FF0804000F0C5F90122114690077B
:100D100000F033F91C208DF8000000208DF8010050
:100D200003208DF8020001208DF803006846FFF7CC
:100D3000A7FC0121880700F094F87FBD30B589B089
:100D400005460C4601210220FFF7DEFC01210420AC
:100D5000FFF7EAFC18208DF823004020ADF82000B2
:100D600003208DF8220008A91348FFF770FBADF8A7
:100D70001850ADF814400020ADF81A00ADF8160078
:100D800005A90E4800F086F97020ADF80400012096
:100D9000ADF806000220ADF80C0001A9074800F0EC
:100DA000F5F80821054800F03DF90121034800F05D
:100DB00058F809B030BD00000008014000040040B0
:100DC00000B587B001210420FFF79EFC012104201B
:100DD000FFF7AAFCC020ADF8000004208DF8030046
:100DE00069461C48FFF733FB04A800F0A5F9002072
:100DF000ADF810004FF6FF70ADF814000020ADF80C
:100E00001600ADF8120004A9134800F043F90023BE
:100E10001A460321104800F030F801A800F0A4F8A9
:100E20000A20ADF80C0001A90B4800F047F8012199
:100E3000094800F013F801221146074800F09DF818
:100E40000021054800F0F7F80121034800F009F8F7
:100E500007B000BD0008014000080040CA430282FC
:100E6000704721B1028842F00102028004E002884A
:100E70004FF6FE731A4002807047F0B50C461546D7
:100E80001E460021002200230189028B038C4FF6AD
:100E9000F877394021434FF6FC473A4040F20117BA
:100EA0003A434FF6DD773B404FF6FF7707EA0617E8
:100EB0002F433B43018102830384F0BD70B5054697
:100EC0000C46244885420ED0234885420BD0B5F10C
:100ED000804F08D02148854205D02148854202D064
:100EE0002048854200D100E000BF208850B9238906
:100EF000A28861882846FFF79BFDE188284600F01C
:100F00009CF825E0208804280AD12389A2886188DA
:100F10002846FFF7CDFDE188284600F097F817E056
:100F2000208808280AD12389A28861882846FFF7EB
:100F30000BFEE188284600F096F809E02389A28894
:100F400061882846FFF748FEE188284600F094F8BB
:100F500070BD0000002C014000340140000400403E
:100F600000080040000C0040002101804180012168
:100F700081800021C180018170471AB183890B43B0
:100F8000838102E083898B438381704770B500249D
:100F900000220023058C4FF6FE7635400584028C36
:100FA0008388048B4FF68F752C40B51E2C400D881E
:100FB0002C43751E2A400D892A434D882A43144D1F
:100FC000A8420BD0134DA84208D0134DA84205D01B
:100FD000124DA84202D0124DA84213D14FF6F77518
:100FE0002A404D892A434FF6FB752A408D882A43B3
:100FF0004FF6FF652B404FF6FF552B408D892B4355
:10100000CD892B4383800483CD888586028470BD7F
:10101000002C0140003401400040014000440140E8
:10102000004801400A460021018B4FF6F773194032
:1010300011430183704781847047028B4FF6F3732D
:101040001A400283028B0A4302837047028B4FF2DD
:10105000FF331A400283028B4FF6FF7303EA01232A
:101060001A4302837047828B4FF6F3731A408283D0
:10107000828B0A4382837047828B4FF2FF331A4080
:101080008283828B4FF6FF7303EA01231A43828324
:1010900070470000002202881D4B98420ED01D4B65
:1010A00098420BD0B0F1804F08D01B4B984205D02E
:1010B0001A4B984202D01A4B984204D14FF68F73C4
:1010C0001A404B881A43174B984207D0164B984248
:1010D00004D04FF6FF431A40CB881A4302808B8816
:1010E00083850B8803850A4B98420BD0094B9842A5
:1010F00008D00E4B984205D00D4B984202D00D4BB4
:10110000984201D10B7A0386012383827047000045
:10111000002C014000340140000400400008004061
:10112000000C00400010004000140040004001404E
:1011300000440140004801404FF6FF7181800021CA
:101140000180C180418001727047000010B540F2FB
:1011500025511D4800F052F810B31B4800F00AF961
:10116000C4B21A48008800F40040C8B91748008883
:1011700000F4804060B10A2C03D00020134908809D
:1011800020E01248008840F400401049088019E02F
:101190000D2C06D10D48008840F480400B49088092
:1011A00010E00A480088C0F30D0009490C540748B4
:1011B0000088401C0549088008460088C72801DDD2
:1011C0000020088010BD00000038014020000020F1
:1011D0008400002010B50248FFF727FB10BD000077
:1011E0003800002021B1828942F40052828104E05B
:1011F00082894DF6FF731A408281704770B50246AE
:10120000002400230025002040F66A16B14200D1D8
:1012100000BFC1F3421501F01F03012606FA03F3D4
:10122000012D02D19689334006E0022D02D1168AA3
:10123000334001E0968A33400C12012606FA04F48A
:101240001688344013B10CB1012000E0002070BDBD
:10125000F0B50346002400260025002040F66A175A
:10126000B94200D100BF1846C1F3421401F01F0675
:10127000012707FA06F5012C01D10C3004E0022CFD
:1012800001D1103000E014301AB107682F43076015
:1012900002E00768AF430760F0BD00002DE9F047AA
:1012A00086B005460E460024A24600BFA146002790
:1012B000B08900B100BF2F462C8A4CF6FF70044065
:1012C000F08804432C82AC894EF6F3100440B088B9
:1012D00031890843718908430443AC81AC8A4FF6D5
:1012E000FF400440B0890443AC8201A8FFF72CFA08
:1012F0001F48874202D1DDF810A001E0DDF80CA004
:10130000A88900F4004040B10AEBCA0000EB0A10C3
:1013100031684900B0FBF1F807E00AEBCA0000EBC6
:101320000A1031688900B0FBF1F86420B8FBF0F0D6
:1013300004012009642101FB1089A88900F4004000
:1013400040B1322000EBC900B0FBF1F000F0070023
:10135000044308E0322000EB09106421B0FBF1F0F7
:1013600000F00F0004432C8106B0BDE8F0870000B8
:101370000038014001468888C0F30800704700BF6C
:10138000FEE7014600BF704710B56FF00400FFF79D
:1013900009FB0A4800680A49B0FBF1F009490870E6
:1013A0000846007800EB4001C1EBC0104FF6FF711A
:1013B00001EAC0000449088010BD000000000020C0
:1013C00000127A00180000201A0000200146114A7D
:1013D00012884A434FF0E0235A6100229A611A466C
:1013E000126942F001021A6100BF4FF0E022106959
:1013F00000F001021AB100F48032002AF5D04FF05B
:10140000E022126922F001024FF0E0231A6100226B
:101410009A6170471A00002000BF054A128802F046
:101420004002002AF9D0C2B2014B1B1D1A8070473E
:1014300000380140FFF7A8FF4FF4A060FFF758F90C
:101440004FF4E13000F012F8FFF7A4F8FFF7F8F8D6
:10145000FFF7B6FC642141F61F40FFF741FCFFF7A0
:101460001FFA01E0FFF782F8FCE7000010B586B034
:101470000446012144F20400FFF756F94FF40070CE
:10148000ADF8140003208DF8160018208DF8170011
:1014900005A91C48FEF7DBFF4FF48060ADF814008F
:1014A00004208DF8170005A91648FEF7D0FF252067
:1014B0008DF8000003208DF801008DF80200012056
:1014C0008DF803006846FFF7DBF801940020ADF8C3
:1014D0000800ADF80A00ADF80C00ADF810000C20C3
:1014E000ADF80E0001A90848FFF7D8FE012240F22E
:1014F00025510548FFF7ACFE01210348FFF772FEB6
:1015000006B010BD00080140003801402C1500084D
:1015100000000020380000002801000864150008C1
:1015200038000020780700004401000800A24A04A7
:101530000000000000000000010203040607080983
:10154000000000000000000000000000000000009B
:101550000000010203040102030406070809020453
:041560000608000079
:04000005080001915D
:00000001FF
