:020000040800F2
:10000000A807002035020008C91B0008FF1A0008D5
:10001000C51B000851180008D72300080000000085
:10002000000000000000000000000000A91D000802
:100030005518000800000000511C0008A51F00080A
:100040004F0200084F0200084F0200084F0200084C
:100050004F0200084F0200084F0200084F0200083C
:100060004F0200084F0200084F0200084F0200082C
:100070004F0200084F0200084F0200084F0200081C
:100080004F0200084F0200084F0200084F0200080C
:100090004F0200084F0200084F0200084F020008FC
:1000A0004F0200084F0200084F0200084F020008EC
:1000B0004F0200084F0200084F0200084F020008DC
:1000C0004F0200084F0200084F0200084F020008CC
:1000D0004F02000829200008B12000084F02000844
:1000E0004F0200084F0200084F02000800F002F81B
:1000F00000F090F80AA090E8000C82448344AAF132
:100100000107DA4501D100F085F8AFF2090EBAE82F
:100110000F0013F0010F18BFFB1A43F0010318473B
:10012000DC250000FC250000103A24BF78C878C107
:10013000FAD8520724BF30C830C144BF04680C60ED
:10014000704700000023002400250026103A28BF35
:1001500078C1FBD8520728BF30C148BF0B60704739
:100160006E2900F06F81702900F0B182662902F0DB
:100170005782652902F05482672902F05182612971
:10018000AFF3008003681B0A28BF41F08001692992
:1001900000F01C81642900F01981752900F0168196
:1001A0006F2900F03E82782900F07D82E92900F075
:1001B000D981E42900F0D681F52900F0D381EF2917
:1001C00000F03B82F82900F07C820368DB0928BF3D
:1001D00041F08001632900F00086732900F0058654
:1001E000E32900F01086F32900F0158600207047FF
:1001F0001FB500F061FE04000020002102F0FAF9B2
:10020000401C60600020002102F0DEF9E0601FBDAC
:1002100010B510BD00F023FE1146FFF7E9FF02F014
:1002200043F900F0FFFE03B4FFF7F2FF03BC02F056
:10023000EFF800000948804709480047FEE7FEE75D
:10024000FEE7FEE7FEE7FEE7FEE7FEE7FEE7FEE786
:1002500004480549054A064B70470000A91F0008DD
:10026000ED000008A8010020A8070020A803002036
:10027000A8030020704700001CB50C46064B7B44C9
:1002800069460090204600F0F6F8044600206946D2
:1002900000F004F920461CBD1B02000010B5203AF6
:1002A000C0F00B80B1E81850203AA0E81850B1E82F
:1002B0001850A0E81850BFF4F5AF5FEA027C24BFE5
:1002C000B1E81850A0E8185044BF18C918C0BDE8DC
:1002D00010405FEA827C24BF51F8043B40F8043BA5
:1002E00008BF7047D20728BF31F8023B48BF11F85A
:1002F000012B28BF20F8023B48BF00F8012B7047B4
:10030000704770477047704770B50446856900684C
:10031000C10601D5302600E02026C00707D070BDF9
:10032000D4E9012130469047206A401C20626D1EAE
:10033000F6D570BD70B5044685690078C00707D151
:1003400070BDD4E9012120209047206A401C206222
:100350006D1EF6D570BD09684A0501D540B27047DB
:10036000C905FCD500B2704709684A0501D5C0B27D
:100370007047C905FCD580B2704770B50C4605467C
:10038000012A05D02878800600D5EA69002302E01A
:10039000012305E05B1C934202D2E05C0028F9D106
:1003A000A869E618C01AA861286A18442862284675
:1003B000FFF7AAFF04E0D5E9012114F8010B9047EB
:1003C000B442F8D32846FFF7B5FF70BD2DE9F041E0
:1003D0000646002410687529314616A510D0FFF78F
:1003E000BAFF002802DA404213A507E031688A0705
:1003F00001D512A502E0490704D511A5012401E0A9
:10040000FFF7B2FF00210A2206F1240709E0B0FB42
:10041000F2FCB0FBF2F302FB1C00303078541846BB
:10042000491C0028F3D123462A463046BDE8F04156
:1004300000F061BA000000002D0000002B00000059
:100440002000000011680268006A530501D5087099
:100450000AE0D30501D5088006E0130603D5C217CC
:10046000C1E9000200E008600120704701694A1CF0
:1004700002610878704700B58FB0CDE901310021E5
:10048000059105497944CDE903101146684600F00D
:1004900029F90FB000BD0000E5FFFFFF0A6802F870
:1004A000010B0A60704700002DE9FF5F15468A4680
:1004B0000446DFF8AC80F8440027D8E900103E4637
:1004C000CDE9001010E03AF816106A4602A800F0D4
:1004D000A6FC411C07D02178890603D5E2693918AA
:1004E00091420DD80744761C2078800602D5E06939
:1004F000B84205DDAE42E6DB3AF816000028E2D14C
:10050000A069C01BA0612046FFF7FEFED8E90010DD
:10051000CDE90010002017E03AF818106A4602A84A
:1005200000F07DFCB0F1FF3F81460BD000250DF1BE
:10053000080B05E0D4E901211BF8050090476D1C6C
:100540004D45F7D308F10100B0428046E4DB206A54
:10055000384420622046FFF7EDFEBDE8FF9F000013
:100560006A2100002DE9F0418046D21D22F00702E9
:100570000025D2E90002F52915A614D0011E72F15A
:10058000000106DA0023D0EB030063EB020211A6A0
:1005900008E0D8F800108B0701D50FA602E0490744
:1005A00001D50EA601251146002408F1240704E018
:1005B00000F05CF930323A55641C50EA0102F7D180
:1005C0002B46324621464046BDE8F04100F093B943
:1005D000000000002D0000002B00000020000000A3
:1005E00030B4002100F1240408E002F00705D2082D
:1005F000303542EA4372DB086554491C52EA030570
:10060000F3D10468002310A2250707D5A40600D45F
:1006100021B1C46901230DA2641EC46130BC00F085
:100620006AB910B5044621461068FFF79DFE0246E0
:100630002046BDE810400023D2E7D21D22F007017A
:10064000D1E90023CCE700000000000030000000EA
:10065000F0B40D460188090502D5214C7C4402E026
:100660001F4C7C440E34002100F1240608E002F007
:100670000F071209E75D42EA03721B097754491C10
:1006800052EA0307F3D102780023120704D5702D34
:1006900006D009B1022311342246F0BC00F02BB978
:1006A00001231034F8E770B504460D462146106862
:1006B000FFF75AFE024629462046BDE87040002357
:1006C000C6E7D21D22F00703D3E90023C0E7036881
:1006D000126843F0200303600823C3610023B7E7D7
:1006E000CC1F00002DE9F05F894604464FF0000A58
:1006F000DFF874B1FB44C0F820A02046E1688847C9
:10070000002874D0252806D0D4E901219047206A1A
:10071000401C2062F1E700265F462046E1688847DA
:100720002028054607DB312D05D2781910F8200C5A
:1007300008B10643F1E7B00701D526F00406C4F876
:100740001CA00027C4F818A02A2D09D0284601F0C3
:1007500058FE38B304EB8708303DC8F8185019E04C
:1007600059F8041B204604EB87029161E168884731
:10077000012F054618D1E069002820DA26F020066E
:100780001DE0D8F8180000EB800005EB4000303881
:10079000C8F818002046E1688847054601F031FE98
:1007A0000028EED1012F0AD02E2D08D12046E16875
:1007B00088477F1C0546022F46F02006C4DBA0694F
:1007C000002803DA404246F00106A061F00701D09C
:1007D00026F010066C2D0BD0682D09D04C2D39D089
:1007E0006A2D35D0742D35D07A2D33D016E038E00F
:1007F000E1682F4620468847B842054609D16C2F4C
:1008000026D04FF48060E1680643204688470546BD
:1008100004E06C2F1AD04FF4807006430DB3A5F19D
:100820004100192802D8203546F400664A46294678
:10083000204626604E46FFF793FC80B101280BD07E
:10084000F61D26F0070000F1080956E74020E4E70E
:100850008020D8E70020D6E706F104094DE72846B6
:1008600052E7206ABDE8F09F5C1F000030B5B0F190
:100870000A024FEA900E71F100034EEA817EB0EB5E
:100880000E0061EB91014FEA101E4EEA017E10EB63
:100890000E0041EB11114FEA102E4EEA016E10EBE3
:1008A0000E0041EB11214FEA104E4EEA014E10EBC3
:1008B0000E0041EB1141401841F100014FEAD00018
:1008C00040EA41704FEAD10110EB80054FEA810404
:1008D00044EA907444EB01046D1944EB0404521B88
:1008E000A3414FF0000348BF0A3200D530BD401C81
:1008F00041F1000130BD2DE9F0470D469946924681
:10090000044600F124080168880604D5E06921F056
:100910001001216000E00120A84201DD471B00E03A
:100920000027A1697A1902EB0900081AA061207852
:10093000C00602D42046FFF7E7FC002608E0D4E911
:1009400001211AF806009047206A401C761C20629C
:100950004E45F4DB2078C0060AD52046FFF7D4FCCC
:1009600006E0D4E9012130209047206A401C206233
:10097000381EA7F10107F4DC07E0D4E9012118F8DB
:1009800005009047206A401C2062281EA5F1010541
:10099000F3DC2046FFF7CEFC2078000602D50220CB
:1009A000BDE8F0870120FBE770472DE9FF4F0C46BB
:1009B0001E464FF0FF378BB0D2E90001DDF86080B2
:1009C0000A908A46C1F30A5505B93D4600210846FA
:1009D0004FF00000BAF1000F00F4400005DA00EB20
:1009E00080004FF4400101EA50004FEA9059B9F1FC
:1009F000010F00DDB9460A9850EA4A000ED044F6CD
:100A00001050A5F2FF3545432F14B8F1000F1ED04A
:100A10007542291E1EDDC9F100021CE0B8F1010F6C
:100A20004FF0000001D0302103E0F24305E02154F3
:100A3000401CB042FBDB30460022002121540B99C0
:100A4000C1F80880C1E900200FB0BDE8F08FBD1BE0
:100A50006D1CDEE74A4600DA694206A800F070FA2B
:100A600006AB93E8070003AB83E8070050460A99FA
:100A700000F026FB8DE80700A0F500501F3800901D
:100A80000398002D0ADD42F21F014A460844002364
:100A900003A90390684600F08FFD09E0A0F500501F
:100AA0004A461F38002303A90390684600F099FDC9
:100AB0008DE807000004000C03D04FF0FF30410820
:100AC00000E01046B8F1000F03D000220092154656
:100AD0001EE0751E05D4FFF7C9FE303262556D1E4B
:100AE000F9D5B3460122084302D000227F1C04E05E
:100AF0002078302801D100227F1E002A099784D057
:100B00001DE0112D07DAFFF7B1FE303262556D1C82
:100B100050EA0102F5D1084302D00098C8B10EE0B6
:100B20000021681E05E0235C625C63542254401E71
:100B3000491C8142F7DBAB46A81B401E09900020F0
:100B400004F80B000B98099AC0F80880C0E9002B44
:100B50007AE711264FF0000857E72DE9F04F884655
:100B60000446D21D22F0070191B0D1E90001CDE980
:100B70000A0101F032FC02460B98C00F01D02D2073
:100B800007E02068810701D52B2002E0202101EA3F
:100B9000C000032A099001D0072A05DB034641461D
:100BA000204600F08DF90BE12078800601D5E06940
:100BB00000E00620B8F1650F814606D0B8F1660F57
:100BC00018D0B8F1670F70D131E00020B9F1110FE2
:100BD000009001DB112301E009F101030AAA01A938
:100BE0000CA8FFF7E2FEDDE90C70002609F1010513
:100BF000834647E001204B4600904FF000470AAA89
:100C000001A90CA8FFF7D1FEDDE90DB00C995D46F6
:100C1000002610B909F101000D18B9EB050003D445
:100C2000C0F1FF3609F10105A5EB09002BE0B9F190
:100C3000010F01DA4FF001090020B9F1110F009006
:100C4000484601DD112300E003460AAA01A90CA8C9
:100C5000FFF7ABFEDDE90C704D4600268346207899
:100C600000070AD4AB4500DA5D4601A8012D04DD7A
:100C7000411911F8011C302907D04F4502DA17F14C
:100C8000040F04DA012082460FE06D1EEEE7002F0C
:100C900002DCED1B3E4403E0781CA84200DD7D1C15
:100CA000B81B00F1010A4FF000472078000703D479
:100CB000AA4501DB4FF0FF3A0021B7F1004F0DF1DB
:100CC00043088DF8431024D002202B23002F01DA93
:100CD0007F422D230A21021EA0F1010000DC5FB13A
:100CE00097FBF1FC97FBF1F201FB1C7C17460CF122
:100CF000300C08F801CDEEE7A8F10100037021885F
:100D0000090501D5452100E06521A0F1010800F8A1
:100D1000011C09980FA9A1EB0807FF1D00B10120D4
:100D2000411901EBEA70A1693844081A401EA0611C
:100D30002078C00602D42046FFF7E6FA099828B1C9
:100D4000D4E901219047206A401C20622078C00627
:100D500022D52046FFF7D8FA1EE0002E04DBB3456B
:100D600002DD01A8805D00E03020D4E90121904738
:100D7000206A401C2062761CAAF101005FEA000A8A
:100D80000AD100F099F8C0680168405CD4E90121FB
:100D90009047206A401C2062281EA5F10105DCDC7A
:100DA00007E0D4E9012118F8010B9047206A401CA4
:100DB0002062381EA7F10107F3DC2046FFF7BAFADC
:100DC000032011B041E610B5436913B1AFF30080C1
:100DD00001E0FFF7D2FA012010BD127800F12401E2
:100DE0000A7000224A700122EDE711684FF0FF32CD
:100DF000E9E710B5436913B1AFF3008001E0FFF7F5
:100E000053FB012010BD128800F1240182840022CE
:100E1000C2840122EDE711684FF0FF32E9E770B5B7
:100E200016460C46054600F03FF8036893F80101AA
:100E3000012806D0FF2C0FD8185D68B101202C7056
:100E400070BDD3F807013246214603F2071303446D
:100E50002846BDE8704018474FF0FF3070BD75461A
:100E600000F0EAF8AE4605006946534620F0070058
:100E7000854618B020B5FFF7EBF9BDE820404FF0EC
:100E800000064FF000074FF000084FF0000B21F074
:100E90000701AC46ACE8C009ACE8C009ACE8C00941
:100EA000ACE8C0098D46704710B500F005F8001D8C
:100EB00010BD00BF411700000048704768010020C6
:100EC0002DE9F0411F46044603260168072A01F474
:100ED000006004DB08B116A505E016A503E008B123
:100EE00015A500E015A521F010002060A069C01E26
:100EF000A0610FB1401EA0612046FFF705FA4FB177
:100F0000D4E9012138469047206A401C2062C01C69
:100F1000206206E0206AFAE7D4E9012115F8010B06
:100F20009047761EF8D22046FFF704FABDE8F0811C
:100F30004E414E006E616E00494E4600696E66007D
:100F40002DE9F047814616468AB0354878440DC8E9
:100F50008DE80D0032487844801C03AC0DC884E84D
:100F60000D0041F69B300844372190FBF1F290FBD5
:100F7000F1F5A5F1800501FB12041B3C02D564428A
:100F8000012000E00020DFF898A080460027FA4406
:100F9000AAF1BE0A0EE0E0070AD03246684607EB27
:100FA000470101230AEB810100F01BFB8DE80700DC
:100FB00064107F1C002CEED1194F7F44AE3F19E026
:100FC000E80715D007EB04100DF1180A90E80E00A1
:100FD0008AE80E00C068F04201D1981908903246A4
:100FE000012306A903A800F0FCFA03AB83E807007D
:100FF0006D10641C002DE3D14FF0010332466946A9
:10100000B8F1000F03A802D000F0D6FA01E000F01A
:10101000E8FAC9E90001C9F808200AB0BDE8F0877C
:101020009417000010B50446AFF300802046BDE8D9
:101030001040FFF7F8B80000004870474801002052
:101040004FF0013C50F8042B51F8043B9A4221D157
:10105000A2EB0C03934313EACC1317D150F8042BE3
:1010600051F8043B9A4215D1A2EB0C03934313EAC7
:10107000CC130BD150F8042B51F8043B9A4209D100
:10108000A2EB0C03934313EACC13DBD04FF0000028
:10109000704700BFD01A01BAB1FA81F101F018010E
:1010A00022FA01F0CB40C1F12001DBB2C0B2C01A7C
:1010B0002CFA01F3D11A914311EAC311E6D170471A
:1010C0005FEA400C08BF91F0000F4FEA8C234FEA13
:1010D000C12243EA51514FEA1C5018BF00F5F040BD
:1010E0004FEA300018BF41F000415FEA6C5C00F04D
:1010F0002980BCF1FF3F08BF40F080407047130CCF
:1011000006BF12044FF0100C4FF0000C130E04BF7A
:1011100012020CF1080C130F04BF12010CF1040CA5
:10112000930F04BF92000CF1020CD30F04BF5200C6
:101130000CF1010C11464FF00002A0F11F00A0EBD2
:101140000C00704711F0004F08BF704731F00041AC
:101150003FF4D5AF0B0C06BF09044FF0100C4FF055
:10116000000C0B0E04BF09020CF1080C0B0F04BF9E
:1011700009010CF1040C8B0F04BF89000CF1020C67
:10118000CB0F04BF49000CF1010CCCF12003A0EB04
:101190000C0022FA03F302FA0CF241EA030100F117
:1011A0000100704720F07F4C80EA030023F07F4766
:1011B000ACEB070303F57C5300F0004003F1FF03A1
:1011C0002DE980494FEA154B09B44FEA144325EA4B
:1011D0000B4E24EA03480FF2042606EB13274908B6
:1011E0003E785FEA320203FB0667C7F5000707FB9C
:1011F00006F64FEA54374FEAD64606F1020607FBD9
:10120000066CCCF1005C4FEA1C472CEA074C07FB4C
:1012100006F40CFB06F504EB15464FEA961634BFB0
:1012200000204FF000404FEAD13706FB07FC4FEAA1
:101230001C4C0CFB0BF7D21B03FB0CF761EB0701FB
:101240000CFB0EF7B0EB074072EB17420CFB08F7F4
:1012500034BFA2EB0742B2EB074261EB17414FEA02
:101260000C444FEA910706FB07FC4FEA1C4C0CFBB1
:101270000BF7B0EBC74072EB573203FB0CF734BFF0
:10128000A2EBC742B2EBC74261EB57310CFB0EF742
:10129000B0EBC70072EB57720CFB08F734BFA2EB40
:1012A000C702B2EBC70261EB5771039F4FEA81613E
:1012B00041EA921104EBCC044FEAD1374FEA826243
:1012C00006FB07FC42EA90124FEA80604FEA1C4C92
:1012D0000CFB0BF7D21B03FB0CF761EB07010CFBBC
:1012E0000EF7B0EB074072EB17420CFB08F734BF68
:1012F000A2EB0742B2EB074261EB17414FEA8C5574
:101300004FEA910704EB9C2406FB07FC4FEA1C4CB8
:101310000CFB0BF7B0EBC74072EB573203FB0CF73B
:1013200034BFA2EBC742B2EBC74261EB57310CFBB3
:101330000EF7B0EBC70072EB57720CFB08F734BF27
:10134000A2EBC702B2EBC70261EB577115EB4C255C
:101350004FEA816141EA92114FEA82624FEAD13746
:1013600042EA901206FB07FC44F100044FEA806059
:101370004FEA1C4C0CFB0BF7D21B03FB0CF761EB89
:1013800007010CFB0EF7B0EB074072EB17420CFBAA
:1013900008F734BFA2EB0742B2EB074261EB1741FB
:1013A00015EB1C154FEA813141EA92414FEA823236
:1013B00042EA90424FEA80304FEA0C7644F1000452
:1013C00048EA03434EEA0B484FF0000EB2EB080C1C
:1013D00071EB030724BF624639464EEB0E0E4FF009
:1013E000000B0018524149414BEB0B0BB2EB080CC0
:1013F00071EB03077BF1000B24BF624639464EEBCD
:101400000E0E4FF0000B0018524149414BEB0B0BF5
:10141000B2EB080C71EB03077BF1000B24BF6246B3
:1014200039464EEB0E0E51EA020718BF46F0010690
:1014300016EB0E7655F1000254F1000103D5BDE81C
:101440008901BDE80088BDE88901BDE80048B619FA
:10145000524141EB0101A3F10103704780807F7E7F
:101460007D7C7B7A7978777676757473727171701A
:101470006F6E6E6D6C6C6B6A6A69686867666665CC
:101480006464636362616160605F5F5E5E5D5D5C5A
:101490005C5B5B5A5A5959585857575656555555CB
:1014A0005454535352525251515050504F4F4F4E2B
:1014B0004E4D4D4D4C4C4C4B4B4B4A4A4A49494979
:1014C00048484847474747464646454545444444BB
:1014D000444343434342424242414141002B9C46E4
:1014E00030D477002BD01CB54FEA370703B44FF048
:1014F00010004FF01001BAF1000F06D0BCF1000F40
:10150000DCBF40F0080040F008014FF000000FBCC5
:10151000BDE810400BF1010BBBF1010F08BF5FEA02
:10152000170722BF12F1010211F101014FF0004132
:1015300043F1000300F0004043EA00007047F9D394
:101540005708D0E746EA064613F1400F4FEA164621
:101550001FDD13F1200FDFBF16430A4600212033A1
:101560005B42BED0C3F1200746EA064602FA07F7FF
:101570004FEA164646EA0706C3F1200722FA03F2AD
:1015800001FA07F721FA03F14FF0000342EA0702DC
:10159000A7E746EA020646EA06464FEA164646EA44
:1015A0000106BCBF46EA0646360C4FF000034FF07A
:1015B00000024FF0000194E72DE9804C9A469346D3
:1015C00070B491E8380007C831EA400C48BF34EAEB
:1015D000430C03D5FFF7E6FDFFF780FFF0BCBDE845
:1015E000008C2DE9804C9A46934670B491E83800FF
:1015F00007C810F0804F08BF13F0804F03D100F0F0
:1016000005F8FFF76BFFF0BCBDE8008C20F07F47CA
:1016100080EA030023F07F4C07EB0C03A3F57C5317
:1016200000F00040A3F1FE0392F0000F00F0B38041
:1016300095F0000F00F077802DE901494FEA114045
:101640004FEA144621EA004800FB06FC24EA06475C
:1016500008FB06F607FB08F800FB07F718EB06483F
:101660004CEB164C4FEA124B18EB07484FEA154665
:101670004CEB174022EA0B4E0BFB06FC25EA064713
:101680000EFB06F607FB0EFE0BFB07F71EEB064EE6
:101690004CEB164C4FF000061EEB074E4CEB174B75
:1016A00018EB0B0840F1000018EB0E0B58EB00088C
:1016B00040F100008F1A4FF000013CBFC943661B88
:1016C00014BFB5EB040C00213CBFC943F61B4FEA25
:1016D00017444EEA8E0E27EA04454FEA1C4704FBE6
:1016E00007622CEA074C05FB07F70CFB05F604FB29
:1016F0000CFC16EB074642EB174216EB0C4642EB8E
:101700001C421BEB060658EB0202414146EA9E06CC
:1017100001D5BDE80189B619524141EB0101A3F1A0
:101720000103BDE801894FEA14454FEA114724EA55
:10173000054621EA074C05FB07F406FB07F70CFBFF
:1017400006F105FB0CFC11EB074144EB17444FEA93
:10175000124711EB0C4144EB1C4422EA074C05FBF9
:1017600007F206FB07F70CFB06F605FB0CFC16EB75
:10177000074642EB174216EB0C4642EB1C456A1833
:1017800054F1000148BF7047B619524141EB0101C5
:10179000A3F10103704795F0000F37D04FEA1142D3
:1017A0004FEA144721EA024624EA074C02FB07F1FC
:1017B00006FB07F70CFB06F402FB0CFC14EB0744DA
:1017C00041EB17414FEA154714EB0C4441EB1C4128
:1017D00025EA074C02FB07F506FB07F70CFB06F6AC
:1017E00002FB0CFC16EB074645EB174516EB0C46C7
:1017F00045EB1C42121951F1000148BF7047B61960
:10180000524141EB0101A3F1010370474FEA144536
:101810004FEA114724EA054621EA074C05FB07F188
:1018200006FB07F70CFB06F24FF0000605FB0CFC6D
:1018300012EB074241EB174112EB0C4251EB1C41FA
:1018400048BF7047921841EB0101A3F101037047B3
:1018500000BFFEE77047000000B58BB028220CA146
:1018600001A8FEF71BFD01A9134800F0FEFA0020B5
:10187000124908604FF47A7000F0F0FD0E4800F055
:10188000C8FA01200E49C1F8B4010BB000BD000038
:1018900041542B43495053544152543D22544350D8
:1018A000222C223139322E3136382E34332E312249
:1018B0002C3830383600000034000020B4012242B9
:1018C000000022420EB50BA207CA8DE80700694648
:1018D0000B4800F0CAFA00200A4908604FF47A70F9
:1018E00000F0BCFD064800F094FA01200649C1F85A
:1018F000B4010EBD41542B434950434C4F53450056
:1019000034000020B40122420000224200B58DB014
:1019100015A207CA0AAB07C3242216A101A8FEF725
:10192000BDFC4FF4E13000F0CBFB1B491B4800F03D
:101930003CFA0AA9194800F098FA4FF47A7000F0BE
:101940008DFD01A9154800F090FA4FF47A7000F06F
:1019500085FD4FF47A7000F081FD4FF47A7000F04D
:101960007DFD0DB000BD000041542B43574D4F4449
:10197000453D330041542B43574A41503D22444793
:101980005F4A69755975616E222C223132333435C4
:1019900036373822000000000044004034000020A8
:1019A0007FB50446204600F0B5FD85B2AA1C08A10B
:1019B000684600F029FB6946094800F056FA0A20FB
:1019C00000F04CFD2146064800F04FFA7FBD0000B4
:1019D00041542B43495053454E443D25640000007B
:1019E000340000202DE9F0410246002500260020A9
:1019F00000230024002791F803C00CF00F0591F894
:101A000003C00CF0100CBCF1000F03D091F802C021
:101A10004CEA050591F800C0BCF1000F31D0146804
:101A200000202BE04FF0010C0CFA00F3B1F800C0DD
:101A30000CEA03069E4220D183004FF00F0C0CFAF3
:101A400003F7BC4305FA03FC4CEA040491F803C015
:101A5000BCF1280F06D14FF0010C0CFA00FCC2F8C3
:101A600014C00AE091F803C0BCF1480F05D14FF053
:101A7000010C0CFA00FCC2F810C0401C0828D1D39D
:101A80001460B1F800C0BCF1FF0F34DD54680020D1
:101A90002EE000F1080C4FF0010808FA0CF3B1F841
:101AA00000C00CEA03069E4221D183004FF00F0CC8
:101AB0000CFA03F7BC4305FA03FC4CEA040491F862
:101AC00003C0BCF1280F05D100F1080C08FA0CF88E
:101AD000C2F8148091F803C0BCF1480F07D100F19F
:101AE000080C4FF0010808FA0CF8C2F81080401CEE
:101AF0000828CED35460BDE8F0810161704700BF73
:101B0000FEE7000008B50121042000F0C3F83020F2
:101B1000ADF8000048208DF8030003208DF8020086
:101B200069460248FFF75EFF08BD0000000801405B
:101B300070B504460025201D094901EB8000D0F84E
:101B4000000150B90A2000F089FC201D044901EB76
:101B50008000D0F8000100B90125284670BD0000C2
:101B60000000214210B5002006490860C82000F09E
:101B700075FC01200449C1F8B401C82000F06EFCD6
:101B800010BD0000B40122420000224208B501212C
:101B9000102000F07FF84FF40050ADF80000102046
:101BA0008DF8030003208DF8020069460448FFF712
:101BB00019FF4FF400510248FFF79FFF08BD0000D6
:101BC0000010014000BFFEE77047000070B5002123
:101BD00000230F22C47804B3154C246804F4E06495
:101BE000C4F5E064210AC1F10403CA40447804FA50
:101BF00003F184781440214309010E4C0678A15565
:101C0000047804F01F050124AC4005786D11AD0087
:101C100005F1E025C5F8004109E0047804F01F054E
:101C20000124AC40044D0678761145F8264070BD7D
:101C30000CED00E000E400E080E100E00249014337
:101C4000024A1160704700000000FA050CED00E048
:101C50007047000029B1064AD2690243044BDA6199
:101C600004E0034AD2698243014BDA617047000005
:101C70000010024029B1064A12690243044B1A615E
:101C800004E0034A12698243014B1A617047000065
:101C90000010024029B1064A92690243044B9A613E
:101CA00004E0034A92698243014B9A617047000045
:101CB0000010024029B1064AD2680243044BDA60A0
:101CC00004E0034AD2688243014BDA6070470000A7
:101CD0000010024030B500210022002400232D4DC9
:101CE0006D6805F00C0121B1042905D0082923D124
:101CF00005E0294D056022E0274D05601FE0254DD8
:101D00006D6805F47012234D6D6805F4803402256A
:101D100005EB92421CB9214D554305600BE01D4D6A
:101D20006D6805F400351DB11C4D5543056002E09A
:101D3000194D5543056002E0174D056000BF00BF17
:101D4000144D6D6805F0F0010909154D6B5C0568CF
:101D5000DD4045600F4D6D6805F4E061090A104DE6
:101D60006B5C4568DD4085600A4D6D6805F4605127
:101D7000C90A0B4D6B5C4568DD40C560054D6D685B
:101D800005F44041890B074D6B5CC568B5FBF3F565
:101D9000056130BD0010024000127A0000093D00CC
:101DA0001E0000202E00002070470160704770B5B3
:101DB000044640F22551206800F049FA40B32068FB
:101DC00000F000FBC5B20D2D03D10120A4F84600A0
:101DD00015E00A2D07D1B4F84600012803D10220EE
:101DE000A4F846000BE00020A4F84600B4F8481020
:101DF000201D4554B4F84800401CA4F84800B4F82D
:101E00004800402804DD0020A4F84800A4F846005B
:101E100070BD10B50146B1F84620022A10D1B1F8C4
:101E200048206AB10023B1F848400A1D13554631D5
:101E30004A888A8000220A804A804639012000E0D0
:101E4000002010BD70B504460D464021206800F00A
:101E50008DF92946206800F0BAFA00BF40212068B9
:101E600000F0E8F90128F9D170BD70B505460C46BF
:101E700004E021782846FFF7E5FF641C207800285D
:101E8000F7D10D212846FFF7DDFF0A212846FFF78D
:101E9000D9FF70BD10B500F001F810BD0CB50020E1
:101EA000019000903348006840F480303149086068
:101EB00000BF3048006800F4003000900198401CDA
:101EC0000190009818B90198B0F5A06FF1D1294898
:101ED000006800F4003010B10120009001E0002003
:101EE00000900098012843D12348006840F010007A
:101EF000214908600846006820F003000860084691
:101F0000006840F0020008601A48406819494860BB
:101F10000846406848600846406840F48060486071
:101F20000846406820F47C1048600846406840F449
:101F3000E81048600846006840F08070086000BF04
:101F40000C48006800F000700028F9D0094840688B
:101F500020F00300074948600846406840F002004E
:101F6000486000BF0348406800F00C000828F9D121
:101F70000CBD00000010024000200240042808D1DF
:101F80004FF0E021096941F004014FF0E0221161B6
:101F900007E04FF0E021096921F004014FF0E02251
:101FA000116170477047000010B51348006840F099
:101FB00001001149086008464068104908400E4970
:101FC0004860084600680E4908400B49086008460A
:101FD000006820F4802008600846406820F4FE0075
:101FE00048604FF41F008860FFF754FF4FF0006017
:101FF0000449086010BD0000001002400000FFF816
:10200000FFFFF6FE08ED00E00FB438B5044606A861
:1020100000902046009A0599FEF72EF900200090C6
:1020200038BC5DF814FB000010B540F225511D4886
:1020300000F00DF910B31B4800F0C4F9C4B21A48FF
:10204000008800F40040C8B91748008800F48040B8
:1020500060B10A2C03D000201349088020E0124808
:10206000008840F400401049088019E00D2C06D18A
:102070000D48008840F480400B49088010E00A4871
:102080000088C0F30D0009490C5407480088401C23
:102090000549088008460088C72801DD002008801F
:1020A00010BD0000003801401C000020800000200E
:1020B00010B50248FFF77BFE10BD00003400002081
:1020C00010B586B0044601214804FFF7C3FD012185
:1020D0000420FFF7DFFD234800F05EF818208DF89C
:1020E00017000420ADF8140003208DF8160005A990
:1020F0001D48FFF777FC04208DF817000820ADF885
:10210000140005A91848FFF76DFC01940020ADF8F4
:1021100010000C20ADF80E000020ADF80C00ADF85A
:102120000A00ADF8080001A90E4800F0DFF82620EB
:102130008DF8000001208DF8030002208DF80100C9
:1021400001208DF802006846FFF740FD012240F2B1
:102150002551044800F0A5F80121024800F00FF8CD
:1021600006B010BD004400400008014001F40072B8
:10217000B2F5007F00D100BFCA430280704721B191
:10218000828942F40052828104E082894DF6FF7315
:102190001A4082817047000010B5044620488442EE
:1021A00009D101218803FFF785FD00214FF480400C
:1021B000FFF780FD32E01B48844209D10121480429
:1021C000FFF758FD00214FF40030FFF753FD25E0E5
:1021D0001548844209D101218804FFF74BFD0021F5
:1021E0004FF48020FFF746FD18E01048844209D1E3
:1021F0000121C804FFF73EFD00214FF40020FFF746
:1022000039FD0BE00A48844208D101210805FFF797
:1022100031FD00214FF48010FFF72CFD10BD0000B0
:10222000003801400044004000480040004C00409D
:102230000050004002460020B1F5007F00D100BFF1
:1022400013880B400BB1012000E00020704770B5EF
:102250000246002400230025002040F66A16B14201
:1022600000D100BFC1F3421501F01F03012606FA99
:1022700003F3012D02D19689334006E0022D02D1ED
:10228000168A334001E0968A33400C12012606FA82
:1022900004F41688344013B10CB1012000E0002092
:1022A00070BDF0B50346002400260025002040F64E
:1022B0006A17B94200D100BF1846C1F3421401F0B9
:1022C0001F06012707FA06F5012C01D10C3004E0A6
:1022D000022C01D1103000E014301AB107682F43EE
:1022E000076002E00768AF430760F0BD2DE9F047E3
:1022F00086B005460E460024A24600BFA146002730
:10230000B08900B100BF2F462C8A4CF6FF70044004
:10231000F08804432C82AC894EF6F3100440B08858
:1023200031890843718908430443AC81AC8A4FF674
:10233000FF400440B0890443AC8201A8FFF7CAFC07
:102340001F48874202D1DDF810A001E0DDF80CA0A3
:10235000A88900F4004040B10AEBCA0000EB0A1063
:1023600031684900B0FBF1F807E00AEBCA0000EB66
:102370000A1031688900B0FBF1F86420B8FBF0F076
:1023800004012009642101FB1089A88900F40040A0
:1023900040B1322000EBC900B0FBF1F000F00700C3
:1023A000044308E0322000EB09106421B0FBF1F097
:1023B00000F00F0004432C8106B0BDE8F087000058
:1023C0000038014001468888C0F308007047C1F317
:1023D00008028280704700BFFEE7490050EAC12032
:1023E00018BF04204A0D18BF40F0010040F2FF72F0
:1023F000B2EB515F08BF40F00200012808BF052082
:10240000704730380A2801D20120704700207047F9
:10241000014600BF7047000010B56FF00400FFF7E1
:10242000ADFD0A4800680A49B0FBF1F0094908709F
:102430000846007800EB4001C1EBC0104FF6FF7179
:1024400001EAC0000449088010BD0000000000201F
:1024500000127A0014000020160000200146114AE4
:1024600012884A434FF0E0235A6100229A611A46CB
:10247000126942F001021A6100BF4FF0E0221069B8
:1024800000F001021AB100F48032002AF5D04FF0BA
:10249000E022126922F001024FF0E0231A610022CB
:1024A0009A61704716000020FFF7B6FF4FF4A06056
:1024B000FFF7C4FB4FF4E13000F036F8FFF766FB9E
:1024C000FFF720FBFFF722FAFFF7C6F917E0FFF747
:1024D00049FB0020FFF72CFB012802D1FFF7F2F99E
:1024E00006E00120FFF724FB012801D1FFF7B4F932
:1024F0004FF47A70FFF7B2FF01A0FFF751FAE6E759
:102500004550533031532049532052454144590DD1
:102510000A0000000146002001E0491C401C0A7826
:10252000002AFAD17047000010B586B00446012198
:1025300044F20400FFF7AEFB4FF40070ADF8140056
:1025400003208DF8160018208DF8170005A91C48E7
:10255000FFF748FA4FF48060ADF8140004208DF8BE
:10256000170005A91648FFF73DFA25208DF8000051
:1025700003208DF801008DF8020001208DF8030082
:102580006846FFF723FB01940020ADF80800ADF882
:102590000A00ADF80C00ADF810000C20ADF80E00EC
:1025A00001A90848FFF7A2FE012240F22551054883
:1025B000FFF777FE01210348FFF7E1FD06B010BDEC
:1025C000000801400038014010B500290AD0087801
:1025D000002807D005487844FEF732FD002801D0D6
:1025E000002010BD0248784410BD000046010000E4
:1025F0003E01000010B500290AD00878002807D055
:1026000005487844FEF71CFD002801D0002010BDCD
:102610000248784410BD0000360100002E01000081
:10262000FEF79BBA0000000000000000303132339A
:1026300034353637383941424344454640305800F6
:102640003031323334353637383961626364656628
:102650004030780004000008000000000000000284
:10266000000100001000000002400000000000A077
:102670000000000005400000000000C8000000004D
:102680000C4000000000409C0000000019400000C9
:102690000020BCBE0000000034400000BFC91B8EFB
:1026A00000000004B5400000504BCFD06607E2CFD9
:1026B000010000006C4100003E8251AADFEEA73409
:1026C00001000000D9420000DCB5A0E23A301F97BB
:1026D000FFFFFFFFB4450000FD25A0C8E9A3C14FDF
:1026E000FFFFFFFFFF3F0000000000800000000030
:1026F000FF3F0000000000800000000048280008A4
:102700000000002034000000280100087C28000898
:102710003400002074070000440100081C00000081
:1027200043000000F8FFFFFF0C0000000E00000057
:102730000F0000002E000000100100004300000008
:10274000F8FFFFFF004040404040404040404141D2
:102750004141414040404040404040404040404076
:102760004040404040050202020202020202020210
:10277000020202020220202020202020202020020D
:10278000020202020202909090909090101010109D
:102790001010101010101010101010101010101039
:1027A00002020202020288888888888808080808CD
:1027B0000808080808080808080808080808080899
:1027C00002020202400000000000000000000000C1
:1027D00000000000000000000000000000000000F9
:1027E00000000000000000000000000000000000E9
:1027F00000000000000000000000000000000000D9
:1028000000000000000000000000000000000000C8
:1028100000000000000000000000000000000000B8
:1028200000000000000000000000000000000000A8
:102830000000000000000000000000000000000098
:10284000000000000000000000A24A040000000098
:102850000000000001020304060708090000000050
:10286000000000000000000000000102030401025B
:0C28700003040607080902040608000023
:0400000508000235B8
:00000001FF
