:020000040800F2
:10000000300C002035020008ED200008AD1B000870
:10001000E9200008891A0008732D0008000000007C
:100020000000000000000000000000008D22000819
:100030008D1A00080000000075210008E128000862
:100040004F0200084F0200084F0200084F0200084C
:100050004F0200084F0200084F0200084F0200083C
:100060004F0200084F0200084F0200084F0200082C
:100070004F0200084F0200084F0200084F0200081C
:100080004F0200084F0200084F0200084F0200080C
:100090004F0200084F0200084F0200084F020008FC
:1000A0004F0200084F0200084F0200084F020008EC
:1000B0004F0200084F0200084F0200084F020008DC
:1000C0004F0200084F0200084F0200084F020008CC
:1000D0004F020008512B00084F0200084F02000891
:1000E0004F0200084F0200084F02000800F002F81B
:1000F00000F090F80AA090E8000C82448344AAF132
:100100000107DA4501D100F085F8AFF2090EBAE82F
:100110000F0013F0010F18BFFB1A43F0010318473B
:100120008C970000AC970000103A24BF78C878C1C3
:10013000FAD8520724BF30C830C144BF04680C60ED
:10014000704700000023002400250026103A28BF35
:1001500078C1FBD8520728BF30C148BF0B60704739
:100160006E2900F08B83702900F06B81662907F0FF
:100170001280652907F00F80672907F00C8061293C
:10018000AFF3008003681B0A28BF41F08001692992
:1001900000F0DC80642900F0D980752900F0D68059
:1001A0006F2900F07C86782900F03781E92900F07A
:1001B0001786E42900F01486F52900F01186EF294E
:1001C00000F07986F82900F036810368DB0928BF42
:1001D00041F08001632900F03387732900F03887EC
:1001E000E32900F04387F32900F048870020704797
:1001F0001FB500F08DFE04000020002105F0BAFEBE
:10020000401C60600020002105F09EFEE0601FBDE4
:1002100010B510BD00F0F8FF1146FFF7E9FF04F03C
:1002200077FB01F01FF803B4FFF7F2FF03BC02F005
:1002300026FE00000948804709480047FEE7FEE720
:10024000FEE7FEE7FEE7FEE7FEE7FEE7FEE7FEE786
:1002500004480549054A064B70470000E528000898
:10026000ED00000830060020300C0020300800208F
:1002700030080020704710B54C1084EA530404D5B0
:100280004042C1F1000138BF491E1B4204D5524211
:10029000C3F1000338BF5B1E00F0DAF914F0804FA1
:1002A00004D04042C1F1000138BF491E14F0004F94
:1002B00004D05242C3F1000338BF5B1E10BD0000E2
:1002C0001CB50C46064B7B4469460090204600F066
:1002D000FEFC04460020694600F00CFD20461CBDD3
:1002E0002B0A00000FB4044910B503AA029800F0CD
:1002F00007FD10BC5DF814FB5000002070B50446EB
:1003000085690068C10601D5302600E02026C007B7
:1003100007D070BDD4E9012130469047206A401CC7
:1003200020626D1EF6D570BD70B5044685690078F3
:10033000C00707D170BDD4E9012120209047206A71
:10034000401C20626D1EF6D570BD00002DE9F04105
:100350000646002410687529314616A510D000F015
:10036000F9F9002802DA404213A507E031688A074C
:1003700001D512A502E0490704D511A5012401E029
:1003800000F0F1F900210A2206F1240709E0B0FB90
:10039000F2FCB0FBF2F302FB1C003030785418463C
:1003A000491C0028F3D123462A463046BDE8F041D7
:1003B00000F00BBA000000002D0000002B00000030
:1003C00020000000F0B40D460188090502D5214C3B
:1003D0007C4402E01F4C7C440E34002100F12406D2
:1003E00008E002F00F071209E75D42EA03721B09F9
:1003F0007754491C52EA0307F3D10278002312070D
:1004000004D5702D06D009B1022311342246F0BC68
:1004100000F0DBB901231034F8E770B504460D464F
:100420002146106800F09FF9024629462046BDE8A3
:1004300070400023C6E7D21D22F00703D3E9002352
:10044000C0E70368126843F0200303600823C36118
:100450000023B7E7BE9200002DE9F05F894604460D
:100460004FF0000ADFF874B1FB44C0F820A020462A
:10047000E1688847002874D0252806D0D4E90121F6
:100480009047206A401C2062F1E700265F46204624
:10049000E16888472028054607DB312D05D2781909
:1004A00010F8200C08B10643F1E7B00701D526F09B
:1004B0000406C4F81CA00027C4F818A02A2D09D0EF
:1004C000284602F0D5FC38B304EB8708303DC8F865
:1004D000185019E059F8041B204604EB870291617B
:1004E000E1688847012F054618D1E069002820DA25
:1004F00026F020061DE0D8F8180000EB800005EB80
:1005000040003038C8F818002046E16888470546A2
:1005100002F0AEFC0028EED1012F0AD02E2D08D11A
:100520002046E16888477F1C0546022F46F02006DA
:10053000C4DBA069002803DA404246F00106A0614E
:10054000F00701D026F010066C2D0BD0682D09D0D5
:100550004C2D39D06A2D35D0742D35D07A2D33D02D
:1005600016E038E0E1682F4620468847B842054645
:1005700009D16C2F26D04FF48060E16806432046F5
:100580008847054604E06C2F1AD04FF4807006436C
:100590000DB3A5F14100192802D8203546F40066B4
:1005A0004A462946204626604E46FFF7D9FD80B1CF
:1005B00001280BD0F61D26F0070000F1080956E7C8
:1005C0004020E4E78020D8E70020D6E706F10409C0
:1005D0004DE7284652E7206ABDE8F09F4E920000A2
:1005E00040EA010310B59B070FD1042A0DD310C8B0
:1005F00008C9121F9C42F8D020BA19BA884201D902
:10060000012010BD4FF0FF3010BD1AB1D30703D049
:10061000521C07E0002010BD10F8013B11F8014BFF
:100620001B1B07D110F8013B11F8014B1B1B01D11B
:10063000921EF1D1184610BD02F0FF0343EA0322D7
:1006400042EA024200F044BC70477047704770476E
:1006500053EA020C00F069802DE9F04B4FF00006E0
:10066000002B1FBFB3FA83F503FA05F424FA05F64D
:100670005E4012BF1643B2FA82F502FA05F4C5F1E4
:1006800020051EBF22FA05FC44EA0C04203556EA78
:10069000044C4FEA144418BF641C4FF000084FF09C
:1006A0000009904271EB030C39D3002919BFB1FA4C
:1006B00081F701FA07F6B0FA80F700FA07F6C7F1FA
:1006C00020071EBF20FA07FC46EA0C062037B6FBBF
:1006D000F4FCA7EB0507103F07F01F0BCBF120063A
:1006E0000CFA0BFB2CFA06F644BFB3460026202F6B
:1006F000A4BF5E464FF0000B5BEA060C08BF4FF04C
:10070000010B19EB0B09ABFB027C48EB0608C01B85
:1007100006FB02CC0BFB03CC71EB0C01C1E70B46D3
:10072000024641464846BDE8F08B13B54FF0000045
:100730004FF00001AFF30080BDE81C40704710B5DA
:1007400000F0EAFB006810BD10B5044600F0E4FBC1
:10075000046010BD09684A0501D540B27047C9055B
:10076000FCD500B2704709684A0501D5C0B2704790
:10077000C905FCD580B2704770B50C460546012A04
:1007800005D02878800600D5EA69002302E001231D
:1007900005E05B1C934202D2E05C0028F9D1A86915
:1007A000E618C01AA861286A184428622846FFF78C
:1007B000A5FD04E0D5E9012114F8010B9047B442EE
:1007C000F8D32846FFF7B0FD70BD2DE9F0470D4680
:1007D00099469246044600F124080168880604D52B
:1007E000E06921F01001216000E00120A84201DD54
:1007F000471B00E00027A1697A1902EB0900081ADB
:10080000A0612078C00602D42046FFF777FD0026BD
:1008100008E0D4E901211AF806009047206A401C3C
:10082000761C20624E45F4DB2078C0060AD52046AF
:10083000FFF764FD06E0D4E9012130209047206AEB
:10084000401C2062381EA7F10107F4DC07E0D4E960
:10085000012118F805009047206A401C2062281EDC
:10086000A5F10105F3DC2046FFF75EFD20780006C8
:1008700002D50220BDE8F0870120FBE7116802687D
:10088000006A530501D508700AE0D30501D5088038
:1008900006E0130603D5C217C1E9000200E00860B4
:1008A0000120704770472DE9FF4F0C461E464FF060
:1008B000FF378BB0D2E90001DDF860800A908A46EC
:1008C000C1F30A5505B93D46002108464FF0000026
:1008D000BAF1000F00F4400005DA00EB80004FF49D
:1008E000400101EA50004FEA9059B9F1010F00DDD3
:1008F000B9460A9850EA4A000ED044F61050A5F2C4
:10090000FF3545432F14B8F1000F1ED07542291E44
:100910001EDDC9F100021CE0B8F1010F4FF000002C
:1009200001D0302103E0F24305E02154401CB042E5
:10093000FBDB30460022002121540B99C1F80880CE
:10094000C1E900200FB0BDE8F08FBD1B6D1CDEE7D4
:100950004A4600DA694206A800F094FB06AB93E829
:10096000070003AB83E8070050460A9900F0C4FC77
:100970008DE80700A0F500501F3800900398002D67
:100980000ADD42F21F014A460844002303A90390EE
:10099000684600F02DFF09E0A0F500504A461F38D8
:1009A000002303A90390684600F037FF8DE8070095
:1009B0000004000C03D04FF0FF30410800E0104667
:1009C000B8F1000F03D00022009215461EE0751EFC
:1009D00005D400F0A5FA303262556D1EF9D5B34644
:1009E0000122084302D000227F1C04E02078302836
:1009F00001D100227F1E002A099784D01DE0112D0D
:100A000007DA00F08DFA303262556D1C50EA0102AF
:100A1000F5D1084302D00098C8B10EE00021681E4D
:100A200005E0235C625C63542254401E491C8142F1
:100A3000F7DBAB46A81B401E0990002004F80B0012
:100A40000B98099AC0F80880C0E9002B7AE71126B4
:100A50004FF0000857E72DE9F04F88460446D21DB5
:100A600022F0070191B0D1E90001CDE90A0102F0BD
:100A700082F902460B98C00F01D02D2007E02068B4
:100A8000810701D52B2002E0202101EAC000032AC2
:100A9000099001D0072A05DB03464146204600F0B5
:100AA00085FA0BE12078800601D5E06900E0062098
:100AB000B8F1650F814606D0B8F1660F18D0B8F1CD
:100AC000670F70D131E00020B9F1110F009001DB08
:100AD000112301E009F101030AAA01A90CA8FFF7FB
:100AE000E2FEDDE90C70002609F10105834647E0CE
:100AF00001204B4600904FF000470AAA01A90CA81C
:100B0000FFF7D1FEDDE90DB00C995D46002610B966
:100B100009F101000D18B9EB050003D4C0F1FF364F
:100B200009F10105A5EB09002BE0B9F1010F01DA8C
:100B30004FF001090020B9F1110F0090484601DD86
:100B4000112300E003460AAA01A90CA8FFF7ABFE97
:100B5000DDE90C704D4600268346207800070AD454
:100B6000AB4500DA5D4601A8012D04DD411911F8FD
:100B7000011C302907D04F4502DA17F1040F04DABF
:100B8000012082460FE06D1EEEE7002F02DCED1B18
:100B90003E4403E0781CA84200DD7D1CB81B00F138
:100BA000010A4FF000472078000703D4AA4501DB73
:100BB0004FF0FF3A0021B7F1004F0DF143088DF8D7
:100BC000431024D002202B23002F01DA7F422D2353
:100BD0000A21021EA0F1010000DC5FB197FBF1FCCD
:100BE00097FBF1F201FB1C7C17460CF1300C08F866
:100BF00001CDEEE7A8F1010003702188090501D5B8
:100C0000452100E06521A0F1010800F8011C0998C8
:100C10000FA9A1EB0807FF1D00B10120411901EB4D
:100C2000EA70A1693844081A401EA0612078C00605
:100C300002D42046FFF762FB099828B1D4E90121CC
:100C40009047206A401C20622078C00622D52046AA
:100C5000FFF754FB1EE0002E04DBB34502DD01A8C4
:100C6000805D00E03020D4E901219047206A401CDB
:100C70002062761CAAF101005FEA000A0AD100F0A6
:100C800047F9C0680168405CD4E901219047206AB7
:100C9000401C2062281EA5F10105DCDC07E0D4E938
:100CA000012118F8010B9047206A401C2062381E71
:100CB000A7F10107F3DC2046FFF736FB032011B054
:100CC00041E6000001694A1C02610878704700B5DE
:100CD0008FB0CDE901310021059105497944CDE975
:100CE000031011466846FFF7B7FB0FB000BD0000C8
:100CF000E5FFFFFF0A6802F8010B0A607047000079
:100D0000074B70B50D467B44FFF7E1FF04462846CC
:100D100000F02AFA10B14FF0FF3070BD204670BDD0
:100D2000433500002DE9FF5F15468A460446DFF88B
:100D3000AC80F8440027D8E900103E46CDE9001009
:100D400010E03AF816106A4602A800F011FA411CA9
:100D500007D02178890603D5E269391891420DD868
:100D60000744761C2078800602D5E069B84205DD8C
:100D7000AE42E6DB3AF816000028E2D1A069C01BBB
:100D8000A0612046FFF7BAFAD8E90010CDE90010BB
:100D9000002017E03AF818106A4602A800F0E8F9B7
:100DA000B0F1FF3F81460BD000250DF1080B05E0A7
:100DB000D4E901211BF8050090476D1C4D45F7D380
:100DC00008F10100B0428046E4DB206A384420622A
:100DD0002046FFF7A9FABDE8FF9F0000EA8900005E
:100DE0002DE9F0418046D21D22F007020025D2E90C
:100DF0000002F52915A614D0011E72F1000106DAD1
:100E00000023D0EB030063EB020211A608E0D8F840
:100E100000108B0701D50FA602E0490701D50EA6E9
:100E200001251146002408F1240704E000F078F8B9
:100E300030323A55641C50EA0102F7D12B46324653
:100E400021464046BDE8F041FFF7BFBC000000006E
:100E50002D0000002B0000002000000030B4002115
:100E600000F1240408E002F00705D208303542EA18
:100E70004372DB086554491C52EA0305F3D1046848
:100E8000002310A2250707D5A40600D421B1C46908
:100E900001230DA2641EC46130BCFFF796BC10B5DF
:100EA000044621461068FFF75EFC02462046BDE876
:100EB00010400023D2E7D21D22F00701D1E9002320
:100EC000CCE7000000000000300000004FF00002FE
:100ED0000429C0F0128010F0030C00F06B81CCF1FB
:100EE000040CBCF1020F18BF00F8012BA8BF20F8BA
:100EF000022BA1EB0C0100F05DB95FEAC17C24BFBD
:100F000000F8012B00F8012B48BF00F8012B7047B7
:100F100000487047F005002000487047D0050020C9
:100F200030B5B0F10A024FEA900E71F100034EEABB
:100F3000817EB0EB0E0061EB91014FEA101E4EEA8C
:100F4000017E10EB0E0041EB11114FEA102E4EEA1C
:100F5000016E10EB0E0041EB11214FEA104E4EEAEC
:100F6000014E10EB0E0041EB1141401841F1000120
:100F70004FEAD00040EA41704FEAD10110EB800502
:100F80004FEA810444EA907444EB01046D1944EB88
:100F90000404521BA3414FF0000348BF0A3200D59E
:100FA00030BD401C41F1000130BD00002DE9F04191
:100FB0001F46044603260168072A01F4006004DB8B
:100FC00008B116A505E016A503E008B115A500E0D7
:100FD00015A521F010002060A069C01EA0610FB10E
:100FE000401EA0612046FFF789F94FB1D4E90121E5
:100FF00038469047206A401C2062C01C206206E0F0
:10100000206AFAE7D4E9012115F8010B9047761E12
:10101000F8D22046FFF788F9BDE8F0814E414E0036
:101020006E616E00494E4600696E660010B54369F8
:1010300013B1AFF3008001E0FFF79EFB012010BD6C
:10104000127800F124010A7000224A700122EDE7B3
:1010500011684FF0FF32E9E710B5436913B1AFF300
:10106000008001E0FFF75EFE012010BD128800F154
:10107000240182840022C2840122EDE711684FF02E
:10108000FF32E9E72DE9F047814616468AB0354838
:1010900078440DC88DE80D0032487844801C03ACBC
:1010A0000DC884E80D0041F69B300844372190FBC1
:1010B000F1F290FBF1F5A5F1800501FB12041B3C58
:1010C00002D56442012000E00020DFF898A08046AD
:1010D0000027FA44AAF1BE0A0EE0E0070AD0324621
:1010E000684607EB470101230AEB810100F095FBFD
:1010F0008DE8070064107F1C002CEED1194F7F444F
:10110000AE3F19E0E80715D007EB04100DF1180AFF
:1011100090E80E008AE80E00C068F04201D19819EC
:1011200008903246012306A903A800F076FB03AB22
:1011300083E807006D10641C002DE3D14FF001031C
:1011400032466946B8F1000F03A802D000F050FB08
:1011500001E000F062FBC9E90001C9F808200AB00B
:10116000BDE8F087B0870000007B00F0800070478A
:1011700070B516460C46054600F06CF8036893F807
:101180000101012806D0FF2C0FD8185D68B101209D
:101190002C7070BDD3F807013246214603F20713C5
:1011A00003442846BDE8704018474FF0FF3070BD3B
:1011B0004FF0000200B5134694469646203922BFF0
:1011C000A0E80C50A0E80C50B1F12001BFF4F7AF3B
:1011D000090728BFA0E80C5048BF0CC05DF804EB1D
:1011E000890028BF40F8042B08BF704748BF20F88B
:1011F000022B11F0804F18BF00F8012B7047000040
:1012000000487047D00500207546FFF7F9FFAE464D
:1012100005006946534620F00700854618B020B502
:10122000FFF716F8BDE820404FF000064FF000072A
:101230004FF000084FF0000B21F00701AC46ACE87E
:10124000C009ACE8C009ACE8C009ACE8C0098D46EB
:101250007047000010B5FFF75BFE001D10BD00BF1A
:10126000154D000010B50446AFF300802046BDE8E0
:101270001040FEF7D8BF00004FF0013C50F8042B9F
:1012800051F8043B9A4221D1A2EB0C03934313EA99
:10129000CC1317D150F8042B51F8043B9A4215D1C6
:1012A000A2EB0C03934313EACC130BD150F8042B9D
:1012B00051F8043B9A4209D1A2EB0C03934313EA81
:1012C000CC13DBD04FF00000704700BFD01A01BA3A
:1012D000B1FA81F101F0180122FA01F0CB40C1F11D
:1012E0002001DBB2C0B2C01A2CFA01F3D11A91432B
:1012F00011EAC311E6D170475FEA400C08BF91F0D4
:10130000000F4FEA8C234FEAC12243EA51514FEAC2
:101310001C5018BF00F5F0404FEA300018BF41F0F4
:1013200000415FEA6C5C00F02980BCF1FF3F08BF20
:1013300040F080407047130C06BF12044FF0100CB1
:101340004FF0000C130E04BF12020CF1080C130F27
:1013500004BF12010CF1040C930F04BF92000CF1B6
:10136000020CD30F04BF52000CF1010C11464FF0D8
:101370000002A0F11F00A0EB0C00704711F0004F1D
:1013800008BF704731F000413FF4D5AF0B0C06BFEA
:1013900009044FF0100C4FF0000C0B0E04BF0902B3
:1013A0000CF1080C0B0F04BF09010CF1040C8B0F9E
:1013B00004BF89000CF1020CCB0F04BF49000CF1F3
:1013C000010CCCF12003A0EB0C0022FA03F302FA8B
:1013D0000CF241EA030100F10100704720F07F4C5C
:1013E00080EA030023F07F47ACEB070303F57C534F
:1013F00000F0004003F1FF032DE980494FEA154B4F
:1014000009B44FEA144325EA0B4E24EA03480FF2CD
:10141000042606EB132749083E785FEA320203FBF5
:101420000667C7F5000707FB06F64FEA54374FEA91
:10143000D64606F1020607FB066CCCF1005C4FEACB
:101440001C472CEA074C07FB06F40CFB06F504EBE3
:1014500015464FEA961634BF00204FF000404FEA81
:10146000D13706FB07FC4FEA1C4C0CFB0BF7D21BD9
:1014700003FB0CF761EB07010CFB0EF7B0EB074029
:1014800072EB17420CFB08F734BFA2EB0742B2EB3A
:10149000074261EB17414FEA0C444FEA910706FB04
:1014A00007FC4FEA1C4C0CFB0BF7B0EBC74072EB90
:1014B000573203FB0CF734BFA2EBC742B2EBC74273
:1014C00061EB57310CFB0EF7B0EBC70072EB5772B4
:1014D0000CFB08F734BFA2EBC702B2EBC70261EB0B
:1014E0005771039F4FEA816141EA921104EBCC04EA
:1014F0004FEAD1374FEA826206FB07FC42EA9012BC
:101500004FEA80604FEA1C4C0CFB0BF7D21B03FB2D
:101510000CF761EB07010CFB0EF7B0EB074072EB29
:1015200017420CFB08F734BFA2EB0742B2EB0742AD
:1015300061EB17414FEA8C554FEA910704EB9C246D
:1015400006FB07FC4FEA1C4C0CFB0BF7B0EBC7404B
:1015500072EB573203FB0CF734BFA2EBC742B2EB7E
:10156000C74261EB57310CFB0EF7B0EBC70072EBD3
:1015700057720CFB08F734BFA2EBC702B2EBC702ED
:1015800061EB577115EB4C254FEA816141EA9211ED
:101590004FEA82624FEAD13742EA901206FB07FC1B
:1015A00044F100044FEA80604FEA1C4C0CFB0BF73F
:1015B000D21B03FB0CF761EB07010CFB0EF7B0EB42
:1015C000074072EB17420CFB08F734BFA2EB07424F
:1015D000B2EB074261EB174115EB1C154FEA813165
:1015E00041EA92414FEA823242EA90424FEA803029
:1015F0004FEA0C7644F1000448EA03434EEA0B48F4
:101600004FF0000EB2EB080C71EB030724BF6246EB
:1016100039464EEB0E0E4FF0000B00185241494177
:101620004BEB0B0BB2EB080C71EB03077BF1000BE0
:1016300024BF624639464EEB0E0E4FF0000B0018E9
:10164000524149414BEB0B0BB2EB080C71EB03071A
:101650007BF1000B24BF624639464EEB0E0E51EA79
:10166000020718BF46F0010616EB0E7655F1000290
:1016700054F1000103D5BDE88901BDE80088BDE84B
:101680008901BDE80048B619524141EB0101A3F1BF
:101690000103704780807F7E7D7C7B7A79787776C6
:1016A00076757473727171706F6E6E6D6C6C6B6A3F
:1016B0006A696868676666656464636362616160DD
:1016C000605F5F5E5E5D5D5C5C5B5B5A5A5959585A
:1016D00058575756565555555454535352525251C4
:1016E000515050504F4F4F4E4E4D4D4D4C4C4C4B1A
:1016F0004B4B4A4A4A494949484848474747474661
:10170000464645454544444444434343434242429C
:1017100042414141002B9C4630D477002BD01CB570
:101720004FEA370703B44FF010004FF01001BAF141
:10173000000F06D0BCF1000FDCBF40F0080040F005
:1017400008014FF000000FBCBDE810400BF1010B89
:10175000BBF1010F08BF5FEA170722BF12F10102B8
:1017600011F101014FF0004143F1000300F000408E
:1017700043EA00007047F9D35708D0E746EA064627
:1017800013F1400F4FEA16461FDD13F1200FDFBFA4
:1017900016430A46002120335B42BED0C3F1200726
:1017A00046EA064602FA07F74FEA164646EA0706F1
:1017B000C3F1200722FA03F201FA07F721FA03F135
:1017C0004FF0000342EA0702A7E746EA020646EAAC
:1017D00006464FEA164646EA0106BCBF46EA0646FA
:1017E000360C4FF000034FF000024FF0000194E779
:1017F0002DE9804C9A46934670B491E8380007C8AA
:1018000031EA400C48BF34EA430C03D5FFF7E6FD4C
:10181000FFF780FFF0BCBDE8008C2DE9804C9A46B4
:10182000934670B491E8380007C810F0804F08BFA5
:1018300013F0804F03D100F005F8FFF76BFFF0BC09
:10184000BDE8008C20F07F4780EA030023F07F4C46
:1018500007EB0C03A3F57C5300F00040A3F1FE035B
:1018600092F0000F00F0B38095F0000F00F0778049
:101870002DE901494FEA11404FEA144621EA004898
:1018800000FB06FC24EA064708FB06F607FB08F8FF
:1018900000FB07F718EB06484CEB164C4FEA124BCF
:1018A00018EB07484FEA15464CEB174022EA0B4E5F
:1018B0000BFB06FC25EA06470EFB06F607FB0EFEB1
:1018C0000BFB07F71EEB064E4CEB164C4FF00006D9
:1018D0001EEB074E4CEB174B18EB0B0840F10000CA
:1018E00018EB0E0B58EB000840F100008F1A4FF078
:1018F00000013CBFC943661B14BFB5EB040C0021BB
:101900003CBFC943F61B4FEA17444EEA8E0E27EA46
:1019100004454FEA1C4704FB07622CEA074C05FB11
:1019200007F70CFB05F604FB0CFC16EB074642EB35
:10193000174216EB0C4642EB1C421BEB060658EB1B
:101940000202414146EA9E0601D5BDE80189B61969
:10195000524141EB0101A3F10103BDE801894FEAC6
:1019600014454FEA114724EA054621EA074C05FBD6
:1019700007F406FB07F70CFB06F105FB0CFC11EB6B
:10198000074144EB17444FEA124711EB0C4144EB7B
:101990001C4422EA074C05FB07F206FB07F70CFB89
:1019A00006F605FB0CFC16EB074642EB174216EB5E
:1019B0000C4642EB1C456A1854F1000148BF7047C1
:1019C000B619524141EB0101A3F10103704795F0B3
:1019D000000F37D04FEA11424FEA144721EA02467E
:1019E00024EA074C02FB07F106FB07F70CFB06F4A1
:1019F00002FB0CFC14EB074441EB17414FEA15477F
:101A000014EB0C4441EB1C4125EA074C02FB07F5A3
:101A100006FB07F70CFB06F602FB0CFC16EB074671
:101A200045EB174516EB0C4645EB1C42121951F1DC
:101A3000000148BF7047B619524141EB0101A3F1C3
:101A4000010370474FEA14454FEA114724EA05465F
:101A500021EA074C05FB07F106FB07F70CFB06F232
:101A60004FF0000605FB0CFC12EB074241EB17415F
:101A700012EB0C4251EB1C4148BF7047921841EBEE
:101A80000101A3F10103704700BFFEE770472DE994
:101A9000F0410246002500260020002300240027F4
:101AA00091F803C00CF00F0591F803C00CF0100C76
:101AB000BCF1000F03D091F802C04CEA050591F883
:101AC00000C0BCF1000F31D0146800202BE04FF0B3
:101AD000010C0CFA00F3B1F800C00CEA03069E42B8
:101AE00020D183004FF00F0C0CFA03F7BC4305FA2A
:101AF00003FC4CEA040491F803C0BCF1280F06D1A2
:101B00004FF0010C0CFA00FCC2F814C00AE091F886
:101B100003C0BCF1480F05D14FF0010C0CFA00FCDA
:101B2000C2F810C0401C0828D1D31460B1F800C01E
:101B3000BCF1FF0F34DD546800202EE000F1080CEA
:101B40004FF0010808FA0CF3B1F800C00CEA0306E4
:101B50009E4221D183004FF00F0C0CFA03F7BC43D7
:101B600005FA03FC4CEA040491F803C0BCF1280F09
:101B700005D100F1080C08FA0CF8C2F8148091F8AD
:101B800003C0BCF1480F07D100F1080C4FF0010869
:101B900008FA0CF8C2F81080401C0828CED3546014
:101BA000BDE8F081416170470161704700BFFEE709
:101BB00008B50121102000F0EFFA4FF40050ADF805
:101BC000000010208DF8030003208DF80200694604
:101BD0000448FFF75CFF4FF400510248FFF7E4FFB1
:101BE00008BD00000010014010B500200E4908603B
:101BF0000E48006820F470400C49086008460068F0
:101C000040F44050086000200949C1F8AC0100F0E0
:101C100011F801200449086000F00CF80020044984
:101C2000C1F8A80110BD0000A8812142040C0140A8
:101C30000080214210B5022001F008FD10BD000017
:101C400008B50121082000F0A7FA4FF44060ADF874
:101C5000000010208DF8030003208DF80200694673
:101C60000448FFF714FF4FF440610248FFF79CFF60
:101C700008BD0000000C014010B500200E490860AE
:101C80000E48006820F470400C490860084600685F
:101C900040F44050086001200949C1F8AC01FFF749
:101CA000C9FF012004490860FFF7C4FF0020044970
:101CB000C1F8A80110BD0000A8812142040C014018
:101CC0000080214270B5054600241648006820F4C3
:101CD0007040144908600846006840F400400860FD
:101CE000002614E0002010490860FFF7A3FF012040
:101CF0000E49C1F8A8016006040E0B487C38006844
:101D000008B1601CC4B2FFF795FF701CC6B2082E64
:101D1000E8DB15B9FFF7B0FF01E0FFF765FF2046EC
:101D200070BD0000040C0140A881214200802142C6
:101D300070B504461248006820F4704010490860ED
:101D40000846006840F44050086000200D490860D3
:101D5000002512E0E0090B49091D08606006040E29
:101D600001200949C1F8A801FFF764FF00200549D7
:101D70000860FFF75FFF681CC5B2082DEADB70BD85
:101D8000040C0140A88121420080214210B50E4878
:101D9000006820F470400C4908600846006840F470
:101DA000405008600120094908600949C1F8A801AC
:101DB000FFF740FF002005490860FFF73BFF0020C8
:101DC0000349C1F8A80110BD040C0140AC812142B7
:101DD0000080214210B50E48006820F470400C4984
:101DE00008600846006840F4405008600020094937
:101DF00008600949C1F8AC01FFF71CFF0120054943
:101E000008600549C1F8AC01FFF714FF10BD0000E0
:101E1000040C0140A88121420080214210B5002419
:101E20001448006820F470401249086008460068B1
:101E300040F40040086001200F490860FFF7FAFEF7
:101E400001200E49C1F8A801FFF7F4FE07E0601C6D
:101E5000C4B2FA2C03DDFFF7BDFF012010BD064818
:101E6000803800680028F2D10349091F086000BFCC
:101E7000F4E70000040C0140AC81214200802142C3
:101E800010B50121084600F087F9FFF7D9FE80213F
:101E90006B2000F0D7F8642001F0B2FB00216B202A
:101EA00000F0D0F8032000F08BF8002000F080F85C
:101EB000322000F0AAF80021382000F0C3F80021F9
:101EC0006A2000F0BFF80021232000F0BBF8802139
:101ED000372000F0B7F8752000F013F80446682C9E
:101EE0000BD101216B2000F0ADF800216C2000F037
:101EF000A9F8322000F089F801E0012010BD00208F
:101F0000FCE770B50446FFF741FFD020FFF710FF54
:101F1000FFF784FF2046FFF70BFFFFF77FFFFFF778
:101F200035FFD120FFF704FFFFF778FF0020FFF710
:101F3000C9FE0546FFF74EFF284670BD2DE9F0416A
:101F400006460F4614461D46FFF720FF002141EAD2
:101F50004601C8B2FFF7ECFEFFF760FF20B1FFF7C4
:101F600039FF0120BDE8F0813846FFF7E1FEFFF7B9
:101F700055FFFFF70BFF012101EB4601C8B2FFF748
:101F8000D7FEFFF74BFF0DE0012C04D10020FFF737
:101F900099FE287003E00120FFF794FE2870601E70
:101FA000C4B26D1C002CEFD1FFF714FF0020D9E75D
:101FB00010B50446E006010E1C2000F043F810BDE9
:101FC00010B50446E006010E1B2000F03BF810BDE2
:101FD00070B504460025BC2C01DB012510E0622C05
:101FE00001DB02250CE02A2C01DB032508E0142C80
:101FF00001DB042504E00A2C01DB052500E00625B1
:1020000029461A2000F01EF870BD70B50446B4F5DC
:102010007A7F01DD4FF47A74042C00DA04244FF443
:102020007A7090FBF4F0401EC5B22946192000F0EA
:1020300009F80546264604EBD671C1F34F00FFF7B9
:10204000C7FF70BD70B505460C46FFF79FFED02058
:10205000FFF76EFEFFF7E2FE18B1FFF7BBFE0120AF
:1020600070BD2846FFF764FEFFF7D8FE2046FFF755
:102070005FFEFFF7D3FE18B1FFF7ACFE0120EFE7DC
:10208000FFF7A8FE0020EBE72DE9F04105460E46DC
:1020900017469846FFF77AFE002141EA4501C8B28B
:1020A000FFF746FEFFF7BAFE20B1FFF793FE0120CF
:1020B000BDE8F0813046FFF73BFEFFF7AFFE00249E
:1020C0000CE018F80400FFF733FEFFF7A7FE18B185
:1020D000FFF780FE0120EBE7601CC4B2BC42F0DBDE
:1020E000FFF778FE0020E3E700BFFEE7704700003F
:1020F00070B5002100230F22C47804B3154C246866
:1021000004F4E064C4F5E064210AC1F10403CA40A8
:10211000447804FA03F184781440214309010E4CF9
:102120000678A155047804F01F050124AC40057819
:102130006D11AD0005F1E025C5F8004109E0047816
:1021400004F01F050124AC40044D0678761145F8D3
:10215000264070BD0CED00E000E400E080E100E00E
:1021600002490143024A1160704700000000FA056D
:102170000CED00E07047000029B1064AD269024325
:10218000044BDA6104E0034AD2698243014BDA610D
:10219000704700000010024029B1064A92690243CC
:1021A000044B9A6104E0034A92698243014B9A61AD
:1021B000704700000010024030B5002100220024CA
:1021C00000232D4D6D6805F00C0121B1042905D0C7
:1021D000082923D105E0294D056022E0274D05603F
:1021E0001FE0254D6D6805F47012234D6D6805F4F0
:1021F0008034022505EB92421CB9214D5543056000
:102200000BE01D4D6D6805F400351DB11C4D5543A7
:10221000056002E0194D5543056002E0174D056069
:1022200000BF00BF144D6D6805F0F0010909154DA0
:102230006B5C0568DD4045600F4D6D6805F4E0613D
:10224000090A104D6B5C4568DD4085600A4D6D687C
:1022500005F46051C90A0B4D6B5C4568DD40C560F3
:10226000054D6D6805F44041890B074D6B5CC568F1
:10227000B5FBF3F5056130BD0010024000127A0095
:1022800000093D005600002066000020704770B530
:10229000064600240DE0002507E0002106F10C00B1
:1022A00000EBC5000155681CC5B2802DF5DB601C34
:1022B000C4B2082CEFDB304600F05AF970BDF0B51F
:1022C0001446D71702EB5777C7F3C703D71702EBAC
:1022D0005777FF10A2EBC707FDB20124AC40E6B26E
:1022E00000F10C0404EBC104E45CE443E7B200F148
:1022F0000C0404EBC104E75400F10C0404EBC1042A
:10230000E45C344300F10C0707EBC107FC5400F117
:102310000C0404EBC104E45CE443E7B200F10C04F8
:1023200004EBC104E754F0BDF0B51346D71702EB38
:102330005777C7F3C704D71702EB5777FF10A2EB05
:10234000C707FDB20123AB40DEB200F10C0303EB83
:10235000C1031B5D334300F10C0707EBC1073B557D
:10236000F0BD10B5044621886068FFF71DFC618848
:10237000A068FFF719FC21886068FFF713FC6188EB
:10238000A068FFF70FFC10BD10B504466188A06877
:10239000FFF70AFC21886068FFF704FC2188606869
:1023A000FFF702FC10BD10B504466188A068FFF776
:1023B000FBFB6188A068FFF7F5FB10BD2DE9F84332
:1023C00004460D4617461E46DDF82080012000FA1F
:1023D00008F020800120B8406080A6F141006349E8
:1023E00001EB80206060A5F1410001EB8020A0603E
:1023F000A6F14101042202FA01F00121FFF7CCFE0F
:10240000A5F14101042202FA01F00121FFF7C4FE07
:1024100003208DF8020010208DF803002088ADF80D
:10242000000069466068FFF732FB21886068FFF7AB
:10243000BBFB6088ADF800006946A068FFF727FB8A
:102440006188A068FFF7B0FB0022AE21204600F0B3
:1024500082F900221146204600F07DF90022102169
:10246000204600F078F900224021204600F073F960
:1024700000228121204600F06EF90022CF21204663
:1024800000F069F90022A121204600F064F9002241
:10249000C821204600F05FF90022A621204600F066
:1024A0005AF90022A821204600F055F900223F21C8
:1024B000204600F050F90022D321204600F04BF9CD
:1024C00000221146204600F046F90022D521204680
:1024D00000F041F900228021204600F03CF9002262
:1024E000D921204600F037F90022F121204600F0E2
:1024F00032F90022DA21204600F02DF900221221C3
:10250000204600F028F90022DB21204600F023F9C4
:1025100000224021204600F01EF900222021204602
:1025200000F019F900220221204600F014F90022DF
:102530008D21204600F00FF900221421204600F0E2
:102540000AF90022A421204600F005F90022A62164
:10255000204600F000F90022AF21204600F0FBF8F1
:102560002046FFF794FEBDE8F88300000008014014
:1025700070B50646002421E004F1B000C1B200228B
:10258000304600F0E8F800221146304600F0E3F84B
:1025900000221021304600F0DEF800250AE006F1A6
:1025A0000C0000EBC500015D0122304600F0D3F8BD
:1025B000681CC5B2802DF2DB601CC4B2082CDBDBCA
:1025C00070BD70B504460D4600261BE06188A0680A
:1025D000FFF7E8FA05F0800020B121886068FFF776
:1025E000E3FA03E021886068FFF7DCFA6188A068FD
:1025F000FFF7DAFA6188A068FFF7D4FA6806050EDB
:10260000701CC6B2082EE1DB70BD00002DE9FF4F43
:1026100081B0884616460E9CB3462046E31704EB6D
:102620005373DB1021464FEAE47C04EB5C7C4FEAF9
:10263000EC0CA4EBCC0CBCF1000F02D04FF0010C61
:1026400001E04FF0000C6344224604EBD27C4FEAD9
:102650006C0C03FB0CF303F0FF0A04982038C7B29C
:10266000002549E00C2C07D107EB4700244901EB7A
:10267000800010F8059014E0102C05D1214800EBE3
:10268000071010F805900CE0182C07D107EBC700D5
:102690001D4901EB800010F8059002E005B0BDE88F
:1026A000F08F0020009021E009F0800028B1324630
:1026B00041460198FFF738FE04E032464146019852
:1026C000FFF7FDFD4FEA49604FEA1069701CC6B282
:1026D000A6EB0B00A04205D15E4608F1010000F018
:1026E000FF0806E00098401CC0B20090009808283F
:1026F000DADB00BF681CC5B25545B3DB00BFCDE7D0
:10270000D27E000846830008368900082DE9F8418A
:1027100080460E4617461C46079D14E00095237818
:102720003A4631464046FFF771FF284605EBD07127
:1027300006EB6101CEB2C5F18000B04202DA00269C
:10274000B81CC7B2641C2078202802DB20787E28C1
:10275000E4DDBDE8F88170B505460E46144628460E
:10276000FFF7FFFD78212846FFF72BFF2846FFF7EC
:102770001AFE24B140212846FFF723FF03E0002181
:102780002846FFF71EFF2846FFF70DFE3146284674
:10279000FFF717FF2846FFF706FE2846FFF7F4FD70
:1027A00070BD000000F12D01014A1180704700004A
:1027B0003404004010B540F21F3140F2077000F0C1
:1027C000C1F82D200149088010BD000034040040EC
:1027D00010B500F001F810BD0CB50020019000907C
:1027E0003348006840F480303149086000BF304809
:1027F000006800F4003000900198401C019000989F
:1028000018B90198B0F5A06FF1D12948006800F41B
:10281000003010B10120009001E0002000900098ED
:10282000012843D12348006840F010002149086086
:102830000846006820F0030008600846006840F081
:10284000020008601A484068194948600846406814
:1028500048600846406840F4806048600846406828
:1028600020F47C1048600846406840F4E810486056
:102870000846006840F08070086000BF0C4800689F
:1028800000F000700028F9D00948406820F00300EB
:10289000074948600846406840F00200486000BFB1
:1028A0000348406800F00C000828F9D10CBD000076
:1028B0000010024000200240042808D14FF0E0211F
:1028C000096941F004014FF0E022116107E04FF087
:1028D000E021096921F004014FF0E0221161704705
:1028E0007047000010B51348006840F0010011491E
:1028F000086008464068104908400E49486008468C
:1029000000680E4908400B4908600846006820F43A
:10291000802008600846406820F4FE0048604FF4BC
:102920001F008860FFF754FF4FF000600449086003
:1029300010BD0000001002400000FFF8FFFFF6FE8F
:1029400008ED00E030B589B005460C4601210220B3
:10295000FFF712FC01210420FFF71EFC18208DF860
:1029600023004020ADF8200003208DF8220008A9A4
:102970001348FFF78CF8ADF81850ADF8144000205C
:10298000ADF81A00ADF8160005A90E4800F07EF863
:102990007020ADF804000120ADF806000220ADF86B
:1029A0000C0001A9074800F01BF80821054800F0B9
:1029B00063F80121034800F007F809B030BD0000BA
:1029C000000801400004004021B1028842F00102E9
:1029D000028004E002884FF6FE731A4002807047BE
:1029E00070B5002400220023058C4FF6FE7635409A
:1029F0000584028C8388048B4FF68F752C40B51E9E
:102A00002C400D882C43751E2A400D892A434D8881
:102A10002A43144DA8420BD0134DA84208D0134DA1
:102A2000A84205D0124DA84202D0124DA84213D19F
:102A30004FF6F7752A404D892A434FF6FB752A4019
:102A40008D882A434FF6FF652B404FF6FF552B40EC
:102A50008D892B43CD892B4383800483CD88858644
:102A6000028470BD002C0140003401400040014050
:102A700000440140004801400A460021018B4FF606
:102A8000F773194011430183704700000022028848
:102A90001D4B98420ED01D4B98420BD0B0F1804F89
:102AA00008D01B4B984205D01A4B984202D01A4BC3
:102AB000984204D14FF68F731A404B881A43174B34
:102AC000984207D0164B984204D04FF6FF431A4065
:102AD000CB881A4302808B8883850B8803850A4B39
:102AE00098420BD0094B984208D00E4B984205D023
:102AF0000D4B984202D00D4B984201D10B7A0386C0
:102B00000123838270470000002C01400034014003
:102B10000004004000080040000C0040001000408D
:102B200000140040004001400044014000480140C2
:102B30000FB438B5044606A800902046009A0599BF
:102B4000FDF7BEFB0020009038BC5DF814FB0000D0
:102B500010B540F225511D4800F04AF810B31B484B
:102B600000F002F9C4B21A48008800F40040C8B965
:102B70001748008800F4804060B10A2C03D0002080
:102B80001349088020E01248008840F400401049B2
:102B9000088019E00D2C06D10D48008840F48040D3
:102BA0000B49088010E00A480088C0F30D0009496D
:102BB0000C5407480088401C0549088008460088D6
:102BC000C72801DD0020088010BD0000003801404A
:102BD000540000200805002021B1828942F40052EF
:102BE000828104E082894DF6FF731A40828170472A
:102BF00070B50246002400230025002040F66A1626
:102C0000B14200D100BFC1F3421501F01F030126FC
:102C100006FA03F3012D02D19689334006E0022D16
:102C200002D1168A334001E0968A33400C12012605
:102C300006FA04F41688344013B10CB1012000E008
:102C4000002070BDF0B503460024002600250020BA
:102C500040F66A17B94200D100BF1846C1F34214CA
:102C600001F01F06012707FA06F5012C01D10C30EF
:102C700004E0022C01D1103000E014301AB10768D2
:102C80002F43076002E00768AF430760F0BD000014
:102C90002DE9F04786B005460E460024A24600BF47
:102CA000A1460027B08900B100BF2F462C8A4CF600
:102CB000FF700440F08804432C82AC894EF6F31078
:102CC0000440B08831890843718908430443AC81CA
:102CD000AC8A4FF6FF400440B0890443AC8201A89F
:102CE000FFF76AFA1F48874202D1DDF810A001E021
:102CF000DDF80CA0A88900F4004040B10AEBCA003E
:102D000000EB0A1031684900B0FBF1F807E00AEB6C
:102D1000CA0000EB0A1031688900B0FBF1F86420AA
:102D2000B8FBF0F004012009642101FB1089A88997
:102D300000F4004040B1322000EBC900B0FBF1F0DC
:102D400000F00700044308E0322000EB0910642182
:102D5000B0FBF1F000F00F0004432C8106B0BDE899
:102D6000F08700000038014001468888C0F3080061
:102D7000704700BFFEE7490050EAC12018BF042099
:102D80004A0D18BF40F0010040F2FF72B2EB515FF4
:102D900008BF40F00200012808BF052070472DE958
:102DA000F0414F1E00EBC7010446D1E90001154672
:102DB0001E4637F006020DD02A46334603F072FB5A
:102DC0007F1E04EBC703D3E9002303F01BF937F0A0
:102DD0000602F1D1022F25D0042F13D0062F18BFE1
:102DE000BDE8F0812A46334603F05CFBD4E90A23B0
:102DF00003F008F92A46334603F054FBD4E90823CC
:102E000003F000F92A46334603F04CFBD4E90623CD
:102E100003F0F8F82A46334603F044FBD4E90423D0
:102E200003F0F0F82A46334603F03CFBD4E90223D2
:102E300003F0E8F82A46334603F034FBD4E90023D4
:102E4000BDE8F04103F0DEB8012204F0D8B903F088
:102E5000D9B8002213461046114603F08FB900007E
:102E6000024A0020110704F0CAB9000001FDFFFF6B
:102E700030380A2801D201207047002070470146EF
:102E800000BF70472DE9FE4F06460F4600256846F5
:102E900001F0EAF9002442E056F8240057F8241023
:102EA000A0EB010ABAF1000F01DB514601E0CAF1C3
:102EB0000001084603F09CFF83464FF08F4103F06A
:102EC00065FE80465DF82400002103F021FF16D046
:102ED0005DF82410404603F059FE82464FF07E51C3
:102EE00004F0E4F8814629F0004A0F48416A504650
:102EF00004F0AAF812D20120A04005430EE00A48CF
:102F0000C169404603F0A0FF05D30748016A404667
:102F100004F09AF802D20120A0400543641C032C5F
:102F2000BADB2846BDE8FE8FB47200082DE9F04DEB
:102F30008D4F21F0004A86B005460C46BA452ADB83
:102F4000AAEB070028430AD08848824501DC1AD141
:102F5000CDB106B02846BDE8F04DFFF775BF844AF5
:102F6000844B284603F09EFA07460E46824A834B5E
:102F70002846214603F096FA06B03A463346BDE8A5
:102F8000F04D03F03FB80120FDF7DEFB06B0BDE8D1
:102F9000F04DFFF75EBF7A48824542DABAF1795FB9
:102FA0000BDA2846FFF7E7FE042808BFFFF758FFB3
:102FB000284606B02146BDE8F08D2A460B4610464D
:102FC00003F070FA834602466E480E460B46062111
:102FD0007844FFF7E4FE5A46334603F063FA80462E
:102FE00069488A465A46334604217844FFF7D7FE9B
:102FF0005A46334603F056FA00223B4603F002F8E5
:1030000002460B464046514603F0B8F82A4623468E
:1030100003F048FA06B02A462346BDE8F04D02F018
:10302000F1BF284624F0004100223D463B4603F014
:1030300037FB4FF0FF3204F0E2F8064602465348F1
:103040000F460B4606217844FFF7A9FE32463B4661
:1030500003F028FACDE900014D4832463B460421F1
:103060007844FFF79CFE32463B4603F01BFA0022F1
:103070002B4602F0C7FF834602913046394602F0E4
:10308000EDFE804643480D46504517DCDDE9000162
:103090005A46029B03F072F842462B4603F002FAAE
:1030A00042462B4602F0AEFF012204F0A8F8304A57
:1030B000304B03F0E7FB304A304B4CE04FF0000A56
:1030C00052460B46404602F09DFFCDE903105246A2
:1030D0002B461046194603F0E5F932463B4603F00D
:1030E000DFFADDE9033203F049F806460F46DDE971
:1030F00000015A46029B03F041F8834600910122E9
:103100003046394604F07BF8194A1A4B03F0C8FAE6
:1031100006460F4601224046294604F070F85A46FA
:10312000009B03F0BFF932463B4603F0ABFB06467B
:103130000F4601225046294604F061F80E4DDFF893
:1031400058802A46434603F0ABFA32463B4603F02A
:10315000A7FA2A46434603F0A3FA002CD8BF81F011
:10316000004106B0BDE8F08D0000F03F0000F07FA8
:10317000075C143326A6913C182D4454FB21F93FDB
:103180000000E03FFC660000126700008666000059
:103190009C6600003333EF3FFB21E93F2DE9F84FF8
:1031A00004460D4621F0004000917349814211DC34
:1031B0007249884201DC06D12CB120462946BDE87F
:1031C000F84FFFF741BE6E48002DCCBF6D496E49E8
:1031D000BDE8F88F6D49814211DD6D498142D8BF4C
:1031E0004FF0FF366DDD20462946FFF7C4FD042869
:1031F00008BFFFF735FE20462946BDE8F88F654930
:10320000654F25F00045814233DD6449814219DD77
:10321000002632464FF080432046294602F0F2FE57
:1032200080468A4601222046294603F0E8FF002214
:103230003B4603F027FB4246534602F09FFF0446FD
:103240000D463EE001260022BA463B46204629466E
:1032500002F0D8FE80460F460022534620462946FB
:1032600003F010FB42463B4602F088FF04460D4641
:1032700027E04B4981421BDDDFF828A1022600220E
:1032800053462046294603F00DF900223B4602F042
:10329000B9FE80460F46002253462046294603F0D9
:1032A000F1FA42463B4602F069FF04460D4608E04B
:1032B000032622462B4600203B4902F05FFF0446CE
:1032C0000D4622462B461046194603F0EBF88B4676
:1032D000824602460B4603F0E5F8074602463348AD
:1032E00088460B4606217844FFF759FD52465B4657
:1032F00003F0D8F882462E488B463A4643460521CD
:103300007844FFF74CFD3A46434603F0CBF80246BB
:103310000B46002E504659460CDA02F073FE224648
:103320002B4603F0BFF801B022462B46BDE8F04F14
:1033300003F0B6B902F066FE22462B4603F0B2F85F
:103340001C4A7A4402EBC603D3E9002303F09AFA3D
:1033500022462B4603F096FA174A7A4402EBC6033C
:10336000D3E9002303F09CF9009A002AB8BF81F04A
:103370000041BDE8F88F0000000010440000F07F1D
:10338000182D4454FB21F93FFB21F9BF0000DC3F1D
:103390000000203E0000F33F0000F03F0000E63F49
:1033A000008003400000F83F0000F0BFA66400006A
:1033B0006464000002640000CA6300002DE9F04D5F
:1033C0009446CCF1000423F000464CEA0404594F23
:1033D00046EAD4749A46884621F00042BC4206D898
:1033E000454240EA050442EAD474BC4204D9BDE82F
:1033F000F04D6246FFF72BBDAAF14055A5F17F6560
:1034000055EA0C040BD0022404EAAA744A4DDFF8F2
:103410002CE144EAD87452EA000B04D00CE0BDE879
:10342000F04DFFF7BBBE002C14BF012CBDE8F08DA2
:10343000022C30D0032C32D056EA0C0B0AD0BE42FC
:1034400020D1BA4209D126F0804622F0804233468C
:10345000114617E000291ADB25E0DFF8E4B0FB4451
:10346000002C04BFDBE90001BDE8F08D012C02BF98
:10347000DBE9000181F00041BDE8F08D022C0AD0AB
:10348000032C0CD0BA4212D1B8F1000F0BDA2A4843
:103490002C49BDE8F08D28462B49BDE8F08D284623
:1034A0007146BDE8F08D24482849BDE8F08D921B97
:1034B00012153C2AC4BF204F244E10DCBAF1000F75
:1034C000BEBF12F13C0F00273E4608DB624602F009
:1034D00055FE21F00041FFF761FE07460E4694B10C
:1034E000012C08BF86F000460DD0194A194B022C5A
:1034F0003846314615D003F0C5F92A46BDE8F04DEF
:10350000114B03F0BFB9002213463846314602F092
:103510008DFF04BF0220FDF717F938463146BDE89C
:10352000F08D03F0AFF92A46BDE8F04D064B03F0ED
:10353000B7B800000000F07F182D4454FB2109C0EB
:103540005E630000FB21F9BFFB210940FB21F93F2D
:10355000075C143326A6A13C2DE9F0410446E0782F
:1035600000F0C006E07800F03F05607800F0010050
:1035700098B1EF102846E91705EB5171C910A5EB7A
:10358000C101491C01F0FF080B48006820B10A483E
:10359000414602683846904700BF607800F0080056
:1035A00030B10548406818B1B011034A51688847E6
:1035B0000020BDE8F0810000F804002010B56FF095
:1035C0000400FFF779F90A4800680A49B0FBF1F0F6
:1035D000094908700846007800EB4001C1EBC010B3
:1035E0004FF6FF7101EAC0000449088010BD0000D9
:1035F0000000002000127A004A0000204C00002049
:103600000146114A12884A434FF0E0235A610022D2
:103610009A611A46126942F001021A6100BF4FF026
:10362000E022106900F001021AB100F48032002A91
:10363000F5D04FF0E022126922F001024FF0E023B2
:103640001A6100229A6170474C0000200146114A1D
:1036500012784A434FF0E0235A6100229A611A46D9
:10366000126942F001021A6100BF4FF0E0221069B6
:1036700000F001021AB100F48032002AF5D04FF0B8
:10368000E022126922F001024FF0E0231A610022C9
:103690009A6170474A00002038B5044664B1202082
:1036A0008DF8000028208DF8010030208DF80200F0
:1036B00038208DF8030004E0A32204216846FCF7BB
:1036C000BBFF6A46042140F69E2002F0F5FA01F0A5
:1036D000DFFE38BD3EB5044602208DF80000CA204A
:1036E0008DF80100E3208DF8020009208DF8030019
:1036F0006A460421682002F0DFFAA3208DF800005A
:1037000004F0400048B1C0208DF80100C8208DF8B9
:103710000200C2208DF8030006E0A3208DF801000E
:103720008DF802008DF8030004F4C07048B1C42085
:103730008DF80400CC208DF80500C6208DF8060019
:1037400006E0A3208DF804008DF805008DF8060032
:10375000A3208DF807008DF808008DF809006A464F
:103760000A2140F6A72002F0A7FA04F0030018B1DE
:1037700020208DF8000002E0D8208DF800006A4675
:10378000012140F6B62002F097FA04F0200018B1AB
:10379000012000F0ADF802E0002000F0A9F804F4E8
:1037A000C07008B304F4807060B1B2208DF80000DE
:1037B0008B208DF80100B6208DF802009B208DF83B
:1037C00003000BE0B0208DF8000080208DF8010090
:1037D000B4208DF8020090208DF803006A46042181
:1037E00040F6A22002F068FA04F0010020B3F820AD
:1037F0008DF800006A4601214FF40B6002F05CFA7C
:10380000FA21072000F02CFC072000F0F3FB012038
:1038100000F013FC642000F0F3FC4FF4FA7000F0A9
:1038200002FDC821304800F0A3FB282000F0BCFBBB
:103830000A2000F0CCFB08E0D8208DF800006A4692
:1038400001214FF40B6002F037FA04F0020018B1C6
:10385000D9208DF8000002E0D8208DF800006A46DB
:10386000012140F23D7002F027FA04F0040018B183
:10387000012000F069F802E0002000F065F804F093
:10388000100018B10120FFF707FF02E00020FFF74A
:1038900003FF44F008001549488101F0F9FD0020BC
:1038A0001249887304F0400018B10846807B801DDF
:1038B000887304F4C07020B10C48807B801D0B49D4
:1038C000887304F0140020B10848807B1030074949
:1038D000887304F0030020B10448807B001D034975
:1038E000887300203EBD000009E3CA02F8040020EE
:1038F0003EB504466CB10EA1D1E900208968CDE93E
:10390000002002916A4609214FF4976002F0D4F931
:103910003EBD0AA2D2E900109268CDE901020091F1
:103920006A4609214FF4976002F0C6F9F0E70000FB
:10393000B8AAB38DB4980D355D000000B8AAAAAA44
:10394000B088C3C5C700000038B5044664B1C020C4
:103950008DF80000C2208DF80100C4208DF802000F
:10396000C6208DF8030004E08B2204216846FCF792
:1039700063FE6A46042140F6982002F09DF901F0AA
:1039800087FD38BD10B5C8234FF48062024940F668
:10399000F63001F011FC10BDDC7200082DE9F04F8B
:1039A0008DB00746884615469946DDE9166B00241A
:1039B000002030806B49887B5A4605A901F0C8FC7D
:1039C00018B1601E0DB0BDE8F08F6648807A00F037
:1039D0001400002867D09DF8140000069DF815100B
:1039E00040EA01409DF8161040EA01209DF81710AA
:1039F000084328609DF8180000069DF8191040EA59
:103A000001409DF81A1040EA01209DF81B10084360
:103A100068609DF81C0000069DF81D1040EA0140FA
:103A20009DF81E1040EA01209DF81F100843A86071
:103A30009DF8200000069DF8211040EA01409DF805
:103A4000221040EA01209DF823100843E86004F1A9
:103A50001000C4B228680014019068680014029035
:103A6000A86800140390E86800140490019840438B
:103A7000029901FB0100039901FB0100049901FB7C
:103A8000010ABAF1706F02DBBAF1885F05DD01F05F
:103A9000FFFC00203080401E94E7B6F9000040F49F
:103AA0008070308000BF2F48807A00F0400020B343
:103AB00005A9601C085C095D40EA012000B2A8F875
:103AC000000005A9E01C095C05AAA01C105C41EAE5
:103AD000002000B2A8F8020005A9601D095C201DA5
:103AE000105C41EA002000B2A8F80400A01DC4B296
:103AF000B6F9000040F0080030801A48408900F410
:103B0000C07008B305A9601C085C095D40EA01208B
:103B100000B2388005A9E01C095C05AAA01C105C55
:103B200041EA002000B2788005A9601D095C201DD3
:103B3000105C41EA002000B2B880A01DC4B2B6F902
:103B4000000040F0700030800648807A00F00300EA
:103B500018B105A90819FFF7FFFC484600F0C0FF9F
:103B600000202FE7F804002070B588B0064601A8B1
:103B700001F076F9BDF804000021C90341EA50457F
:103B8000C4034448007A00F0030056F82000059072
:103B90004048007A00F0040010B1059840420590BA
:103BA0003C48007AC0F3C10056F82000069039481E
:103BB000007A00F0200010B1069840420690354887
:103BC000007AC0F3811056F8200007903148008930
:103BD00000F4807010B10798404207900598C11713
:103BE000A0FB042301FB043100FB0510810041EA26
:103BF000927005900698C117A0FB042301FB0431C5
:103C000000FB0510810041EA927006900798C117E9
:103C1000A0FB042301FB043100FB0510810041EAF5
:103C2000927007900598000E8DF808000598000C1A
:103C30008DF809000598000A8DF80A000598C0B2B1
:103C40008DF80B000698000E8DF80C000698000CFD
:103C50008DF80D000698000A8DF80E000698C0B287
:103C60008DF80F000798000E8DF810000798000CD3
:103C70008DF811000798000A8DF812000798C0B25D
:103C80008DF8130002AA0C214FF4257002F014F8ED
:103C900008B070BDF804002030B585B0044616A207
:103CA00007CA02AB07C3C82C03DD4FF0FF3005B0D5
:103CB00030BDC82090FBF4F0401E85B2280A8DF874
:103CC0000000E8B28DF801006A46022140F2162099
:103CD00001F0F2FF10B14FF0FF30E8E702AA0C212B
:103CE00040F6C12001F0E8FF10B14FF0FF30DEE7F1
:103CF000044884810020DAE7FEF2ABC4AAF1DFDFDA
:103D0000BBAFDFDFF80400201FB504464848007A47
:103D100000F0030054F8200001904548007A00F0BC
:103D2000040010B10198404201904148007AC0F36C
:103D3000C10054F8200002903D48007A00F02000B5
:103D400010B10298404202903948007AC0F38110C5
:103D500054F8200003903648008900F4807010B1B8
:103D60000398404203903349019880FB0101800F82
:103D700040EA810001902F49029880FB01108200E7
:103D800042EA917002902B49039880FB0110820057
:103D900042EA917003900198000E8DF8000001989E
:103DA000000C8DF801000198000A8DF802000198BE
:103DB000C0B28DF803006A4604214FF4747001F01C
:103DC0007BFF18B14FF0FF3004B010BD0298000E19
:103DD0008DF800000298000C8DF801000298000A8E
:103DE0008DF802000298C0B28DF803006A460421E3
:103DF0004FF4757001F060FF10B14FF0FF30E3E752
:103E00000398000E8DF800000398000C8DF8010057
:103E10000398000A8DF802000398C0B28DF80300E1
:103E20006A4604214FF4767001F046FFCCE70000AB
:103E3000F804002009E3CA0210B586B0044647A082
:103E40000068039046A00068029046A000680190B8
:103E500045A00068009004F0030003A9085C8DF8F9
:103E6000140003A8C4F3C101405C8DF8150003A839
:103E7000C4F38111405C8DF8160004F0030002A920
:103E8000085C8DF8100002A8C4F3C101405C8DF8F5
:103E9000110002A8C4F38111405C8DF8120005AA3C
:103EA000032140F2264001F007FF18B14FF0FF3028
:103EB00006B010BD04AA032140F22A4001F0FCFE26
:103EC00010B14FF0FF30F3E701980590009804908F
:103ED00004F0040058B19DF8140040F001008DF882
:103EE00014009DF8100040F001008DF8100004F05F
:103EF000200058B19DF8150040F001008DF8150024
:103F00009DF8110040F001008DF8110004F480705C
:103F100058B19DF8160040F001008DF816009DF88C
:103F2000120040F001008DF8120005AA03214FF4A1
:103F3000886001F0C1FE10B14FF0FF30B8E704AA6D
:103F4000032140F2314001F0B7FE10B14FF0FF30D5
:103F5000AEE7064804810020AAE700004CCD6C00C3
:103F60000CC92C003656760026466600F804002060
:103F7000F8B505460E464FF47A7095FBF0F000FB5D
:103F800006F4200E8DF80000200C8DF80100200AA8
:103F90008DF80200E0B28DF803006A4604214FF468
:103FA000AE7001F089FEF8BD38B50446052094FBDB
:103FB000F0F084B220128DF80000E0B28DF801001C
:103FC0006A4602214FF4AD7001F076FE38BD38B577
:103FD0000446052094FBF0F084B220128DF8000016
:103FE000E0B28DF801006A4602214FF4AC7001F096
:103FF00063FE38BD38B504460020009004F001008F
:1040000020B19DF8000040F03000009004F0020064
:1040100020B19DF8000040F00C00009004F0040076
:1040200020B19DF8000040F0030000906A46012195
:104030004FF4A47001F040FE38BD38B50446012CA1
:1040400001DA012402E0042C00DD0424601EC0B269
:1040500000906A46012140F24F1001F02DFE38BD5C
:104060002DE9FC4706460F4606F0070010B1B7F5EC
:10407000C86F03DD4FF0FF30BDE8FC87384602F023
:10408000CFFE8146594902F081FD8046684600F026
:10409000C1FE9DF80000022806D0042816D008288A
:1040A00026D0102848D135E04FF08D41404602F02F
:1040B000FFFE814602F07CFE84B24D49404602F08C
:1040C000F7FE814602F074FE85B238E04FF08C4175
:1040D000404602F0EDFE814602F06AFE84B2454998
:1040E000404602F0E5FE814602F062FE85B226E01F
:1040F0004FF08B41404602F0DBFE814602F058FE55
:1041000084B23D49404602F0D3FE814602F050FEA3
:1041100085B214E04FF08A41404602F0C9FE814664
:1041200002F046FE84B23549404602F0C1FE8146A7
:1041300002F03EFE85B202E04FF0FF309CE700BF88
:1041400020128DF80400E0B28DF8050028128DF8D9
:104150000600E8B28DF8070006F00100A0B101AA40
:1041600002214FF4EA7001F0A7FD10B14FF0FF30CB
:1041700082E70DF1060202214FF4927001F09CFDDE
:1041800010B14FF0FF3077E706F00200A0B101AAAE
:1041900002214FF4EC7001F08FFD10B14FF0FF30B1
:1041A0006AE70DF1060202214FF4947001F084FDDC
:1041B00010B14FF0FF305FE706F00400A0B101AA94
:1041C00002214FF4EE7001F077FD10B14FF0FF3097
:1041D00052E70DF1060202214FF4967001F06CFDDA
:1041E00010B14FF0FF3047E7002045E7000048439B
:1041F000000040460000C045000040450000C044AB
:1042000038B50446052094FBF0F085B228128DF8ED
:104210000000E8B28DF801006A4602214FF4EF7009
:1042200001F04AFD38BD38B50446052094FBF0F096
:1042300085B228128DF80000E8B28DF801006A46B8
:1042400002214FF4ED7001F037FD38BD00BF054A83
:10425000128802F04002002AF9D0C2B2014B1B1DA5
:104260001A807047003801407CB5054628494968E6
:10427000087801AB04220D21FDF760FE08B107208C
:104280007CBD9DF80700C0F301109DF8041001F0FB
:10429000E00140EAE1008DF800009DF80700C0F35E
:1042A00081009DF8051001F0E00140EAE1008DF881
:1042B00001009DF8070000F003009DF8061001F0D2
:1042C000E00140EAE1008DF8020000241CE01DF846
:1042D000040018B9002045F8240013E00D4845F803
:1042E000240006E055F824000B4902F0E1FD45F8F2
:1042F00024001DF80400401EC0B20DF80400002880
:10430000F0D100BF601CC4B2032CE0DB0020B7E793
:10431000140000207B14AE3E1D5A843F2DE9F04F5F
:1043200087B005460C46914601208DF8100000200C
:104330008DF81100FE4A1268917CFD4A526810788F
:1043400004AB0222FDF7A0FE20B14FF0FF3007B012
:10435000BDE8F08FC820FFF753F900208DF810005A
:10436000F34A1268D17BF24A5268107804AB0122FA
:10437000FDF78AFE10B14FF0FF30E8E7EC4A126813
:104380005179EB4A5268107804AB0122FDF77CFEAC
:1043900010B14FF0FF30DAE7E54A1268917CE44A49
:1043A0005268107804AB0122FDF76EFE10B14FF099
:1043B000FF30CCE7DE4A1268D17DDD4A52681078C2
:1043C00004AB0122FDF760FE10B14FF0FF30BEE7F5
:1043D000D74A12681179D64A5268107804AB012284
:1043E000FDF752FE10B14FF0FF30B0E70C208DF812
:1043F0001000CF4A12681179CD4A5268107804AB88
:104400000122FDF741FE10B14FF0FF309FE70F2072
:10441000FFF7F6F8C648806A407A8DF81000C44A63
:1044200012689178C24A5268107804AB0122FDF7F5
:104430002BFE10B14FF0FF3089E7BD48806A007A4B
:104440008DF81000BA4A12685178B94A526810784B
:1044500004AB0122FDF718FE10B14FF0FF3076E7F4
:10446000B9F1000F07D0B248806A807A40F0E000CE
:104470008DF8100004E0AE48806A807A8DF8100054
:10448000AB4A12689179AA4A5268107804AB0122AB
:10449000FDF7FAFD10B14FF0FF3058E7B9F1000F0A
:1044A00007D0A348806AC07A40F0E0008DF8100081
:1044B00003E0A048C07A8DF810009D4A1268D179B7
:1044C0009B4A5268107804AB0122FDF7DDFD10B164
:1044D0004FF0FF303BE7B9F1000F02D0C820FFF7E3
:1044E0008FF840208DF81000914A12681179904A97
:1044F0005268107804AB0122FDF7C6FD10B14FF0F1
:10450000FF3024E778208DF81000894A126851792D
:10451000874A5268107804AB0122FDF7B5FD10B14F
:104520004FF0FF3013E783498889FFF769F80020CF
:104530008DF810007E4A126851797D4A52681078D1
:1045400004AB0122FDF7A0FD10B14FF0FF30FEE6F5
:10455000774A1268917A764A5268107804AB022240
:10456000FDF7ECFC10B14FF0FF30F0E69DF81100C4
:104570009DF8101040EA012B0C209BFBF0F0C6B216
:104580000020A86068602860A060606020608246AB
:1045900065E0674A1268D17A654A5268107804ABC0
:1045A0000C22FDF7CBFC10B14FF0FF30CFE69DF8A9
:1045B00011009DF8101040EA012000B2ADF808008B
:1045C0009DF813009DF8121040EA012000B2ADF8EA
:1045D0000A009DF815009DF8141040EA012000B271
:1045E000ADF80C00BDF90810206808442060BDF942
:1045F0000A10606808446060BDF90C10A0680844A7
:10460000A0609DF817009DF8161040EA012000B246
:10461000ADF800009DF819009DF8181040EA01203F
:1046200000B2ADF802009DF81B009DF81A1040EA98
:10463000012000B2ADF80400BDF90010286808445C
:104640002860BDF90210686808446860BDF904106C
:10465000A8680844A8600AF1010000F0FF0AB2450A
:1046600097DB3448D0F800C02868C117090441EA34
:1046700010410704624600233846FBF7FCFD324632
:104680000023CDE90201FBF7F6FD28602948D0F8A8
:1046900000C06868C117090441EA10410704624676
:1046A00000233846FBF7E7FD32460023CDE902013F
:1046B000FBF7E1FD68601F48D0F800C0A868C1178B
:1046C000090441EA10410704624600233846FBF71B
:1046D000D2FD32460023CDE90201FBF7CCFDA860F4
:1046E0001448D0F804C02068C117090441EA1041F9
:1046F0000704624600233846FBF7BDFD324600231F
:10470000CDE90201FBF7B7FD20600A48D0F804C0EC
:104710006068C117090441EA10410704624600239A
:104720003846FBF7A8FD32460023CDE9020103E03D
:1047300014000020B4720008FBF79DFD6060114872
:10474000D0F804C0A068C117090441EA1041070469
:10475000624600233846FBF78EFD32460023CDE942
:104760000201FBF788FDA060A068002804DDA068B6
:10477000A0F58030A06003E0A06800F58030A06064
:104780000020E4E5B47200082DE9FC5F06460F4600
:1047900000253D494968087801AB03220D21FDF74A
:1047A000CDFB10B10720BDE8FC9F9DF8040000F090
:1047B0001F008DF804009DF8050000F01F008DF823
:1047C00005009DF8060000F01F008DF8060000248B
:1047D00056E056F8240057F82410A0EB010BBBF16B
:1047E000000F01DB594601E0CBF10001084602F061
:1047F000FFFA4FF08F41009002F0C8F9814601A8FE
:10480000005D68B32149086802F00AFB83465946F7
:104810001F4802F0BBF9804604E01E49404602F002
:1048200047FB804601A8005D401EC0B201A90855A3
:104830000028F2D14146484602F0A8F983464FF0DD
:104840007E5102F033FC82462AF0004B0F4881690A
:10485000584602F0F9FB12D20120A04005430EE0B9
:104860000A480169484602F0EFFA05D30748416952
:10487000484602F0E9FB02D20120A0400543641C37
:10488000032CA6DB28468EE714000020B472000833
:1048900000B04C4554E3853F10B50446204600F077
:1048A0000FF80346E01C00F00BF843EAC00083B2A7
:1048B000A01D00F005F843EA801083B2184610BD31
:1048C000014691F90020002A01DD00201EE091F947
:1048D0000020002A01DA042018E091F90120002AC2
:1048E00001DD012012E091F90120002A01DA052002
:1048F0000CE091F90220002A01DD022006E091F986
:104900000220002A01DA062000E00720704700009C
:1049100094B0FEF753FE4FF4A060FDF721FC4FF476
:10492000E13001F0C1FAFDF743F90C2041230B22DD
:10493000194600903E48FDF741FDFDF7A1FAFDF74D
:1049400039FF05E03BA0FBF7CDFCC820FEF758FE81
:1049500000F012FA0028F5D13BA0FBF7C3FC65E09C
:1049600011AA12A913A800F0F5F800285ED1119839
:1049700002F072F804460D46129802F06DF80646F1
:104980000F46139802F068F8804642460B4632A064
:10499000CDE90067CDE90245FBF7A4FC37A0FBF7A2
:1049A000A1FC139802F058F8044622460B4641A198
:1049B0000DA8FEF7BDF8119802F04EF80446224605
:1049C0000B4640A105A8FEF7B3F8129802F044F890
:1049D000044622460B463EA109A8FEF7A9F810207E
:1049E0000DAB0022114600901148FDF78FFE1020FC
:1049F00005AB1422002100900D48FDF787FE102022
:104A000009AB2822002100900948FDF77FFE0848E5
:104A1000FDF7AEFD3149129802F04AF8044602F063
:104A2000ABF982460AF0FF00FDF7BCFE98E70000F4
:104A30006C0000204D50553630353020444D50200C
:104A40004552524F520D0A004D50553630353020E8
:104A50004F4B0D0A0000000070697463683D252EFD
:104A600032662C20726F6C6C3D252E32662C2079BC
:104A700061773D252E32660D0A0000002A2A2A2A77
:104A80002A2A2A2A2A2A2A2A2A2A2A2A2A2A2A2A86
:104A90002A2A2A2A2A2A2A2A2A2A2A2A2A2A2A2A76
:104AA0002A2A2A2A2A2A2A2A2A2A2A2A2A2A2A0D83
:104AB0000A0D0A0070697463683D252E3266202055
:104AC000000000007961773D252E3266202000002D
:104AD000726F6C6C3D252E32662020000000B442BF
:104AE0007047000070B50446002624F00104184801
:104AF00090F8240008B1002070BD1548807A10B9E4
:104B00004FF0FF30F8E71248057C807A20401049CA
:104B100008740846007CA04202D04FF0FF3600E047
:104B2000002614B90A48007D18B1012001F04EF9A1
:104B300002E0002001F04AF93CB100F0A9FC20B1EC
:104B4000034805744FF0FF30D6E73046D4E7000045
:104B5000140000202DE9F04F99B004460D4616468A
:104B60004FF07E574FF000084FF000094FF0000A59
:104B700012A813A918AB0EAACDE9001014A916A803
:104B8000FEF70CFF18B1012019B0BDE8F08FBDF899
:104B90004C0000F4807000287ED00E9802F028F9B6
:104BA00083464FF09D4101F0F1FF07460F9802F058
:104BB0001FF983464FF09D4101F0E8FF80461098B1
:104BC00002F016F983464FF09D4101F0DFFF814668
:104BD000119802F00DF983464FF09D4101F0D6FF88
:104BE000824639464FF0804002F062F9494605900E
:104BF00002F05EF9414607904FF0404002F058F94C
:104C00005146059002F054F90690079901F050FFC3
:104C1000834601F021FFCDE90801FEF787F94FF047
:104C20006632544BCDE90A0101F03CFCCDE90C01A0
:104C300001F0B6F9206049464FF0804002F038F9A3
:104C40004946029002F034F9414604904FF040404A
:104C500002F02EF94146029002F02AF903900499DD
:104C600002F024FA83464FF07E5101F021FF0590B7
:104C700001F0F2FECDE9080139464FF0804002F024
:104C800017F94146039002F013F9494604904FF09A
:104C9000804002F00DF900E068E05146039002F018
:104CA00007F98346049901F003FF059001F0D4FE53
:104CB000CDE90601DDE90823FEF780FB4FF06632FF
:104CC0002C4BCDE90A0101F0EDFBCDE90C0101F01F
:104CD00067F928605146504602F0EAF849460490C8
:104CE000484602F0E5F841460390404602F0E0F8FD
:104CF00039460190384602F0DBF80090019901F046
:104D0000D7FE0290039902F0D1F98346049902F08C
:104D1000CDF9059001F0A0FECDE9080151463846D5
:104D200002F0C6F849460490404602F0C1F80390EC
:104D3000049901F0BDFE4FF08041059002F0B8F8F3
:104D4000834601F089FECDE90601DDE90823FEF77F
:104D500035FB4FF06632074BCDE90A0101F0A2FBAB
:104D6000CDE90C0101F01CF9306001E002200BE7F5
:104D7000002009E766A64C4070B5002400F024F935
:104D8000002840D1782000F02FFFC4B20CB10120E0
:104D900070BD7820FFF7A6FEC4B20CB10220F7E781
:104DA000642000F0D3FEC4B20CB10320F0E7FEF79C
:104DB000E9FDC4B20CB10420EAE71548FFF76CFD29
:104DC0000546FFF739F8C4B20CB10520E0E740F220
:104DD0007310FEF77FFCC4B20CB10620D8E7642044
:104DE000FEF75AFFC4B20CB10720D1E700F0A4FFD0
:104DF00004460CB10820CBE7012000F0A3FDC4B2AB
:104E00001CB10920C4E70A20C2E70020C0E7000067
:104E10004000002001461148407A30B1012807D0F7
:104E2000022808D003280CD108E0022008700BE00B
:104E30000420087008E00820087005E010200870C1
:104E400002E04FF0FF30704700BF0448C07C18B14B
:104E500008784006000E08700020F4E714000020D7
:104E600001461348407A30B1012808D002280AD000
:104E7000032810D10BE04FF4804008800EE041F68B
:104E80009C7008800AE04FF48050088006E04FF4E0
:104E90000060088002E04FF0FF30704700BF044818
:104EA000C07C10B10888401008800020F5E70000A1
:104EB0001400002001460248007C08700020704762
:104EC0001400002001460F48007A30B1012807D0B5
:104ED000022809D003280FD10AE0FA2008800EE04A
:104EE0004FF4FA7008800AE04FF47A70088006E008
:104EF0004FF4FA60088002E00020088000BF00BF85
:104F0000002070471400002001460E48007A30B19E
:104F1000012807D0022808D003280CD108E00A484D
:104F200008600BE00948086008E00948086005E0EF
:104F30000848086002E04FF0FF30704700BF0020D3
:104F4000FBE7000014000020000003430000834240
:104F5000333303423333834101461248C07A082871
:104F600017D2DFE800F01704070A0D101318BC2051
:104F7000088013E06220088010E02A2008800DE0FD
:104F8000142008800AE00A20088007E00520088035
:104F900004E000BF00BF0020088000BF00BF002069
:104FA00070470000140000200146064890F82400D5
:104FB00010B14FF0FF3070470248C08908800020D0
:104FC000F9E70000140000201CB580208DF80000D7
:104FD000654A1268917C644A526810786B460122D7
:104FE000FDF752F810B14FF0FF301CBD6420FEF702
:104FF00007FB00208DF800005B4A1268917C5A4A3A
:10500000526810786B460122FDF73EF810B14FF060
:10501000FF30EAE7544A1268917D534A526810788B
:105020006B460622FCF78AFF10B14FF0FF30DCE739
:105030009DF80500C007400F9DF8031001F0010125
:1050400040EA41009DF8011001F0010140EA01042D
:1050500094B1012C03D101214348C17431E0022CE9
:1050600003D100214048C1742BE021463FA0FBF74B
:1050700039F94FF0FF30B8E73B4A1268D1783A4A25
:10508000526810786B460122FCF758FF10B14FF0C0
:10509000FF30AAE79DF8000000F00F042CB93D484E
:1050A000FBF720F94FF0FF309FE7042C06D13AA020
:1050B000FBF718F901212C48C17402E000212A48AD
:1050C000C174FF2128488172FF2027490872FF21FF
:1050D00025484172C1724FF6FF71C181FF210174F1
:1050E00081740121017380F82210002180F82310BF
:1050F000417501751630016041608160163880F895
:10510000241080F82510C1844FF4FA6000F062FC8E
:1051100010B14FF0FF3068E7022000F02BFB10B118
:105120004FF0FF3061E72A2000F0CEFC10B14FF0C5
:10513000FF305AE7322000F009FD10B14FF0FF3088
:1051400053E70020FFF7CEFC10B14FF0FF304CE7E3
:10515000002000F051FB10B14FF0FF3045E7002078
:1051600000F042FD002040E714000020556E7375EA
:1051700070706F7274656420736F667477617265A6
:105180002070726F64756374207265762025642EBA
:105190000A0000005C98000848616C662073656E28
:1051A0007369746976697479207061727420666FAE
:1051B000756E642E0A0000002DE9F04385B00546A7
:1051C0000E4690469946294890F8250020B14FF0A8
:1051D000FF3005B0BDE8F08316B94FF0FF30F8E7B7
:1051E000002423E0281B102801DD102000E0281BEC
:1051F00087B232193946204600F05EFD10B14FF0FB
:10520000FF30E6E701AA3946204600F001F910B167
:105210004FF0FF30DDE730193A4601A9FBF7E0F91E
:1052200010B16FF00100D4E7E01984B2AC42D9DBD1
:105230004FEA28208DF8000008F0FF008DF80100EB
:105240000A4A1268917E094A526810786B46022217
:10525000FCF71AFF10B14FF0FF30BAE70121034805
:1052600080F82510A0F826900020B2E71400002056
:1052700038B50446282C02DD4FF0FF3038BDDCB9CC
:10528000002000F0EBFB00208DF8000007208DF8D7
:1052900001002E4A1268917C2C4A526810786B46A5
:1052A0000222FCF7F1FE10B14FF0FF30E6E70021DB
:1052B000264801750020E1E7012000F0CFFB202007
:1052C0008DF80000012C06D100208DF8010005208A
:1052D00000F0FAFB17E0052C06DC01208DF8010038
:1052E000052000F0F1FB0EE0142C06DC02208DF806
:1052F00001000A2000F0E8FB05E003208DF8010022
:10530000142000F0E1FB9DF80100072101EB801063
:10531000C0B28DF801000D4A1268917C0B4A5268A8
:1053200010786B460222FCF7AFFE10B14FF0FF3051
:10533000A4E708210548817200210173012101754C
:105340000020FFF7CFFB002098E7000014000020AA
:10535000F8B504460F4616462C4890F8240010B9BC
:105360004FF0FF30F8BD2948807A10B94FF0FF3078
:10537000F8E7264A1268917A244A526810786B46F8
:105380000222FCF7DBFD10B14FF0FF30EAE79DF899
:1053900001009DF8001040EA0125A54203DA002033
:1053A0003070401EDEE7194840684088B5EB600F5A
:1053B00017DD164A1268517C144A526810786B4601
:1053C0000122FCF7BBFD10B14FF0FF30CAE79DF89A
:1053D000000000F0100020B100F05AF86FF001005A
:1053E000C0E7E2B2094B1B68D97A084B5B681878B2
:1053F0003B46FCF7A3FD10B14FF0FF30B2E795FB41
:10540000F4F0401E30700020ACE7000014000020D3
:10541000F8B504460D46164616B94FF0FF30F8BDF4
:105420001A48807A10B94FF0FF30F8E720128DF853
:105430000000E0B28DF801009DF8010028441349F6
:1054400049684989884202DD4FF0FF30E7E70F4A9B
:105450001268117E0D4A526810786B460222FCF7E2
:1054600013FE10B14FF0FF30D9E7EAB2074B1B68CB
:10547000597D064B5B6818783346FCF75FFD10B129
:105480004FF0FF30CBE70020C9E7000014000020F8
:1054900008B57048807A10B94FF0FF3008BD002081
:1054A00000906C4A1268D17B6A4A526810786B4649
:1054B0000122FCF7E9FD10B14FF0FF30EEE7654A3D
:1054C00012685179634A526810786B460122FCF7E2
:1054D000DBFD10B14FF0FF30E0E75E4A1268117952
:1054E0005C4A526810786B460122FCF7CDFD10B182
:1054F0004FF0FF30D2E7574890F82400002853D0EF
:105500000C200090534A12681179524A5268107860
:105510006B460122FCF7B8FD10B14FF0FF30BDE73C
:105520003220FEF76DF8C02000904A48807A00F0E3
:10553000010020B19DF8000040F020000090454A95
:1055400012681179434A526810786B460122FCF7C1
:105550009BFD10B14FF0FF30A0E73E48407C10B1FA
:105560000220009001E0002000903A4A1268D17BAE
:10557000384A526810786B460122FCF785FD10B15D
:105580004FF0FF308AE700200090324A12685179CC
:10559000304A526810786B460122FCF775FD0028EE
:1055A00055D04FF0FF3079E704200090294A126867
:1055B0001179284A526810786B460122FCF764FD85
:1055C00010B14FF0FF3069E72248807C20B92148B4
:1055D000807A00F0010010B94020009001E06020C6
:1055E00000901C4A126811791A4A526810786B466A
:1055F0000122FCF749FD10B14FF0FF304EE7322099
:10560000FDF7FEFF1348407C10B10120009001E03F
:10561000002000900F4A1268D17B0E4A5268107821
:105620006B460122FCF730FD10B14FF0FF3035E73B
:10563000084A12685179074A52681078054B1033AE
:105640000122FCF721FD10B14FF0FF3026E70020CA
:1056500024E70000140000202DE9F04F8DB08346B0
:105660000F4602200C90424890F8240020B1002000
:1056700000F068F9012600E0002603A8FFF722FCED
:1056800005A8FFF7C7FB01A8FFF766FC02A8FFF714
:105690008BFC374890F80AA004A8FFF70BFC002405
:1056A00007E0002239465846FEF738FE00B902E00E
:1056B000641C022CF5DB00BF022C01D1002528E080
:1056C000002407E0012206A909A8FEF727FE00B979
:1056D00002E0641C022CF5DB00BF022C01D1002586
:1056E00017E006A93846FDF7CDFB00F0FF0809A931
:1056F0005846FFF749F800F0FF090025B9F1000FFF
:1057000001D145F00105B8F1000F01D145F00205C6
:1057100000BFFF2016490872FF2115484172C1726F
:105720004FF6FF71C181FF21817201740121017364
:10573000BDF80C0000F04EF99DF8140000F01AF8C6
:10574000BDF8040000F0C0F9BDF8080000F0FEF953
:10575000504600F049FA9DF81000FFF7C3F916B162
:10576000012000F0EFF828460DB0BDE8F08F0000F2
:105770001400002038B504461E48807A10B94FF056
:10578000FF3038BD022C06D0042C07D0082C08D0DE
:10579000102C0CD108E0002000900BE008200090B5
:1057A00008E01020009005E01820009002E04FF083
:1057B000FF30E6E700BF0F48407A9DF80010B0EBDD
:1057C000E10F01D10020DCE70A4A1268D179094AC9
:1057D000526810786B460122FCF756FC10B14FF06E
:1057E000FF30CEE79DF80000C11002484172002052
:1057F000C7E700001400002038B504465048807CFC
:10580000A04201D1002038BD002C46D04C4A12687D
:1058100011794B4A526810786B460122FCF78EFBD7
:1058200010B14FF0FF30EEE79DF8000020F02000AF
:105830000090434A12681179414A526810786B46C9
:105840000122FCF721FC10B14FF0FF30DBE7032011
:10585000FDF7D6FE02200090394890F8220020B1D2
:105860009DF8000040F080000090354890F823003B
:1058700020B19DF8000040F030000090304A1268DE
:10588000117D2F4A526810786B460122FCF7FCFB11
:10589000002851D04FF0FF30B5E7294A126811793E
:1058A000274A526810786B460122FCF747FB10B17B
:1058B0004FF0FF30A7E72248807A00F0010028B1BE
:1058C0009DF8000040F02000009004E09DF80000EA
:1058D00020F0200000901A4A12681179184A526884
:1058E00010786B460122FCF7CFFB10B14FF0FF3070
:1058F00089E70320FDF784FE114890F8220010B1DB
:105900008020009001E0002000900D4890F82300D6
:1059100020B19DF8000040F030000090084A126865
:10592000117D074A526810786B460122FCF7ACFBE8
:1059300010B14FF0FF3066E701488474002062E741
:105940001400002038B50446214890F82400A042F5
:1059500001D1002038BD24B31D4890F8250010B9AE
:105960004FF0FF30F6E7002000F030FA0020FFF79C
:1059700043FF1749C88C00F0E9F800200090144953
:10598000496808786B4601222321FCF77DFB012141
:105990000F4880F82410012000F018FAFFF778FD76
:1059A00013E0002000F012FA0948007C009008493A
:1059B000496808786B4601222321FCF765FB00212A
:1059C000034880F82410FFF763FD0020C2E70000C1
:1059D0001400002038B504461F48807A10B94FF0F3
:1059E000FF3038BDFA2C09D0B4F5FA7F09D0B4F5F0
:1059F0007A7F09D0B4F5FA6F0CD108E0002000904E
:105A00000BE00820009008E01020009005E018202E
:105A1000009002E04FF0FF30E3E700BF0E48007A4D
:105A20009DF80010B0EBE10F01D10020D9E70A4A40
:105A300012689179084A526810786B460122FCF787
:105A400023FB10B14FF0FF30CBE79DF80000C010F2
:105A5000014908720020C4E71400002038B504464C
:105A6000184890F82300A04201D1002038BD14B19D
:105A70003020009001E0002000901248807C20B18E
:105A80009DF8000040F0020000900E4890F82200BF
:105A900020B19DF8000040F080000090094A126893
:105AA000117D084A526810786B460122FCF7ECFA27
:105AB00010B14FF0FF30D9E7024880F823400020B2
:105AC000D4E700001400002038B504461E48807A50
:105AD00010B94FF0FF3038BDBC2C02DB0120009024
:105AE00015E0622C02DB0220009010E02A2C02DB81
:105AF000032000900BE0142C02DB0420009006E051
:105B00000A2C02DB0520009001E0062000900E48E0
:105B1000C07A9DF80010884201D10020DBE70A4AD4
:105B200012689178084A526810786B460122FCF797
:105B3000ABFA10B14FF0FF30CDE79DF800100248EE
:105B4000C1720020C7E700001400002038B50446E9
:105B50002448807A10B94FF0FF3038BD214890F8C2
:105B6000240010B14FF0FF30F7E71E48007D50B120
:105B700034B1282C04DCE0B2FFF77AFB0020ECE71C
:105B80000020FFF775FB042C01DA042404E0B4F5CF
:105B90007A7F01DD4FF47A744FF47A7090FBF4F061
:105BA000401EC0B200900F4A126851780D4A5268E8
:105BB00010786B460122FCF767FA10B14FF0FF3006
:105BC000CBE79DF80000401C4FF47A7191FBF0F098
:105BD00081B20448C1810146C9894810FFF774FFAA
:105BE0000020BAE71400002038B5044604F0700025
:105BF00010B10120009005E014B10020009001E0F8
:105C0000402000902B4A1268917C2A4A52681078F2
:105C10006B460122FCF738FA20B100212548817239
:105C2000481E38BD9DF8000020F040012148017356
:105C30000020009004F0400020B99DF8000040F0E2
:105C40000400009004F0200020B99DF8000040F00E
:105C50000200009004F0100020B99DF8000040F010
:105C60000100009004F0080020B99DF8000040F009
:105C7000380000900F4A1268D17C0E4A52681078A2
:105C80006B460122FCF700FA20B10021094881721D
:105C9000481EC6E724B1082C02D00020FFF7DEFE24
:105CA00004488472002101753220FDF7A9FC002010
:105CB000B7E7000014000020F8B504460D4616466C
:105CC00016B94FF0FF30F8BD1A48807A10B94FF07E
:105CD000FF30F8E720128DF80000E0B28DF80100E7
:105CE0009DF801002844134949684989884202DD2A
:105CF0004FF0FF30E7E70F4A1268117E0D4A5268F5
:105D000010786B460222FCF7BFF910B14FF0FF305C
:105D1000D9E7EAB2074B1B68597D064B5B681878D8
:105D20003346FCF7B1F910B14FF0FF30CBE700205C
:105D3000C9E700001400002070B588B002A905A8CA
:105D4000FFF78AFC0446032C3ED101A8FFF7DCF8DC
:105D5000059801F04DF80646019901F0A9F80546AD
:105D600001F00AF80590069801F042F806460199FC
:105D700001F09EF8054600F0FFFF0690079801F03D
:105D800037F80646019901F093F8054600F0F4FF54
:105D9000079005A8FDF7B8FF6846FFF761F8BDF862
:105DA0000010029848430290BDF800100398484341
:105DB0000390BDF8001004984843049002A8FDF732
:105DC000D3FE002008B070BD0120FBE738B50446C3
:105DD000214890F82400C0B114B10220009001E0E5
:105DE000002000901C4A1268D17B1B4A5268107830
:105DF0006B460122FCF748F910B14FF0FF3038BD77
:105E00009DF800101448417423E01348807A10B9BB
:105E10004FF0FF30F3E724B10F48407C08B1002079
:105E2000EDE714B10120009001E0002000900A4A43
:105E30001268D17B084A526810786B460122FCF741
:105E400023F910B14FF0FF30D9E79DF80010024858
:105E500041740020D3E70000140000202DE9F04138
:105E600006460F4600F028FC041E0D4618BF012010
:105E7000284320F00040C0F17F6000F1E040C00FF7
:105E80000ED0301C18BF0120384320F00040C0F174
:105E90007F6000F1E040C00F04BF0120FAF754FC1E
:105EA00020462946BDE8F08110B586B004460121A0
:105EB00044F20400FCF770F94FF40070ADF81400E0
:105EC00003208DF8160018208DF8170005A91C482E
:105ED000FBF7DDFD4FF48060ADF8140004208DF871
:105EE000170005A91648FBF7D2FD25208DF8000004
:105EF00003208DF801008DF8020001208DF80300C9
:105F00006846FCF7F5F801940020ADF80800ADF8FC
:105F10000A00ADF80C00ADF810000C20ADF80E0032
:105F200001A90848FCF7B4FE012240F225510548BA
:105F3000FCF788FE01210348FCF74EFE06B010BDB9
:105F4000000801400038014010B500290AD0087847
:105F5000002807D005487844FBF78EF9002801D0C7
:105F6000002010BD0248784410BD000076390000C2
:105F70006E39000010B500290AD00878002807D033
:105F800005487844FBF778F9002801D0002010BDBF
:105F90000248784410BD0000663900005E390000F8
:105FA00021F00042A2F16052B2F5801F01F00043DF
:105FB00028BFD2F17F6C0BD95FEA001C43EAC20212
:105FC00042EB507018BF704728BF20F001007047A7
:105FD000B2F5801FBCBF184670474FEA410C1CF554
:105FE000001F02D2084601F02AB870B500F004FB89
:105FF00000000089FFF7F6BF4FF00040A0F58000D9
:106000007047000010B591EA030F48BF83F00043CA
:1060100000F14084841A71EB030C05D2121943EB92
:106020000C03001B61EB0C01DFF824E14FEA115473
:10603000A4EB135C1EEA430F18BF9EEA445F73D0C3
:1060400023EA0E03DCF1200E21EA045143F480130D
:1060500032D322FA0CFE10EB0E0023FA0CFE41EBB9
:106060000E01CCF1200E03FA0EFE10EB0E0051F1E2
:106070000001B1F5801FCCF1200E32D201EB0451AA
:1060800012FA0EF2BDE8104058BF7047401C38BFEE
:106090005FEA420218BF7047002814BF20F00100D9
:1060A00041F100014FEA410313F5001F38BF70476B
:1060B000A1F1C04100F0EEBA012A43EB0302ACF1BA
:1060C000200CDCF11F0E32BF4FF0000E23FA0CF350
:1060D00010EB030041EB0451B4EB115FD0D0A1EB06
:1060E000045101F5801149085FEA300001EB0451C9
:1060F0000ED350F1000038BF12FA0EFE08D1BDE8F1
:106100001040C9E7401C38BF5FEA4202CAD1C3E76A
:10611000BDE810404FEA410313F5001F38BF704738
:10612000A1F1C04100F0B6BA9EEA445F08D011EA7E
:106130005E0FBDE8104004BF01F000410020704731
:10614000BDE8104070B500F057FA00BF64FBBE3EDA
:106150000000E0FF02494FF0000001F01EB800BF50
:106160000000F87F491058BFC1F140415B1058BF93
:10617000C3F140438B42EFF3008070472DE9C041EB
:1061800030B4DFF8A0C23CEA111418BF3CEA131483
:1061900000F0EC8081EA03051CEA111444EAD5748E
:1061A00018BF1CEA131500F0C780A4EB05044FF0DC
:1061B000004545EAC12145EAC32341EA505143EA7B
:1061C000525304F17F74994204F500344FEAC02021
:1061D0004FEAC22208BF904200F09C804FEA13654C
:1061E0000FF24016765D4FEA134506FB05F7C7F13F
:1061F000807706FB07F74FEAD737A7FB036876429D
:10620000C8F58038A7FB06CE38BFA8F1010807FB08
:1062100008E64FF0000EA6FB028CE6FB03CEDCF195
:10622000000CCEF1004E38BFAEF1010EA6FB0C58AB
:106230004FF000074FF00005E6FB0E87A1FB08C6F4
:10624000A0FB07CE16EB0E0645F10005E1FB076546
:1062500015F1E04E7EBFA4F580345FEA46066D413D
:1062600016F1800745F100054FEA17274FEA066649
:1062700047EA0567A6F1DE46B6F1805F4FEA1525CD
:106280001FD9384624F0010C05EBC471BCF1FE6F38
:1062900001EB0C1102D8F0BCBDE8008124425CBFC8
:1062A00001F5801E9EEAC47F02D4F0BCBDE80081E7
:1062B000244238D4F0BCA1F1C041BDE8004100F057
:1062C000E9B94FEAD22242EA43524FEAD323A7FB6D
:1062D00002864FEAD02040EA415007FB03661EEADF
:1062E0000E0F4FEAD12105FB026658BFA6EB005600
:1062F000B6EB00564FEA520E4EEAC37E18EB0E0E76
:1063000056EB530EBDD518EB02085E417F1C55F1CC
:106310000005B6E74FF480154FF000074FF0000678
:106320004FF00008ADE7F0BC4FF0000001F1C041B4
:1063300001F00041BDE8008111EA0C1F0CEA1315C1
:1063400000D00CE013EA0C1F00F025804FF0000095
:10635000F0BC81EA030101F00041BDE80081F0BC1E
:10636000BDE8004181EA030100F094B9F0BCBDE84A
:10637000004170B500F040F9097EFC3E00F007B81E
:1063800081EA03014FF0000001F00041704781EA0B
:10639000030100F07FB9F0BCBDE800414FF0000000
:1063A00021497047FFFDFBF9F7F5F4F2F0EEEDEB54
:1063B000E9E8E6E4E3E1E0DEDDDBDAD8D7D5D4D303
:1063C000D1D0CFCDCCCBCAC8C7C6C5C4C2C1C0BF4F
:1063D000BEBDBCBBBAB9B8B7B6B5B4B3B2B1B0AF55
:1063E000AEADACABAAA9A8A8A7A6A5A4A3A3A2A139
:1063F000A09F9F9E9D9C9C9B9A99999897979695F4
:1064000095949393929191908F8F8E8E8D8C8C8B8F
:106410008B8A898988888787868585848483838217
:10642000828181800000FF070000F87F51EA030CA1
:1064300017D41CF5801F58BFBCF5801F00F10680E3
:10644000994218BF704708BF9042704707D711F5AF
:10645000801F58BF13F5801F19D499427047894295
:1064600070471CF5801F08D5BCF5801FF7D58B42FF
:1064700018BF704708BF824270474FF4001C1CEBE6
:10648000410F38BF1CEB430F01D28B42704770B5F0
:1064900000F0B2F8922449004FF000514FF08053C1
:1064A000FFF760BEDFF848C170B51CEA111E1EBFC1
:1064B0001CEA13159EEA0C0F95EA0C0F00F06F8092
:1064C00081EA030423EA4C134EEAD47E21EA4C11FC
:1064D00041F4801143F48013AE44A1FB024CA0FBB5
:1064E0000365AEF17F7E361955EB0C05A1FB034C1D
:1064F0004CF10003A0FB021C16EB0C06654153F1A6
:106500000003094218BF46F0010613F4007F0BD1C7
:106510004FEA03314FEA0530340341EA155140EAAE
:1065200016506FF003020AE04FEAC3214FEAC5207C
:10653000F40241EA555140EA56506FF0020202EB74
:106540002E4201EB025585EACE710AD05FEA440C77
:1065500018BF24F0004450F1000041F1000120EA8E
:10656000D47040F2FE7C624500D270BDA84214BFD8
:106570004FF080444FF04044002E08BF0024BEF18D
:10658000806FA8BFA1F1C041BDE8704080F2828059
:106590004FF0000001F1C04101F0004170479EEA58
:1065A0000C0F0CEA131518BF95EA0C0F06D04FF02C
:1065B000000081EA030E0EF0004170BD00F01CF8EF
:1065C0008900013E00F007B800F009B84FEA430C1B
:1065D0005FEA5C5C08D081EA030100F05BB84FEA37
:1065E000410C5FEA5C5CF6D14FF000000149704756
:1065F0000000FF070000F87F0EF1020E2EF0030EE0
:106600005EF8046B364205D4012A43EB030515F509
:10661000001F12D8012841EB010C1CF5001F0CD8FB
:106620000ED14FEAD17C15F5001F0CEB4C0C0CF190
:10663000020C08BF4CEBD37C04E04FF0080C01E0E7
:106640004FEAD37C0CEB4C0526FA05F606F007065C
:10665000B6F1040C06D20EEB860CBDE870404CF08F
:10666000010C6047DFE80CF0090B02024FF000411B
:106670004FF00000A1F5002170BD19461046012819
:1066800051EB010418BFD4F5001484BF002001F0C1
:10669000004170BD0808A0F500114FEA31017047B4
:1066A00091EA030F10B581F000413FF5B3AC83F0E0
:1066B000004300F0EFB800002DE9F04101F5801C27
:1066C000BCF5001FC0F2C3804FEA115C21EA0C51F7
:1066D0000CF1FD0C41F480115FEA5C0C0CF5C07C00
:1066E00001D3400049413DA4890241EA905187020B
:1066F0008E0E0A0CA45D04FB04F602FB06F6C6F13E
:106700004046A4FB0662F60D46EA422606FB06F466
:10671000A4FB01235242C3F1404338BF5B1EA6FBDA
:1067200002420024E6FB0324D20B42EA4446A6FBC5
:106730000623A1FB02E2A3FB07E4A4184FF000022A
:1067400052F10002E3FB01426442C2F1404E38BF05
:10675000AEF1010EA6FB04234FF00002E6FB0E3261
:10676000A2FB03464FF00004B61954F10004E2FB0B
:106770000264A1FB06E6A4FB07E816EB08064FF04F
:10678000000858F10008E4FB01687642C8F140585F
:1067900038BFA8F10108A2FB06E4A3FB08E52D1908
:1067A0004FF0000454F10004E2FB0854A1FB05E69D
:1067B000A7FB04E818EB06084FF0000656F10006A8
:1067C000E1FB048618F1200556F10006A809A8F19E
:1067D0001B08B10908F03F08B8F10A0F40EA8660CB
:1067E0001CD901EB0C51BDE8F08100BFFCF5EEE8CF
:1067F000E2DDD8D3CFCBC7C3C0BDB9B6B4B1AEAC60
:10680000A9A7A5A3A19F9D9B9A9896959392908FD7
:106810008D8C8B898887868584838281A0FB006824
:1068200000FB01F208EB4208B8EB872807D53418C3
:1068300058EB0104D5D5401C51F10001D1E7341AC1
:1068400078EB0104CDD4401E71F10001C9E75FEA85
:106850004C0C5FEA9C5C0DD105D34FF0000001F0B9
:106860000041BDE8F081BDE8F04170B5FFF7C4FE1E
:106870006DDBFFBEBDE8F0414FF0000000497047FE
:106880000000F87F10B591EA030F48BF83F0004382
:106890003FF5C0AB841A71EB030C07D212198CF0D0
:1068A000004C43EB0C03001B61EB0C01DFF8A4E18F
:1068B0004FEA1154A4EB135C1EEA430F18BF9EEA83
:1068C000445F00F0B08023EA6E03524221EA045193
:1068D000C3EB6E0338BF5B1EDCF1200E25D322FA1A
:1068E0000CFE10EB0E0043FA0CFE41EB0E01CCF156
:1068F000200E03FA0EFE10EB0E0051F10001CCF158
:10690000200E29D412FA0EF201EB0451BDE810401A
:1069100058BF7047401C1CBFB2F1004F70470028A1
:106920000CBF491C20F00100704712EB020E43EB34
:10693000030218BF4FF0010E4EEA4202ACF1200CE8
:10694000DCF11E0E54D943FA0CFE10EB0E0051F18F
:10695000FF31CCF11E0ED5D50EF1010E12FA0EFE4E
:10696000404141EB010101EB445C5FEA5C5C10D902
:1069700010EBDE7001EB045138BFBEF1004FBDE8F3
:10698000104018BF704700280CBF491C20F00100C0
:10699000704730D24FEAD42C11F5001124F4006472
:1069A0001BD0B1FA81F20B3AA41AA41ED2F1200333
:1069B000914030FA03F31943904001EBCC71002C65
:1069C00001EB0451BDE81040A8BF704701F1C04180
:1069D0004FF0000001F000417047B0FA80F310FA68
:1069E00003F100D110BDE41A173C4805C90AE4E7D9
:1069F00001EB045110BD491001EB0451BDE81040FA
:106A00004FEA300002E04FF0000170474A0008BF33
:106A10000042F8D0B2F5001F28BF704701F00041D6
:106A20004FF0000070479EEA445F07D011EA5E0F06
:106A3000BDE8104004BF002100207047BDE81040B1
:106A400070B5FFF7D9FD00BF40DFF63E83F000418F
:106A5000104670470000E0FF43004FEAD30C4FEAB6
:106A60003C0C43401FBF40070CF1605113F0FE4F38
:106A700070471CF0006F03D100200CF000417047FC
:106A80000CF0004343EA507010B540EACC0000F02F
:106A900090FA00BF000000924FEA0001FFF7FABD34
:106AA0004FF000414FF00000A1F5002170470000B9
:106AB00090EA010F48BF81F0004100F1FE82421AC6
:106AC0003CBF801A89184FEAD0524FF07F4C1CEA25
:106AD000410FA2EBD15318BF9CEA026F00F03B803C
:106AE0004FF0004C4CEA00204CEA012121FA03FC53
:106AF00010EB0C0C1ED202F1FF325FEA1C2040EBBF
:106B0000C25038BF70471CF07F0F4FEA400C18BFCF
:106B1000BCF17F4F38BF7047C3F12003994008BFD5
:106B200020F00100BCF17F4F38BF7047A0F1C0409A
:106B300000F085BA4FEA3C00000A40EBC25028BF83
:106B40001CF0FF0F4FEA400CE6D018BFBCF17F4F9E
:106B500038BF7047EAE79CEA026F05D010EA5C0F85
:106B600008BF00F00040704710B500F022FA00BFE7
:106B700064FBBE3E401058BFC0F14040491058BFB2
:106B8000C1F140418142EFF3008070474FF47F0C28
:106B90001CEAD0121EBF1CEAD11392EA0C0F93EA32
:106BA0000C0F00F0858090EA010F48BF42F480721C
:106BB00040F4000C41F400002CF07F4120F07F40B5
:106BC00000B58142A2EB03020FF2081CACEB504E61
:106BD000C0F100009EF800E04FEA4E0E00FB0EFCF4
:106BE00038BF49004FEA2C1C02F5FA020CFB0EF3E9
:106BF0004FEACE1E4FEA112C4FEAC1210EEB635E25
:106C000042EB22420EFB0CFC4FEA1C5300FB03112B
:106C10004FEA112C4FEA01310EFB0CFC4FEADC4C21
:106C200000FB0C11C14228BF09184CEB03335DF87F
:106C300004EB10EB410143EBC250B2F57C0F38BFBF
:106C4000704729D512F0F00F1CBF00F1C04000F0D2
:106C500000407047008182838485868788898B8C79
:106C60008D8E8F919293959697999A9C9D9FA0A2B5
:106C7000A3A5A7A8AAACAEB0B2B3B5B7B9BCBEC005
:106C8000C2C5C7C9CCCED1D4D7D9DCDFE2E6E9ECA6
:106C9000F0F3F7FAFE0000004FEA400C0CF1807CA4
:106CA000BCF17E4F28BF7047B0F1C04000F0C7B9BB
:106CB00090EA010F0CEAD11348BF42F4807262459A
:106CC00038BF634507D213F47F0F16D080EA010066
:106CD00000F00040704710B500F06BF9097EFC3EF3
:106CE00000F005B880EA010000F00040704780EA3B
:106CF000010000F0004000F0A2B912F47F0F04BFC1
:106D00000248704780EA010000F099B90000C07F96
:106D100050EA010C00F113801CF5000F58BFBCF5C0
:106D2000000F01D48842704707D710F5000F58BFF5
:106D300011F5000F15D488427047894270471CF541
:106D4000000F04D5BCF5000FF7D5814270474FF016
:106D5000807C1CEB400F38BF1CEB410F01D28142FD
:106D6000704710B500F025F9922449004FF000500B
:106D70004FF08051FFF7FEBE41000B0ED3F19E0293
:106D800008D950F400034FEA032323FA02F048BF66
:106D90004042704710B500F00CF900BF49922480C2
:106DA000002070476FF0004282EA20007047000028
:106DB000C10DD1F19E0206DB4FEA002343F00043F0
:106DC00023FA02F07047004207D54FEA4001B1F1C3
:106DD000FE4F02D24FF00000704710B500F0E9F806
:106DE00049922480002070476FEA2000704700001D
:106DF00010F0004148BF4042B0FA80F310FA03F2AD
:106E0000C3F19D030BD051EAC35101EB122053068D
:106E100038BF704700F1010008BF20F00100704743
:106E2000B0FA80F310FA03F2C3F19D030AD0D9053A
:106E300001EB1220530638BF704700F1010008BF74
:106E400020F001007047000050EA010C00F11380AF
:106E50001CF5000F58BFBCF5000F01D488427047E5
:106E600007D710F5000F58BF11F5000F15D4884251
:106E70007047894270471CF5000F04D5BCF5000F20
:106E8000F7D5814270474FF0807C1CEB400F38BF34
:106E90001CEB410F01D28142704710B500F089F818
:106EA000922449004FF000504FF08051FFF762BE2E
:106EB0004FF47F0C1CEAD0121EBF1CEAD11392EAD9
:106EC0000C0F93EA0C0F00F0478090EA010F48BFC7
:106ED00042F480724FF0004C4CEA00204CEA012151
:106EE00002EB0302A0FB0113A2F50002002918BF68
:106EF00043F001035B0028BF4FEA330342EB224219
:106F00005FEA132C4CEBC2502EBFBCEB436FB2F5C3
:106F10007C0F70474FEA036CBCF1004F08BF20F0B4
:106F20000100B2F57C0F38BF70470BD582F0FF022D
:106F300012F5803FC8BF704700F1C040D8BF00F0D5
:106F40000040704700F5000C5FEA4C0C48BF7047EA
:106F5000B0F1C04000F073B890EA010F0CEAD11311
:106F600048BF42F48072624538BF634504D280EA6C
:106F7000010000F00040704710B500F01AF800BFA3
:106F80008900013E00F007B800F009B85FEA410C43
:106F90005FEA1C6C08D080EA010000F050B85FEA9C
:106FA000400C5FEA1C6CF6D14FF00040A0F5800069
:106FB00070470EF1020E2EF0030E5EF8044B2442D1
:106FC00004D44FEA4102B2F17F4F11D84FEA400397
:106FD000B3F17F4F0CD80ED14FEAD07CB2F17F4F86
:106FE0000CEB4C0C0CF1020C08BF4CEBD17C04E018
:106FF0004FF0080C01E04FEAD17C0CEB4C0324FA73
:1070000003F404F00704B4F1040C06D20EEB840C74
:10701000BDE810404CF0010C6047DFE80CF00708B9
:1070200002024FF00040A0F5800010BD084642006B
:1070300018BFD2F1807288BF00F0004010BDFF2160
:1070400041EAD050C005704751EA000C00F11380AE
:107050001CF5000F58BFBCF5000F01D481427047EA
:1070600007D711F5000F58BF10F5000F15D4814256
:107070007047894270471CF5000F04D5BCF5000F1E
:10708000F7D5884270474FF0807C1CEB410F38BF2A
:107090001CEB400F01D28842704780EA010081EA70
:1070A000000180EA0100FFF7F8BE000090EA010F3E
:1070B00048BF81F000413FF502AD421A04D882F08A
:1070C0000042A0EB020011444FEAD0524FF07F4C37
:1070D0001CEA410FA2EBD15318BF9CEA026F4AD0C1
:1070E0004FF0004C4CEA00204CEA012121FA03FC4D
:1070F000B0EB0C0C0FD412F0FE0F36D05FEA4C0050
:107100001DD5001240EBC25038BF70471CF03F0F36
:1071100018BF70470BE0A2F101025FEA1C2040EBB0
:10712000C25038BF70471CF07F0F18BF7047C3F1C3
:107130002003994014BF401E20F0010070478008D2
:107140004FEA122308BF7047B0FA80FCA2EB0C0292
:10715000CCF1280C60FA0CF093EA122F04BF00EB7C
:10716000C25070474FEAC3707047130A5FEADC10E1
:1071700008BF7047F6E79CEA026F04D010EA5C0F84
:1071800008BF0020704710B5FFF713FF40DFF63E41
:1071900081F000407047F9F75EBC0CF00F03092B3B
:1071A00008BF082000F059800A2B0BD0082B18BF0D
:1071B000704708BF1CF0400F0AD04FF000004FF09E
:1071C000000170471CF0400F18BF4FF0004070479F
:1071D0001CF0100F08D020F0704300F07F4242EA0C
:1071E000D3014FEA4370704700F0604021F07F42C6
:1071F00042EA000201F07F4040EA727070474FF0AF
:10720000FF0C4CF4E06C1CEA11531CBF9CEA030C0D
:107210009445C2BFDA4201EB02517047002B0DD0FA
:10722000BCF1000F0FD0002A01F00041A4BF41F0D3
:10723000E04141F07F614FF00000704701F00041F4
:107240004FF00000704750EA01334FF09B0C18BF1D
:107250004CF0806C7EF47EAF70471CF4801F11D020
:107260001CF4E02F03D06FEACC31490070474FF097
:107270004050EFF3008222F0704242EA000282F3B3
:10728000008870474FF000007047000075191A0C15
:107290006A231B1C1F207274433B4138393A6B6CC4
:1072A000376F06246D6E700068000004760054018C
:1072B000F7FD000183000000000800000001001835
:1072C00032000500000020410000D242295C0F3E40
:1072D0009A99993E3333733F295C0F3E000070004A
:1072E00000000024000000020003000000650054BC
:1072F000FFEF0000FA80000B12820001030C30C384
:107300000E8C8CE914D5400213710F8E3883F883EC
:107310003000F883258EF8833000F883FFFFFFFFED
:107320000FFEA9D6240004001A8279A10000003CB7
:10733000FFFF00000010000038836FA2003E033002
:107340004000000002CAE3093E8000002000000067
:10735000000000004000000060000000000C000081
:10736000000C186E000006920A16C0DFFFFF0256DE
:10737000FD8CD377FFE1C496E0C5BEAA00000000F3
:10738000FFFF0B2B000016570000035940000000C0
:1073900000001DFA00026C1D000000003FFFDFEB43
:1073A000003EB3B6000D227800002F3C0000000024
:1073B000001942B5000039A20000B365D90E9FC97B
:1073C0001DCF4C3430000000500000003BB67AE87E
:1073D0000064000000C80000000000001000000071
:1073E0001000FA921000225E000D229F00010000A2
:1073F00000320000FF46000063D4000010000000CF
:1074000004D6000004CC000004CC00000000107280
:107410000000004000000000000000000006000224
:1074200000050007000000000064000000000000EC
:1074300000000005000500640020000000000000BE
:1074400000000000000040000000030000000032C7
:10745000F8980000FF650000830F0000FF9BFC0010
:10746000000000000000000000000000000000001C
:10747000000000000000000000000000000000000C
:1074800000000000000000000000100040000000AC
:10749000000000060000B26A000200000001FB8349
:1074A0000068000000D9FC007CF1FF8300000000B0
:1074B00000650000006403E8006400280000002567
:1074C0000000000016A000000000100000001000E6
:1074D000002F0000000001F4000010000028000050
:1074E000FFFF4581FFFFFA7200000000000000006E
:1074F000004400050005BAC6004778A2000000015C
:107500000000000000000600000000140000254DEF
:10751000002F706D000005AE000C02D000000000CE
:10752000000000000000000000000000001B000040
:1075300000000000000000000000000000640000E7
:107540000008000000000000000000000000000033
:10755000000000000000000000000000000000002B
:10756000000000000000000000000000000000001B
:10757000000000000000000000000000000000000B
:1075800000000000000000000000000000000000FB
:10759000000000000000000000000000001B0000D0
:1075A0000000000000000000000E000E00000AC7EE
:1075B0000004000000000032FFFFFF9C00000B2BC6
:1075C000000000020000000100000064FFE5000070
:1075D00000000000000000000000000000000001AA
:1075E0000000000000010000000000000001800019
:1075F0000001800000018000002426D3000000006C
:1076000000000000000600100096003C0000000092
:107610000000000000000000000000000C0A4E689E
:10762000CDCF770950166759C619CE8200000000E9
:10763000000000000000000000000000000000004A
:107640000000000017D784000300000000000000C5
:1076500000000000C7938F9D1E1B1C190000000036
:10766000000000000000000000000000000000001A
:107670000000000002031885000040000000000325
:1076800000000003000000000000000040000000B7
:1076900000000000000000000000000000000000EA
:1076A00000000000000000000000000000000000DA
:1076B00000000000000000000000000000000000CA
:1076C000677DDF7E72902E554CF6E6880000000044
:1076D000000000000000000000000000D8DCB4B88A
:1076E000B0D8B9ABF3F8FAB3B7BB8E9EAEF132F5B2
:1076F0001BF1B4B8B08097F1A9DFDFDFAADFDFDFCD
:10770000F2AAC5CDC7A90CC92C97F1A9892646664E
:10771000B28999A92D557DB0B08AA896365676F1D2
:10772000BAA3B4B280C0B8A89711B28398BAA3F034
:10773000240844106418B2B9B49883F1A329557D84
:10774000BAB5B1A38393F0002850F5B2B6AA8393DB
:1077500028547CF1B9A3829361BAA2DADEDFDB811F
:107760009AB9AEF5606870F1DABAA2DFD9BAA2FAB6
:10777000B9A38292DB31BAA2D9BAA2F8DF85A4D02C
:10778000C1BBAD83C2C5C7B8A2DFDFDFBAA0DFDFF0
:10779000DFD8D8F1B8AAB38DB4980D355DB2B6BABA
:1077A000AF8C96198F9FA70E161EB49AB8AA872C75
:1077B000547CBAA4B08AB691325676B28494A4C8E6
:1077C00008CDD8B8B4B0F19982A82D557D98A80EEF
:1077D000161EA22C547C92A4F02C5078F184A89808
:1077E000C4CDFCD80DDBA8FC2DF3D9BAA6F8DABAC3
:1077F000A6DED8BAB2B68696A6D0F3C841DAA6C835
:10780000F8D8B0B4B882A892F52C548898F135D93C
:10781000F418D8F1A2D0F8F9A884D9C7DFF8F88312
:10782000C5DADF69DF83C1D8F40114F1A8824EA85C
:1078300084F311D182F5D992289788F109F41C1CA0
:10784000D884A8F3C0F9D1D99782F129F40DD8F3DF
:10785000F9F9D1D982F4C203D8DEDF1AD8F1A2FA3D
:10786000F9A88498D9C7DFF8F8F883C7DADF69DFA9
:10787000F883C3D8F40114F198A8822EA884F311D8
:10788000D182F5D992509788F109F41CD884A8F3D5
:10789000C0F8F9D1D99782F149F40DD8F3F9F9D1AB
:1078A000D982F4C403D8DEDFD8F1AD8898CCA8091A
:1078B000F9D98292A8F57CF1883ACF944A6E98DB88
:1078C0006931DAADF2DEF9D88795A8F221D1DAA5CF
:1078D000F9F417D9F1AE8ED0C0C3AE82C684C3A866
:1078E0008595C8A588F2C0F1F4010EF18E9EA8C658
:1078F0003E56F554F18872F40115F19845856EF500
:107900008E9E0488F142985A8E9E068869F4011C66
:10791000F1981E1108D0F504F11E97020298362541
:10792000DBF9D985A5F3C1DA85A5F3DFD88595A85C
:10793000F309DAA5FAD88292A8F578F1881A849F1B
:1079400026889821DAF41DF3D8879F39D1AFD9DF83
:10795000DFFBF9F40CF3D8FAD0F8DAF9F9D0DFD973
:10796000F9D8F40BD8F3879F39D1AFD9DFDFF41DF5
:10797000F3D8FAFCA869F9F9AFD0DADEFAD9F88FB2
:107980009FA8F1CCF398DB45D9AFDFD0F8D8F18FC1
:107990009FA8CAF38809DAAF8FCBF8D8F2AD978DDC
:1079A0000CD9A5DFF9BAA6F3FAF412F2D8950DD1E5
:1079B000D9BAA6F3FADAA5F2C1BAA6F3DFD8F1BABA
:1079C000B2B68696A6D0CAF349DAA6CBF8D8B0B438
:1079D000B8D8AD84F2C0DFF18FCBC3A8B2B686961B
:1079E000C8C1CBC3F3B0B48898A821DB718D9D7159
:1079F000859521D9ADF2FAD88597A828D9F408D869
:107A0000F28D29DAF405D9F285A4C2F2D8A88D94B2
:107A100001D1D9F411F2D88721D8F40AD8F2849888
:107A2000A8C801D1D9F411D8F3A4C8BBAFD0F2DEF5
:107A3000F8F8F8F8F8F8F8F8D8F1B8F6B5B9B08A67
:107A400095A3DE3CA3D9F8D85CA3D9F8D87CA3D9F8
:107A5000F8D8F8F9D1A5D9DFDAFAD8B18530F7D955
:107A6000DED8F830ADDADED8F2B48C99A32D557D8E
:107A7000A083DFDFDFB591A0F629D9FBD8A0FC29D0
:107A8000D9FAD8A0D051D9F8D8FC51D9F9D879D998
:107A9000FBD8A0D0FC79D9FAD8A1F9F9F9F9F9A065
:107AA000DADFDFDFD8A1F8F8F8F8F8ACDEF8ADDE01
:107AB0008393AC2C547CF1A8DFDFDFF69D2CDAA099
:107AC000DFD9FADB2DF8D8A850DAA0D0DED9D0F86B
:107AD000F8F8DB55F8D8A878DAA0D0DFD9D0FAF8D2
:107AE000F8F8F8DB7DF8D89CA88CF530DB38D9D0D5
:107AF000DEDFA0D0DEDFD8A848DB58D9DFD0DEA09B
:107B0000DFD0DED8A868DB70D9DFDFA0DFDFD8F1F7
:107B1000A888902C547C98A8D05C38D1DAF2AE8C2E
:107B2000DFF9D8B087A8C1C1B188A8C6F9F9DA369B
:107B3000D8A8F9DA36D8A8F9DA36D8A8F9DA36D8D2
:107B4000A8F9DA36D8F78D9DADF818DAF2AEDFD89D
:107B5000F7ADFA30D9A4DEF9D8F2AEDEFAF983A790
:107B6000D9C3C5C7F1889BA77AADF7DEDFA4F88437
:107B70009408A797F300AEF29819A488C6A3948836
:107B8000F632DFF28393DB09D9F2AADFD8D8AEF858
:107B9000F9D1DAF3A4DEA7F1889B7AD8F38494AE06
:107BA00019F9DAAAF1DFD8A881C0C3C5C7A39283A7
:107BB000F628ADDED9F8D8A350ADD9F8D8A378AD62
:107BC000D9F8D8F8F9D1A1DADEC3C5C7D8A1819414
:107BD000F818F2B089ACC3C5C7F1D8B8B4B097866D
:107BE000A8319B069907AB9728889BF00C2014407E
:107BF000B0B4B8F0A88A9A285078B79BA8295179D0
:107C0000247059446938644831F1BBAB88002C5466
:107C10007CF0B38BB8A804285078F1B088B49726CC
:107C2000A85998BBABB38B02264666B0B8F08A9CC5
:107C3000A82951798B2951798A2470598B20587140
:107C40008A4469388B3940688A6448318B3049608E
:107C500088F1AC002C547CF08CA804285078F18872
:107C60009726A85998AC8C02264666F0899CA829CC
:107C70005179247059446938644831A988092059D8
:107C800070AB11384069A8193148608CA83C415C40
:107C9000207C00F187981986A86E767EA999882D98
:107CA000557DD8B1B5B9A3DFDFDFAED0DFAAD0DE16
:107CB000F2ABF8F9D9B087C4AAF1DFDFBBAFDFDFE1
:107CC000B9D8B1F1A3978E60DFB084F2C8F8F9D9C2
:107CD000DED89385F14AB183A308B5839A0810B71B
:107CE0009F10D8F1B0BAAEB08AC2B2B68E9EF1FB88
:107CF000D9F41DD8F9D90CF1D8F8F8AD61D9AEFB9B
:107D0000D8F40CF1D8F8F8AD19D9AEFBDFD8F416D9
:107D1000F1D8F8AD8D61D9F4F4ACF59C9C8DDF2BD6
:107D2000BAB6AEFAF8F40BD8F1AED0F8AD51DAAE7F
:107D3000FAF8F1D8B9B1B6A3839C08B9B1839AB562
:107D4000AAC0FD3083B79F10B58B93F20202D1AB6E
:107D5000DADED8F1B080BAABC0C3B284C1C3D8B147
:107D6000B9F38BA391B609B4D9ABDEB0879CB9A3A4
:107D7000DDF1B38B8B8B8B8BB087A3A3A3A3B28BCB
:107D8000B69BF2A3A3A3A3A3A3A3A3A3A3F1B0872A
:107D9000B59AA3F39BA3A3DCBAACDFB9A3A3A3A3B7
:107DA000A3A3A3A3A3A3A3A3A3A3A3A3D8D8D8BBEC
:107DB000B3B7F1AAF9DAFFD9809AAA28B48098A7B4
:107DC00020B79787A86688F07951F1902C870CA787
:107DD00081976293F071716085940129517990A522
:107DE000F1284C6C870C95188578A38390284C6CEF
:107DF000886CD8F3A28200F210A8921980A2F2D95E
:107E000026D8F188A84DD948D896A83980D93CD829
:107E10009580A839A68698D92CDA87A72CD8A88966
:107E20009519A980D938D8A88939A980DA3CD8A869
:107E30002EA83990D90CD8A8953198D90CD8A80972
:107E4000D9FFD801DAFFD89539A9DA26FFD890A84A
:107E50000D8999A810809821DA2ED88999A83180A7
:107E6000DA2ED8A886963180DA2ED8A8873180DA23
:107E70002ED8A88292F34180F1D92ED8A882F31986
:107E800080F1D92ED882ACF3C0A28022F1A62EA711
:107E90002EA92298A829DAACDEFFD8A2F22AF1A9ED
:107EA0002E8292A8F23180A696F1D900AC8C9C0C5F
:107EB00030ACDED0DEFFD88C9CACD010ACDE809233
:107EC000A2F24C82A8F1CAF235F19688A6D900D860
:107ED000F1FF0000000000000000000000000000B2
:107EE00000003F40000000000000000030004000A3
:107EF00030004000000009000BC03D000BC03D00F9
:107F0000090018C024407FE02240318000001800A2
:107F100024C01B000D803240018003801C4027409C
:107F20001C800740004010006000000000000000BE
:107F300000000000000000001F80204040200000E2
:107F4000402020401F8000000000090006001F8024
:107F5000060009000000040004003F800400040043
:107F6000000000100060000000000000000004009D
:107F700004000400040004000000000000400000B1
:107F8000000000000000002001C006003800400092
:107F900000001F802040204020401F800000000083
:107FA00010403FC000400000000018C021402240A7
:107FB00024401840000010802040244024401B80B2
:107FC000000002000D0011003FC0014000003C8095
:107FD000244024402440238000001F80244024406B
:107FE0003440038000003000200027C0380020000B
:107FF00000001B802440244024401B8000001C0003
:1080000022C0224022401F800000000000000840E3
:1080100000000000000000000000046000000000FC
:108020000000000004000A00110020804040090008
:1080300009000900090009000000000040402080FC
:1080400011000A000400180020002340240018003A
:1080500000001F802040274029401F4000000040B2
:1080600007C039000F0001C0004020403FC024403D
:1080700024401B8000001F80204020402040308092
:10808000000020403FC0204020401F8000002040D2
:108090003FC024402E4030C0000020403FC024405C
:1080A0002E00300000000F0010802040224033805E
:1080B000020020403FC0040004003FC02040204098
:1080C00020403FC0204020400000006020202020B1
:1080D0003FC02000200020403FC024400B0030C0A3
:1080E000204020403FC020400040004000C03FC032
:1080F0003C0003C03C003FC0000020403FC00C409B
:1081000023003FC020001F802040204020401F80CF
:10811000000020403FC024402400180000001F80C1
:108120002140214020E01FA0000020403FC024400B
:10813000260019C0004018C024402440224031804D
:108140000000300020403FC02040300000002000F0
:108150003F80004000403F80200020003E0001C0E2
:10816000070038002000380007C03C0007C0380076
:108170000000204039C0060039C020400000200027
:10818000384007C0384020000000304021C0264061
:10819000384020C00000000000007FE04020402068
:1081A0000000000070000C00038000400000000090
:1081B000402040207FE00000000000002000400040
:1081C000200000000000001000100010001000103F
:1081D000001000000000400000000000000000004F
:1081E00002800540054003C0004020003FC004401D
:1081F0000440038000000000038004400440064067
:10820000000000000380044024403FC00040000004
:1082100003800540054003400000000004401FC0EB
:10822000244024402000000002E005500550065084
:10823000042020403FC00440040003C00040000070
:10824000044027C00040000000000010001004108F
:1082500027E00000000020403FC00140070004C0AC
:108260000440204020403FC000400040000007C0C4
:10827000040007C0040003C00000044007C004401D
:10828000040003C000400000038004400440038059
:108290000000041007F004500440038000000000B8
:1082A00003800440045007F00010044007C002405F
:1082B000040004000000000006400540054004C022
:1082C0000000000004001F80044000400000040083
:1082D00007800040044007C000400400070004C0BD
:1082E000018006000400060001C0070001C006006E
:1082F0000000044006C0010006C004400000041055
:10830000071004E00180060004000000044005C0DE
:108310000640044000000000000004007BE0402014
:108320000000000000000000FFF00000000000005E
:1083300040207BE00400000000004000800040007E
:1083400020002000400000000000000000000000AD
:108350000000000000000000000000001FCC000C26
:10836000000000000000000008003000600008006D
:10837000300060000000022003FC1E20022003FCED
:108380001E200220000000000E1811043FFF108480
:108390000C78000000000F0010840F3800C0077830
:1083A00018840078000000780F8410C411240E98FF
:1083B00000E400840008080068007000000000006D
:1083C00000000000000000000000000007E0181896
:1083D000200440020000000040022004181807E0BA
:1083E0000000000000000240024001800FF0018008
:1083F0000240024000000080008000800FF80080F2
:108400000080008000000001000D000E0000000050
:10841000000000000000000000800080008000805C
:108420000080008000800000000C000C00000000B4
:10843000000000000000000000060018006001803D
:10844000060018002000000007F0080810041004BF
:10845000080807F000000000080408041FFC0004DE
:1084600000040000000000000E0C10141024104442
:1084700011840E0C000000000C18100411041104EB
:1084800012880C700000000000E00320042408247F
:108490001FFC0024000000001F9810841104110428
:1084A000108810700000000007F008881104110403
:1084B00018880070000000001C00100010FC130061
:1084C0001C001000000000000E38114410841084BD
:1084D00011440E38000000000700088C10441044BE
:1084E000088807F00000000000000000030C030CE7
:1084F0000000000000000000000000010106000074
:108500000000000000000000008001400220041074
:10851000080810040000022002200220022002208D
:1085200002200220000000001004080804100220AD
:1085300001400080000000000E001200100C106CC2
:1085400010800F00000003E00C1813E4142417C47B
:10855000082807D000000004003C03C41C4007406A
:1085600000E4001C000410041FFC11041104110499
:108570000E880070000003E00C18100410041004B2
:1085800010081C10000010041FFC1004100410043C
:10859000080807F0000010041FFC1104110417C4A0
:1085A00010040818000010041FFC1104110017C06B
:1085B00010000800000003E00C1810041004104420
:1085C0001C780040000010041FFC10840080008014
:1085D00010841FFC10040000100410041FFC100481
:1085E00010040000000000030001100110011FFE34
:1085F00010001000000010041FFC1104038014641C
:10860000181C1004000010041FFC100400040004D7
:108610000004000C000010041FFC1F0000FC1F00E1
:108620001FFC1004000010041FFC0C04030000E0F9
:1086300010181FFC100007F00808100410041004A4
:10864000080807F0000010041FFC10841080108040
:1086500010800F00000007F0081810241024101CD0
:10866000080A07F2000010041FFC1104110011C0D9
:1086700011300E0C000400000E1C11041084108434
:1086800010441C3800001800100010041FFC1004D7
:1086900010001800000010001FF81004000400046F
:1086A00010041FF8100010001E0011E0001C0070E4
:1086B00013801C0010001FC0103C00E01F0000E0F1
:1086C000103C1FC000001004180C163401C001C07B
:1086D0001634180C100410001C00130400FC1304C2
:1086E0001C00100000000804101C10641084130407
:1086F0001C04101800000000000000007FFE400273
:10870000400240020000000030000C0003800060C6
:10871000001C0003000000004002400240027FFEF7
:1087200000000000000000000000200040004000A9
:1087300040002000000000010001000100010001D4
:108740000001000100010000400040002000000086
:1087500000000000000000000098012401440144D2
:10876000014400FC000410001FFC00880104010407
:1087700000880070000000000070008801040104FF
:10878000010400880000000000700088010401045A
:1087900011081FFC0004000000F8014401440144DA
:1087A000014400C800000000010401040FFC110492
:1087B000110411001800000000D601290129012927
:1087C00001C90106000010041FFC00840100010023
:1087D000010400FC000400000104190419FC000459
:1087E0000004000000000000000300010101190165
:1087F00019FE0000000010041FFC0024004001B41A
:10880000010C010400000000100410041FFC00040F
:10881000000400000000010401FC0104010001FC4F
:108820000104010000FC010401FC008401000100BE
:10883000010400FC0004000000F80104010401042C
:10884000010400F80000010101FF0085010401049A
:10885000008800700000000000700088010401041E
:10886000010501FF00010104010401FC0084010471
:10887000010001800000000000CC0124012401243B
:1088800001240198000000000100010007F8010424
:10889000010400000000010001F8000400040004CD
:1088A000010801FC0004010001800170000C0010AF
:1088B00001600180010001F0010C003001C00030B6
:1088C000010C01F0010000000104018C0074017032
:1088D000018C01040000010101810171000E0018EA
:1088E00001600180010000000184010C0134014499
:1088F0000184010C000000000000000000000100E5
:108900003EFC400240020000000000000000FFFFAB
:108910000000000000000000400240023EFC010098
:1089200000000000000000006000800080004000A7
:1089300040002000200000000000000000000000B7
:108940000000000000000000000000000000000027
:108950000000000000000000000000000000000017
:108960000000000000000000000F80380FFE380FEC
:10897000803800000000000000000000000000003F
:10898000000000000100000600000C00003800009C
:108990003100000600000C0000380000300000002C
:1089A00000000000000061800067F807F9800061A6
:1089B000800061800061800061800067F807F980B5
:1089C00000618000000000000000000001C0E00322
:1089D000E0F00630080418081FFFFE040E080787A1
:1089E000F00381E000000000000001F000060C0030
:1089F000040408060C7001F9C0000E00003BE00002
:108A0000EC18070808040C180003E000000000013F
:108A1000E00007F003F818041C0804170807E1D069
:108A200003C0E00023B0003C080020080000100054
:108A300000000000000100003100003200001C00B6
:108A40000000000000000000000000000000000026
:108A50000000000000000000000000000000000016
:108A60000000000000007F0001FFC00780F00C0044
:108A70001810000420000200000000000020000286
:108A80001000040C00180780F001FFC0007F0000F8
:108A900000000000000000000000000000000000D6
:108AA00000004200006600006600003C0000180064
:108AB00003FFC0001800003C0000660000660000D4
:108AC0004200000000000800000800000800000844
:108AD0000000080001FFC0000800000800000800B6
:108AE0000008000008000000000000010000310044
:108AF000003200001C000000000000000000000028
:108B0000000000000000000000000000000008005D
:108B1000000800000800000800000800000800002D
:108B20000800000800000800000800000000000025
:108B3000000000000000380000380000380000008D
:108B40000000000000000000000000000000000025
:108B5000000000000000000600001C000070000182
:108B600080000E0000380000C0000700001C00005C
:108B7000300000000000000000007F8001FFE003E3
:108B8000807006001804000804000806001803801E
:108B90007001FFE0007F8000000000000000000086
:108BA00001000801000801000803FFF807FFF800B2
:108BB000000800000800000800000000000000009D
:108BC0000001C03802C058040098040118040218BB
:108BD000040418061C1803F81801E0F8000000004F
:108BE000000000000001C0E003C0F0040008040819
:108BF0000804080806180803F41801E7F00001E06B
:108C0000000000000000000000000300000D000054
:108C1000110000610000810803010807FFF80FFF41
:108C2000F80001080001080000000000000000E05A
:108C300007FCD006080806100806100806100806EB
:108C40001838060FF00607C0000000000000000002
:108C500000003F8001FFE003843002081804100880
:108C6000041008041008071810030FF00007C000D4
:108C7000000000000000000003C000070000060024
:108C8000000600F80607F806180006E000070000D6
:108C900006000000000000000001E1E003F7F0061C
:108CA0003410041808041808040C08040C080616EC
:108CB0001803F3F001C1E000000000000000F8001C
:108CC00003FC300306380402080402080402080406
:108CD00004100308F001FFC0007F00000000000046
:108CE00000000000000000000000000000007038DC
:108CF0000070380070380000000000000000000024
:108D00000000000000000000000000000000000063
:108D10000000301A00301C000000000000000000BD
:108D2000000000000000000000000000000800003B
:108D30001400002200004100008080010040020079
:108D400020040010080008000000000000002100BE
:108D5000002100002100002100002100002100006E
:108D6000210000210000210000210000000000007F
:108D7000000000000800080400100200200100406C
:108D80000080800041000022000014000008000064
:108D9000000000000003C00004C000040000080040
:108DA00038080F380808380810000C300007E000B9
:108DB00003C000000000000000003F8000FFE0034F
:108DC0008070020F1006708804C088048308047F36
:108DD0008802C09003012000FE4000000800001837
:108DE0000001F8003E0801C20007020007E200008F
:108DF000FE00001FC80001F8000038000008040051
:108E00000807FFF807FFF804080804080804080822
:108E100004080806180803F41801E7F00001E00050
:108E20000000000000003F8001FFE00380700200AE
:108E300018040008040008040008040010060020BC
:108E40000780C000000004000807FFF807FFF804CF
:108E50000008040008040008040018020010038041
:108E60007001FFE0007F8000000004000807FFF8A9
:108E700007FFF804080804080804080804080804A0
:108E80003E0804000806001801006000000004000D
:108E90000807FFF807FFF8040808040800040800A2
:108EA000040800043E0006000006000001800000E7
:108EB0000000000000003F8001FFE003807006001A
:108EC000180400080402080402080203F00783F0F3
:108ED00000020000020004000807FFF807FFF80482
:108EE0000808000800000800000800000800040846
:108EF0000807FFF807FFF804000800000000000062
:108F000004000804000804000807FFF807FFF8043D
:108F10000008040008040008000000000000000031
:108F20000000000600000700000104000104000129
:108F300004000307FFFE07FFFC0400000400000418
:108F4000000004000807FFF807FFF8040C080018E9
:108F500000003E0004C7800503C80600F80400387E
:108F600004001800000804000807FFF807FFF804D1
:108F700000080000080000080000080000080000C9
:108F80000800001800006000000004000807FFF857
:108F900007800807FC00007FC00003F80007C0003E
:108FA000780007800807FFF807FFF80400080400AE
:108FB0000807FFF807000803C00000E000003800C1
:108FC000001E000007000001C00400F007FFF804C5
:108FD0000000000000007F8001FFE00380700600B9
:108FE0001804000804000806001803003001FFE020
:108FF000007F8000000004000807FFF807FFF80466
:109000000408040400040400040400040400060C22
:109010000003F80001F000000000000000007F8065
:1090200001FFE00380700600880400880400C80681
:10903000003C03003E01FFE6007F840000000400C6
:109040000807FFF807FFF8040808040800040C00EC
:10905000040F00040BC00610F003F03801E0080014
:10906000000800000001E0F803F03006301004189A
:1090700008041808040C08040C080206180207F07B
:109080000781E000000001800006000004000004E9
:10909000000004000807FFF807FFF80400080400B8
:1090A0000004000006000001800004000007FFE04B
:1090B00007FFF00400180000080000080000080086
:1090C000000800000804001007FFE004000004008E
:1090D0000006000007E00007FE00041FE00001F8A2
:1090E0000000380001E0043E0007C0000600000454
:1090F000000004000007E00007FFC0041FF800079D
:10910000C007F80007FF80043FF80007C004F8001C
:109110000700000400000000000400080600180713
:10912000C07805F1C8003E00001F800463E8078096
:10913000F806001804000800000004000006000003
:1091400007800007E008047C08001FF80007F8000B
:10915000180804E0080700000600000400000000F2
:10916000000100080600380400F80403E8040F08B2
:10917000047C0805F00807C0080700180400600018
:1091800000000000000000000000000000000000DF
:10919000003FFFFE2000022000022000022000020B
:1091A000200002000000000000000000080000078E
:1091B000000000C0000038000006000001C00000F0
:1091C0003000000E00000100000000000000000060
:1091D0002000022000022000022000022000023FA6
:1091E000FFFE000000000000000000000000000082
:1091F0000000000000000008000010000030000027
:1092000020000030000010000008000000000000F6
:10921000000000000100000100000100000100004A
:109220000100000100000100000100000100000138
:10923000000001000001000000000000000000200C
:1092400000002000001000001000000000000000DE
:10925000000000000000000000000000000000F01E
:109260000019F8001B180022080026080024080036
:109270002410003FF8001FF800000800001800004C
:109280000004000007FFF80FFFF000181800100896
:10929000002008002008003018001FF0000FC00058
:1092A00000000000000007C0001FF0001830002080
:1092B00008002008002008003C08001C1000006086
:1092C0000000000000000000000007C0001FF000C8
:1092D000381800200800200800200804101007FF9C
:1092E000F80FFFF000001000000000000000000078
:1092F0000007C0001FF000123000221800220800F2
:109300002208003208001E10000E2000000000009D
:109310000000200000200800200801FFF803FFF8EB
:10932000062008042008042008072000030000008D
:10933000000000000000000E000E6E001FF3003160
:10934000B10020B10020B1003191001F13002E1E8A
:1093500000200E00300000000004000807FFF80F96
:10936000FFF8001008002000002000002008003F47
:10937000F8001FF8000008000000000000000000D6
:10938000002008002008002008063FF8063FF800EB
:1093900000080000080000080000000000000000B5
:1093A0000000000000000300000300200100200175
:1093B000002003063FFE063FFC0000000000000006
:1093C000000000000004000807FFF80FFFF800018C
:1093D00088000300002FC00038F800203800200863
:1093E0000000080000000000000000000400080465
:1093F000000804000807FFF80FFFF800000800004D
:1094000008000008000000000000002008003FF8ED
:10941000003FF8001008002000003FF8003FF8006F
:109420001008002000003FF8003FF800000800008E
:1094300000002008003FF8003FF80010080010006E
:10944000002000002008003FF8001FF8000008007E
:1094500000000000000007C0000FF00018300030CE
:1094600008002008002008003008001830000FF025
:109470000007C0000000000000002001003FFF00C6
:109480003FFF0010110020090020080020080030D4
:1094900038001FF0000FC00000000000000007C0EF
:1094A000001FF000381800200800200800200900E4
:1094B0001011001FFF003FFF00000100000000200E
:1094C00008002008002008003FF8003FF8000808C6
:1094D00000100800200800200000300000300000CC
:1094E0000000000000000000000C78001E1800338F
:1094F000080023080021080021880021980030F08E
:109500000038600000000000000020000020000083
:10951000200000FFF003FFF80020080020080020D2
:1095200008000030000000000000000000002000E3
:10953000003FF0007FF8000018000008000008005D
:109540002010003FF8007FF0000010000000000035
:1095500000002000003000003C00003F800023F0AD
:10956000000078000070002380003C000030000004
:109570002000002000003C00003FE00023F8000035
:10958000E0002700003E00003FE00021F80001E07D
:10959000003E00002000000000002008002008001D
:1095A0003838003E680027800003C8002CF80038D7
:1095B00038002018002008000000000000002000F3
:1095C000003003003C01003F830023EC00007000EA
:1095D0002380003C0000200000200000000000006C
:1095E000000000000038080020380020F80023E8C0
:1095F000002F88003E080038080020180000700086
:10960000000000000000000000000000000000005A
:10961000000008000014001FF7FC300006200002C4
:10962000000000000000000000000000000000003A
:109630000000000000000000FFFFFF00000000002D
:10964000000000000000000000000000000000001A
:109650002000023000061FF7FC0014000008000084
:1096600000000000000000000000000000000000FA
:1096700000180000600000400000400000200000D2
:109680001000000800000400000400000C0000109E
:1096900000003031323334353637383941424344B3
:1096A000454640305800303132333435363738395A
:1096B0006162636465664030780004000008000061
:1096C0000000000000020001000010000000000087
:1096D000555555555555C53F7D6FEB0312D6D4BF33
:1096E0005544880E55C1C93F3B8F68B52882A4BF39
:1096F00088B20175E0EF493F09F7FD0DE13D023FFA
:109700004B2D8A1C273A03C0C88A599CE52A004081
:1097100059018D1B6C06E6BF82922EB1C5B8B33FCE
:1097200000000000000000004FBB610567ACDD3F9A
:10973000182D4454FB21E93F9BF681D20B73EF3F78
:10974000182D4454FB21F93FE2652F227F2B7A3CF0
:10975000075C143326A6813CBDCBF07A8807703CA9
:10976000075C143326A6913CC4EB98999999C9BF1C
:10977000711623FEC671BCBF6D9A74AFF2B0B3BF51
:109780009AFDDE522DDEADBF2F6C6A2C44B4A2BF11
:109790000D5555555555D53FFF8300922449C23F7D
:1097A0006E204CC5CD45B73F513DD0A0660DB13FB1
:1097B000EB0D76244B7BA93F11DA22E33AAD903FC3
:1097C000000000000000000002400000000000A0B7
:1097D0000000000005400000000000C8000000007C
:1097E0000C4000000000409C0000000019400000F8
:1097F0000020BCBE0000000034400000BFC91B8E2A
:1098000000000004B5400000504BCFD06607E2CF07
:10981000010000006C4100003E8251AADFEEA73437
:1098200001000000D9420000DCB5A0E23A301F97E9
:10983000FFFFFFFFB4450000FD25A0C8E9A3C14F0D
:10984000FFFFFFFFFF3F000000000080000000005E
:10985000FF3F0000000000800000000050726F64B5
:1098600075637420494420726561642061732030FF
:1098700020696E64696361746573206465766963E9
:10988000652069732065697468657220696E636F0D
:109890006D70617469626C65206F7220616E204D1D
:1098A0005055333035302E0A00000000F89900087A
:1098B000000000206C00000028010008649A0008E5
:1098C0006C000020C40B0000440100081C000000D4
:1098D00043000000F8FFFFFF0C0000000E00000036
:1098E0000F0000002E0000001001000043000000E7
:1098F000F8FFFFFF004040404040404040404141B1
:109900004141414040404040404040404040404054
:1099100040404040400502020202020202020202EE
:1099200002020202022020202020202020202002EB
:10993000020202020202909090909090101010107B
:109940001010101010101010101010101010101017
:1099500002020202020288888888888808080808AB
:109960000808080808080808080808080808080877
:10997000020202024000000000000000000000009F
:1099800000000000000000000000000000000000D7
:1099900000000000000000000000000000000000C7
:1099A00000000000000000000000000000000000B7
:1099B00000000000000000000000000000000000A7
:1099C0000000000000000000000000000000000097
:1099D0000000000000000000000000000000000087
:1099E0000000000000000000000000000000000077
:1099F000000000000000000000A24A040000000077
:109A00000000000001020304060708098C72000828
:109A1000A872000800000000000000000000000024
:109A20000000000000000000000000000000000036
:109A300000000000B47200080100000001000000F6
:109A40000100000000000000000000000000000015
:109A500000000102030401020304060708090204CE
:049A600006080000F4
:0400000508000235B8
:00000001FF
