:020000040800F2
:10000000F80E0020C9010008050400089D0300083F
:100010000104000879020008870F000800000000B2
:10002000000000000000000000000000850500083E
:100030007D020008000000008D040008D90C0008B3
:10004000E3010008E3010008E3010008E301000800
:10005000E3010008E3010008E3010008E3010008F0
:10006000E3010008E3010008E3010008E3010008E0
:10007000E3010008E3010008E3010008E3010008D0
:10008000E3010008E3010008E3010008E3010008C0
:10009000E3010008E3010008E3010008E3010008B0
:1000A000E3010008E3010008E3010008E3010008A0
:1000B0003D0D0008E3010008E3010008E30100082A
:1000C000E3010008E3010008E3010008E301000880
:1000D000E3010008550D0008DD0D0008E3010008EC
:1000E000E3010008E3010008E301000800F002F862
:1000F00000F05AF80AA090E8000C82448344AAF168
:100100000107DA4501D100F04FF8AFF2090EBAE865
:100110000F0013F0010F18BFFB1A43F0010318473B
:1001200060280000802800000A444FF0000C10F8FE
:10013000013B13F0070408BF10F8014B1D1108BF65
:1001400010F8015B641E05D010F8016B641E01F805
:10015000016BF9D113F0080F1EBF10F8014BAD1C55
:100160000C1B09D16D1E58BF01F801CBFAD505E073
:1001700014F8016B01F8016B6D1EF9D59142D6D3CD
:10018000704700000023002400250026103A28BFF5
:1001900078C1FBD8520728BF30C148BF0B607047F9
:1001A0001FB51FBD10B510BD00F033F81146FFF7A5
:1001B000F7FF00F035FF00F051F803B4FFF7F2FF4E
:1001C00003BC00F0E2FE00000948804709480047F0
:1001D000FEE7FEE7FEE7FEE7FEE7FEE7FEE7FEE7F7
:1001E000FEE7FEE704480549054A064B7047000054
:1001F000DD0C0008ED000008F8080020F80E0020D3
:10020000F80A0020F80A00207047704770477047CE
:100210007047754600F02CF8AE4605006946534617
:1002200020F00700854618B020B5FFF7DBFFBDE8DA
:1002300020404FF000064FF000074FF000084FF04D
:10024000000B21F00701AC46ACE8C009ACE8C009DE
:10025000ACE8C009ACE8C0098D46704710B504464B
:10026000AFF300802046BDE81040FFF7A6BF0000B6
:10027000004870479408002000BFFEE770472DE952
:10028000F04102460025002600200023002400271C
:1002900091F803C00CF00F0591F803C00CF0100C9E
:1002A000BCF1000F03D091F802C04CEA050591F8AB
:1002B00000C0BCF1000F31D0146800202BE04FF0DB
:1002C000010C0CFA00F3B1F800C00CEA03069E42E0
:1002D00020D183004FF00F0C0CFA03F7BC4305FA52
:1002E00003FC4CEA040491F803C0BCF1280F06D1CA
:1002F0004FF0010C0CFA00FCC2F814C00AE091F8AF
:1003000003C0BCF1480F05D14FF0010C0CFA00FC02
:10031000C2F810C0401C0828D1D31460B1F800C046
:10032000BCF1FF0F34DD546800202EE000F1080C12
:100330004FF0010808FA0CF3B1F800C00CEA03060C
:100340009E4221D183004FF00F0C0CFA03F7BC43FF
:1003500005FA03FC4CEA040491F803C0BCF1280F31
:1003600005D100F1080C08FA0CF8C2F8148091F8D5
:1003700003C0BCF1480F07D100F1080C4FF0010891
:1003800008FA0CF8C2F81080401C0828CED354603C
:10039000BDE8F081416170470161704700BFFEE731
:1003A00010B5002006490860C82000F013FE0120A7
:1003B0000449C1F8B401C82000F00CFE10BD0000D3
:1003C000B40122420000224208B50121102000F0B1
:1003D0005FF84FF40050ADF8000010208DF80300D6
:1003E00003208DF8020069460448FFF748FF4FF4E8
:1003F00000510248FFF7D0FF08BD00000010014087
:1004000000BFFEE77047000070B5002100230F22F7
:10041000C47804B3154C246804F4E064C4F5E064C3
:10042000210AC1F10403CA40447804FA03F1847834
:100430001440214309010E4C0678A155047804F0BC
:100440001F050124AC4005786D11AD0005F1E025D4
:10045000C5F8004109E0047804F01F050124AC4010
:10046000044D0678761145F8264070BD0CED00E08D
:1004700000E400E080E100E002490143024A11602B
:10048000704700000000FA050CED00E07047000026
:1004900029B1064A92690243044B9A6104E0034A77
:1004A00092698243014B9A6170470000001002403C
:1004B00030B500210022002400232D4D6D6805F089
:1004C0000C0121B1042905D0082923D105E0294DCB
:1004D000056022E0274D05601FE0254D6D6805F49D
:1004E0007012234D6D6805F48034022505EB9242AD
:1004F0001CB9214D554305600BE01D4D6D6805F499
:1005000000351DB11C4D5543056002E0194D5543A2
:10051000056002E0174D056000BF00BF144D6D6817
:1005200005F0F0010909154D6B5C0568DD4045607B
:100530000F4D6D6805F4E061090A104D6B5C45686C
:10054000DD4085600A4D6D6805F46051C90A0B4DA8
:100550006B5C4568DD40C560054D6D6805F4404144
:10056000890B074D6B5CC568B5FBF3F5056130BDC4
:100570000010024000127A0000093D00DE02002057
:10058000EE020020704770B5064600240DE00025FD
:1005900007E0002106F10C0000EBC5000155681CC6
:1005A000C5B2802DF5DB601CC4B2082CEFDB3046F1
:1005B00000F05AF970BDF0B51446D71702EB577723
:1005C000C7F3C703D71702EB5777FF10A2EBC70794
:1005D000FDB20124AC40E6B200F10C0404EBC1040E
:1005E000E45CE443E7B200F10C0404EBC104E7541B
:1005F00000F10C0404EBC104E45C344300F10C078B
:1006000007EBC107FC5400F10C0404EBC104E45CEB
:10061000E443E7B200F10C0404EBC104E754F0BD7D
:10062000F0B51346D71702EB5777C7F3C704D717B0
:1006300002EB5777FF10A2EBC707FDB20123AB40D7
:10064000DEB200F10C0303EBC1031B5D334300F189
:100650000C0707EBC1073B55F0BD10B504462188D8
:100660006068FFF799FE6188A068FFF795FE218812
:100670006068FFF78FFE6188A068FFF78BFE10BDF2
:1006800010B504466188A068FFF786FE218860687F
:10069000FFF780FE21886068FFF77EFE10BD10B571
:1006A00004466188A068FFF777FE6188A068FFF7BD
:1006B00071FE10BD2DE9F84304460D4617461E464F
:1006C000DDF82080012000FA08F020800120B840E9
:1006D0006080A6F14100634901EB80206060A5F1D4
:1006E000410001EB8020A060A6F14101042202FA42
:1006F00001F00121FFF7CCFEA5F14101042202FA2D
:1007000001F00121FFF7C4FE03208DF80200102044
:100710008DF803002088ADF8000069466068FFF797
:10072000AEFD21886068FFF737FE6088ADF80000F5
:100730006946A068FFF7A3FD6188A068FFF72CFE5B
:100740000022AE21204600F0E6F9002211462046A4
:1007500000F0E1F900221021204600F0DCF900222F
:100760004021204600F0D7F900228121204600F0E8
:10077000D2F90022CF21204600F0CDF90022A1219C
:10078000204600F0C8F90022C821204600F0C3F935
:100790000022A621204600F0BEF90022A821204612
:1007A00000F0B9F900223F21204600F0B4F9002200
:1007B000D321204600F0AFF900221146204600F078
:1007C000AAF90022D521204600F0A5F900228021B7
:1007D000204600F0A0F90022D921204600F09BF924
:1007E0000022F121204600F096F90022DA2120466D
:1007F00000F091F900221221204600F08CF900222D
:10080000DB21204600F087F900224021204600F03D
:1008100082F900222021204600F07DF900220221E9
:10082000204600F078F900228D21204600F073F96F
:1008300000221421204600F06EF90022A421204657
:1008400000F069F90022A621204600F064F9002298
:10085000AF21204600F05FF92046FFF794FEBDE887
:10086000F88300000008014070B50646002421E02E
:1008700004F1B000C1B20022304600F04CF9002271
:100880001146304600F047F900221021304600F0B2
:1008900042F900250AE006F10C0000EBC500015DFD
:1008A0000122304600F037F9681CC5B2802DF2DB1A
:1008B000601CC4B2082CDBDB70BD70B504460D466D
:1008C00000261BE06188A068FFF764FD05F080004A
:1008D00020B121886068FFF75FFD03E02188606830
:1008E000FFF758FD6188A068FFF756FD6188A06892
:1008F000FFF750FD6806050E701CC6B2082EE1DB3E
:1009000070BD00002DE9FF4F81B0884616460E9C51
:10091000B3462046E31704EB5373DB1021464FEA3E
:10092000E47C04EB5C7C4FEAEC0CA4EBCC0CBCF15B
:10093000000F02D04FF0010C01E04FF0000C6344B7
:10094000224604EBD27C4FEA6C0C03FB0CF303F061
:10095000FF0A04982038C7B2002549E00C2C07D1C3
:1009600007EB4700244901EB800010F8059014E0E4
:10097000102C05D1214800EB071010F805900CE071
:10098000182C07D107EBC7001D4901EB800010F8B8
:10099000059002E005B0BDE8F08F0020009021E056
:1009A00009F0800028B1324641460198FFF738FE31
:1009B00004E0324641460198FFF7FDFD4FEA4960E9
:1009C0004FEA1069701CC6B2A6EB0B00A04205D11D
:1009D0005E4608F1010000F0FF0806E00098401CA8
:1009E000C0B2009000980828DADB00BF681CC5B2CE
:1009F0005545B3DB00BFCDE7C01100083416000831
:100A0000241C00082DE9FF4F85B00D461646984678
:100A1000129C4FF00009AB4602962046E11704EB0A
:100A20005171C1F3C701019146E008FB04F0C11701
:100A300000EB517109EBE101C9B2039109F1010029
:100A400000F0FF09002735E0102C06D11E4903985D
:100A500001EB401010F817A002E009B0BDE8F08FDC
:100A60000020049015E00AF0010028B13246294622
:100A70000598FFF7D5FD04E0324629460598FFF7B3
:100A80009AFD4FEA6A0A701CC6B20498401CC0B2B4
:100A9000049004980828E6DB681CC5B2A5EB0B009F
:100AA000A04204D15D4602980830C0B20290029E76
:100AB000781CC7B2A742C7DB0198411EC9B2019199
:100AC0000028B2D100BFC8E7000000202DE9F8419E
:100AD00080460E4617461C46079D14E00095237875
:100AE0003A4631464046FFF70DFF284605EBD071E8
:100AF00006EB6101CEB2C5F18000B04202DA0026F9
:100B0000B81CC7B2641C2078202802DB20787E281D
:100B1000E4DDBDE8F88170B505460E46144628466A
:100B2000FFF79BFD78212846FFF7C7FE2846FFF711
:100B3000B6FD24B140212846FFF7BFFE03E00021A7
:100B40002846FFF7BAFE2846FFF7A9FD314628469A
:100B5000FFF7B3FE2846FFF7A2FD2846FFF790FDFA
:100B600070BD70B5044640F22551206800F04AF986
:100B700040B3206800F002FAC5B20D2D03D1012068
:100B8000A4F8460015E00A2D07D1B4F84600012864
:100B900003D10220A4F846000BE00020A4F8460090
:100BA000B4F84810201D4554B4F84800401CA4F87F
:100BB0004800B4F84800402804DD0020A4F84800AC
:100BC000A4F8460070BD10B500F002F810BD00009A
:100BD0000CB50020019000903348006840F480304C
:100BE0003149086000BF3048006800F400300090D0
:100BF0000198401C0190009818B90198B0F5A06FB9
:100C0000F1D12948006800F4003010B101200090B3
:100C100001E0002000900098012843D1234800689B
:100C200040F01000214908600846006820F00300E9
:100C300008600846006840F0020008601A484068F2
:100C4000194948600846406848600846406840F4D2
:100C5000806048600846406820F47C104860084680
:100C6000406840F4E81048600846006840F0807032
:100C7000086000BF0C48006800F000700028F9D040
:100C80000948406820F0030007494860084640686A
:100C900040F00200486000BF0348406800F00C00CC
:100CA0000828F9D10CBD00000010024000200240CD
:100CB000042808D14FF0E021096941F004014FF008
:100CC000E022116107E04FF0E021096921F0040101
:100CD0004FF0E022116170477047000010B51348D3
:100CE000006840F00100114908600846406810495A
:100CF00008400E494860084600680E4908400B4904
:100D000008600846006820F48020086008464068B3
:100D100020F4FE0048604FF41F008860FFF753FF87
:100D20004FF000600449086010BD00000010024050
:100D30000000FFF8FFFFF6FE08ED00E04FF08040F6
:100D4000008A4FF08040008A20F001004FF080417F
:100D50000882704710B540F225511D4800F052F846
:100D600010B31B4800F00AF9C4B21A48008800F416
:100D70000040C8B91748008800F4804060B10A2CD0
:100D800003D000201349088020E01248008840F476
:100D900000401049088019E00D2C06D10D4800884C
:100DA00040F480400B49088010E00A480088C0F3F6
:100DB0000D0009490C5407480088401C054908806B
:100DC00008460088C72801DD0020088010BD00000B
:100DD00000380140DC020020CC07002010B502489A
:100DE000FFF7BFFE10BD00008007002021B18289FF
:100DF00042F40052828104E082894DF6FF731A406A
:100E00008281704770B5024600240023002500202F
:100E100040F66A16B14200D100BFC1F3421501F09D
:100E20001F03012606FA03F3012D02D196893340F0
:100E300006E0022D02D1168A334001E0968A334043
:100E40000C12012606FA04F41688344013B10CB1D2
:100E5000012000E0002070BDF0B50346002400260C
:100E60000025002040F66A17B94200D100BF18469D
:100E7000C1F3421401F01F06012707FA06F5012C01
:100E800001D10C3004E0022C01D1103000E014300C
:100E90001AB107682F43076002E00768AF43076095
:100EA000F0BD00002DE9F04786B005460E4600244F
:100EB000A24600BFA1460027B08900B100BF2F465F
:100EC0002C8A4CF6FF700440F08804432C82AC89D5
:100ED0004EF6F3100440B088318908437189084305
:100EE0000443AC81AC8A4FF6FF400440B089044310
:100EF000AC8201A8FFF7DCFA1F48874202D1DDF877
:100F000010A001E0DDF80CA0A88900F4004040B179
:100F10000AEBCA0000EB0A1031684900B0FBF1F897
:100F200007E00AEBCA0000EB0A1031688900B0FB49
:100F3000F1F86420B8FBF0F004012009642101FB02
:100F40001089A88900F4004040B1322000EBC900AC
:100F5000B0FBF1F000F00700044308E0322000EBA2
:100F600009106421B0FBF1F000F00F0004432C8164
:100F700006B0BDE8F08700000038014001468888CF
:100F8000C0F30800704700BFFEE7014600BF70478E
:100F900010B56FF00400FFF78BFE0A4800680A499D
:100FA000B0FBF1F0094908700846007800EB4001F9
:100FB000C1EBC0104FF6FF7101EAC0000449088080
:100FC00010BD0000C002002000127A00D4020020F0
:100FD000D60200200146114A12884A434FF0E0230E
:100FE0005A6100229A611A46126942F001021A619E
:100FF00000BF4FF0E022106900F001021AB100F4C6
:101000008032002AF5D04FF0E022126922F001026E
:101010004FF0E0231A6100229A617047D602002047
:1010200008B5FFF7B5FF4FF4A060FFF725FA4FF4BE
:10103000E13000F075F8FFF7C7F90C2041230B22CF
:10104000194600903048FFF735FB10202FA30022EF
:10105000014600902C48FFF739FD10202FA31C22D9
:10106000014600902848FFF731FD102000231C2284
:10107000282100902448FFF7C5FC102001231C22E2
:10108000382100902048FFF7BDFC102002231C22CD
:10109000482100901C48FFF7B5FC102003231C22B8
:1010A000582100901848FFF7ADFC102004231C22A3
:1010B000682100901448FFF7A5FC1020052330227A
:1010C000202100901048FFF79DFC102006233022BD
:1010D000114600900C48FFF795FC102007233022A2
:1010E000402100900848FFF78DFC10200823302293
:1010F000502100900448FFF785FC0348FFF7B4FB3C
:1011000001E0FFF74DF9FCE7F402002043562D33D0
:1011100020556E69636F726E000000004D4F5300E2
:1011200010B586B00446012144F20400FFF7B0F97F
:101130004FF40070ADF8140003208DF8160018204D
:101140008DF8170005A91C48FFF799F84FF4806047
:10115000ADF8140004208DF8170005A91648FFF714
:101160008EF825208DF8000003208DF801008DF801
:10117000020001208DF803006846FFF745F901944D
:101180000020ADF80800ADF80A00ADF80C00ADF88D
:1011900010000C20ADF80E0001A90848FFF782FEF0
:1011A000012240F225510548FFF756FE0121034870
:1011B000FFF71CFE06B010BD0008014000380140DA
:1011C000000000000000000000000000000000001F
:1011D0003F400000000000000000300040003000F0
:1011E0004000000009000BC03D000BC03D0009009D
:1011F00018C024407FE0224031800000180024C045
:101200001B000D803240018003801C4027401C8061
:1012100007400040100060000000000000000000D7
:101220000000000000001F802040402000004020FF
:1012300020401F8000000000090006001F800600FB
:1012400009000000040004003F80040004000000C6
:101250000010006000000000000000000400040016
:101260000400040004000000000000400000000032
:1012700000000000002001C006003800400000000F
:101280001F802040204020401F80000000001040B0
:101290003FC000400000000018C021402240244010
:1012A0001840000010802040244024401B80000093
:1012B00002000D0011003FC0014000003C802440AE
:1012C00024402440238000001F80244024403440D8
:1012D000038000003000200027C0380020000000FC
:1012E0001B802440244024401B8000001C0022C09E
:1012F000224022401F800000000000000840000043
:101300000000000000000000046000000000000079
:10131000000004000A00110020804040090009007C
:101320000900090009000000000040402080110071
:101330000A000400180020002340240018000000C8
:101340001F802040274029401F400000004007C068
:1013500039000F0001C0004020403FC0244024401D
:101360001B8000001F802040204020403080000073
:1013700020403FC0204020401F80000020403FC050
:1013800024402E4030C0000020403FC024402E00AA
:10139000300000000F001080204022403380020007
:1013A00020403FC0040004003FC0204020402040B7
:1013B0003FC02040204000000060202020203FC08F
:1013C0002000200020403FC024400B0030C02040BF
:1013D00020403FC020400040004000C03FC03C00D3
:1013E00003C03C003FC0000020403FC00C40230031
:1013F0003FC020001F802040204020401F80000070
:1014000020403FC024402400180000001F802140DD
:10141000214020E01FA0000020403FC024402600C3
:1014200019C0004018C024402440224031800000F0
:10143000300020403FC020403000000020003F80AE
:10144000004000403F80200020003E0001C0070017
:1014500038002000380007C03C0007C038000000FA
:10146000204039C0060039C020400000200038402C
:1014700007C0384020000000304021C026403840DE
:1014800020C00000000000007FE04020402000005D
:10149000000070000C0003800040000000004020AD
:1014A00040207FE0000000000000200040002000FD
:1014B00000000000001000100010001000100010CC
:1014C000000000004000000000000000000002805A
:1014D0000540054003C0004020003FC004400440D8
:1014E0000380000000000380044004400640000028
:1014F00000000380044024403FC0004000000380FF
:101500000540054003400000000004401FC0244087
:1015100024402000000002E0055005500650042041
:1015200020403FC00440040003C0004000000440CD
:1015300027C000400000000000100010041027E049
:101540000000000020403FC00140070004C00440EC
:10155000204020403FC000400040000007C0040081
:1015600007C0040003C00000044007C0044004009A
:1015700003C00040000003800440044003800000DA
:10158000041007F0045004400380000000000380B2
:101590000440045007F00010044007C0024004005B
:1015A00004000000000006400540054004C00000A3
:1015B000000004001F800440004000000400078079
:1015C0000040044007C000400400070004C0018040
:1015D00006000400060001C0070001C0060000006C
:1015E000044006C0010006C00440000004100710BB
:1015F00004E00180060004000000044005C006402D
:10160000044000000000000004007BE040200000D7
:10161000000000000000FFF000000000000040207B
:101620007BE004000000000040008000400020003B
:10163000200040000000000000000000000000004A
:10164000000000000000000000001FCC000C0000A3
:1016500000000000000008003000600008003000BA
:1016600060000000022003FC1E20022003FC1E205C
:101670000220000000000E1811043FFF10840C78B7
:10168000000000000F0010840F3800C00778188495
:101690000078000000780F8410C411240E9800E434
:1016A00000840008080068007000000000000000CE
:1016B0000000000000000000000007E018182004EF
:1016C00040020000000040022004181807E000005B
:1016D000000000000240024001800FF00180024043
:1016E000024000000080008000800FF80080008031
:1016F000008000000001000D000E0000000000004E
:101700000000000000000080008000800080008059
:10171000008000800000000C000C000000000000B1
:1017200000000000000000060018006001800600B4
:1017300018002000000007F0080810041004080832
:1017400007F000000000080408041FFC0004000467
:101750000000000000000E0C10141024104411842E
:101760000E0C000000000C18100411041104128863
:101770000C700000000000E00320042408241FFC7B
:101780000024000000001F98108411041104108828
:1017900010700000000007F0088811041104188878
:1017A0000070000000001C00100010FC13001C0062
:1017B0001000000000000E38114410841084114401
:1017C0000E38000000000700088C10441044088800
:1017D00007F00000000000000000030C030C0000F4
:1017E00000000000000000000001010600000000F1
:1017F00000000000000000800140022004100808E2
:1018000010040000022002200220022002200220F8
:10181000022000000000100408080410022001400B
:101820000080000000000E001200100C106C1080F0
:101830000F00000003E00C1813E4142417C4082858
:1018400007D000000004003C03C41C40074000E433
:10185000001C000410041FFC1104110411040E8864
:101860000070000003E00C181004100410041008AD
:101870001C10000010041FFC1004100410040808C1
:1018800007F0000010041FFC1104110417C4100419
:101890000818000010041FFC1104110017C01000EC
:1018A0000800000003E00C181004100410441C7819
:1018B0000040000010041FFC108400800080108491
:1018C0001FFC10040000100410041FFC100410047E
:1018D0000000000000030001100110011FFE1000B5
:1018E0001000000010041FFC110403801464181C75
:1018F0001004000010041FFC100400040004000485
:10190000000C000010041FFC1F0000FC1F001FFC47
:101910001004000010041FFC0C04030000E0101869
:101920001FFC100007F00808100410041004080839
:1019300007F0000010041FFC10841080108010803D
:101940000F00000007F0081810241024101C080ACB
:1019500007F2000010041FFC1104110011C0113027
:101960000E0C000400000E1C11041084108410449E
:101970001C3800001800100010041FFC1004100098
:101980001800000010001FF81004000400041004E8
:101990001FF8100010001E0011E0001C00701380E2
:1019A0001C0010001FC0103C00E01F0000E0103CB5
:1019B0001FC000001004180C163401C001C01634FA
:1019C000180C100410001C00130400FC13041C006D
:1019D000100000000804101C1064108413041C0480
:1019E000101800000000000000007FFE40024002CE
:1019F00040020000000030000C0003800060001C6A
:101A00000003000000004002400240027FFE000090
:101A100000000000000000002000400040004000E6
:101A20002000000000010001000100010001000190
:101A30000001000100004000400020000000000004
:101A4000000000000000009801240144014401440A
:101A500000FC000410001FFC008801040104008841
:101A600000700000000000700088010401040104FF
:101A700000880000000000700088010401041108C3
:101A80001FFC0004000000F801440144014401442B
:101A900000C800000000010401040FFC110411043F
:101AA00011001800000000D601290129012901C9EF
:101AB0000106000010041FFC008401000100010465
:101AC00000FC000400000104190419FC00040004D7
:101AD000000000000000000300010101190119FECF
:101AE0000000000010041FFC0024004001B4010CA1
:101AF000010400000000100410041FFC0004000496
:101B000000000000010401FC0104010001FC0104CB
:101B1000010000FC010401FC00840100010001043B
:101B200000FC0004000000F80104010401040104A9
:101B300000F80000010101FF008501040104008894
:101B4000007000000000007000880104010401051D
:101B500001FF00010104010401FC008401040100F3
:101B600001800000000000CC012401240124012494
:101B70000198000000000100010007F801040104C1
:101B800000000000010001F8000400040004010846
:101B900001FC0004010001800170000C00100160D4
:101BA0000180010001F0010C003001C00030010C87
:101BB00001F0010000000104018C00740170018C2F
:101BC00001040000010101810171000E0018016093
:101BD0000180010000000184010C013401440184F2
:101BE000010C0000000000000000000001003EFCAD
:101BF000400240020000000000000000FFFF000063
:101C0000000000000000400240023EFC0100000015
:101C100000000000000060008000800040004000E4
:101C20002000200000000000000000000000000074
:101C300000000000000000000000000000000000A4
:101C40000000000000000000000000000000000094
:101C5000000000000000000F80380FFE380F8038B1
:101C60000000000000000000000000000000000074
:101C700000000100000600000C00003800003100E8
:101C8000000600000C0000380000300000000000DA
:101C90000000000061800067F807F98000618000A3
:101CA00061800061800061800067F807F980006151
:101CB0008000000000000000000001C0E003E0F030
:101CC0000630080418081FFFFE040E080787F003FB
:101CD00081E000000000000001F000060C00040498
:101CE00008060C7001F9C0000E00003BE000EC1883
:101CF000070808040C180003E00000000001E000E1
:101D000007F003F818041C0804170807E1D003C003
:101D1000E00023B0003C0800200800001000000094
:101D20000000000100003100003200001C00000033
:101D300000000000000000000000000000000000A3
:101D40000000000000000000000000000000000093
:101D5000000000007F0001FFC00780F00C00181099
:101D6000000420000200000000000020000210001B
:101D7000040C00180780F001FFC0007F0000000085
:101D80000000000000000000000000000000000053
:101D90004200006600006600003C0000180003FFDF
:101DA000C0001800003C0000660000660000420011
:101DB0000000000008000008000008000008000003
:101DC000080001FFC000080000080000080000082B
:101DD0000000080000000000000100003100003297
:101DE00000001C00000000000000000000000000D7
:101DF00000000000000000000000000008000008D3
:101E000000000800000800000800000800000800AA
:101E100000080000080000080000000000000000AA
:101E2000000000003800003800003800000000000A
:101E300000000000000000000000000000000000A2
:101E400000000000000600001C000070000180007F
:101E50000E0000380000C0000700001C0000300029
:101E600000000000000000007F8001FFE0038070A0
:101E7000060018040008040008060018038070011A
:101E8000FFE0007F80000000000000000000010073
:101E90000801000801000803FFF807FFF800000828
:101EA0000000080000080000000000000000000121
:101EB000C03802C058040098040118040218040431
:101EC00018061C1803F81801E0F8000000000000D4
:101ED00000000001C0E003C0F0040008040808048A
:101EE000080806180803F41801E7F00001E00000F4
:101EF00000000000000000000300000D00001100C1
:101F000000610000810803010807FFF80FFFF800D7
:101F100001080001080000000000000000E007FCCC
:101F2000D00608080610080610080610080618381B
:101F3000060FF00607C000000000000000000000CF
:101F40003F8001FFE00384300208180410080410E9
:101F500008041008071810030FF00007C000000065
:101F600000000000000003C000070000060000069B
:101F700000F80607F806180006E000070000060053
:101F80000000000000000001E1E003F7F00634105B
:101F9000041808041808040C08040C080616180392
:101FA000F3F001C1E000000000000000F80003FCB5
:101FB000300306380402080402080402080404106E
:101FC0000308F001FFC0007F0000000000000000D7
:101FD00000000000000000000000000070380070E9
:101FE0003800703800000000000000000000000011
:101FF00000000000000000000000000000000000E1
:10200000301A00301C00000000000000000000003A
:1020100000000000000000000000000800001400A4
:1020200000220000410000808001004002002004E6
:10203000001008000800000000000000210000213E
:1020400000002100002100002100002100002100EB
:10205000002100002100002100000000000000001D
:102060000000080008040010020020010040008069
:102070008000410000220000140000080000000061
:1020800000000003C00004C000040000080038087D
:102090000F380808380810000C300007E00003C0B3
:1020A00000000000000000003F8000FFE00380709F
:1020B000020F1006708804C088048308047F880219
:1020C000C09003012000FE4000000800001800013D
:1020D000F8003E0801C20007020007E20000FE000F
:1020E000001FC80001F800003800000804000807BD
:1020F000FFF807FFF80408080408080408080408A3
:102100000806180803F41801E7F00001E0000000D9
:10211000000000003F8001FFE0038070020018040F
:1021200000080400080400080400100600200780CE
:10213000C000000004000807FFF807FFF8040008CB
:102140000400080400080400180200100380700155
:10215000FFE0007F8000000004000807FFF807FF91
:10216000F8040808040808040808040808043E08DD
:1021700004000806001801006000000004000807C1
:10218000FFF807FFF8040808040800040800040822
:1021900000043E0006000006000001800000000070
:1021A000000000003F8001FFE0038070060018047B
:1021B00000080402080402080203F00783F000028A
:1021C0000000020004000807FFF807FFF8040808F1
:1021D00000080000080000080000080004080807C4
:1021E000FFF807FFF80400080000000000000400EA
:1021F0000804000804000807FFF807FFF8040008B7
:1022000004000804000800000000000000000000B6
:1022100000060000070000010400010400010400A2
:102220000307FFFE07FFFC04000004000004000099
:1022300004000807FFF807FFF8040C080018000066
:102240003E0004C7800503C80600F80400380400F7
:102250001800000804000807FFF807FFF80400084A
:102260000000080000080000080000080000080046
:10227000001800006000000004000807FFF8078055
:102280000807FC00007FC00003F80007C0007800CA
:1022900007800807FFF807FFF80400080400080794
:1022A000FFF807000803C00000E000003800001E2F
:1022B000000007000001C00400F007FFF804000060
:1022C000000000007F8001FFE0038070060018041A
:1022D000000804000806001803003001FFE0007F3A
:1022E0008000000004000807FFF807FFF804040856
:1022F000040400040400040400040400060C0003A9
:10230000F80001F000000000000000007F8001FFE5
:10231000E00380700600880400880400C806003CC2
:1023200003003E01FFE6007F840000000400080770
:10233000FFF807FFF8040808040800040C00040F65
:1023400000040BC00610F003F03801E0080000089C
:1023500000000001E0F803F0300630100418080413
:102360001808040C08040C080206180207F007817C
:10237000E0000000018000060000040000040000EE
:1023800004000807FFF807FFF80400080400000431
:10239000000006000001800004000007FFE007FFC6
:1023A000F004001800000800000800000800000801
:1023B00000000804001007FFE0040000040000060D
:1023C000000007E00007FE00041FE00001F8000025
:1023D000380001E0043E0007C000060000040000D1
:1023E00004000007E00007FFC0041FF80007C00753
:1023F000F80007FF80043FF80007C004F80007005A
:102400000004000000000004000806001807C0785F
:1024100005F1C8003E00001F800463E80780F8064D
:1024200000180400080000000400000600000780F7
:102430000007E008047C08001FF80007F8001808EF
:1024400004E008070000060000040000000000018E
:1024500000080600380400F80403E8040F08047CB0
:102460000805F00807C00807001804006000000015
:102470000000000000000000000000000000003F1D
:10248000FFFE2000022000022000022000022000A7
:10249000020000000000000000000800000700002B
:1024A00000C0000038000006000001C0000030003D
:1024B000000E0000010000000000000000002000ED
:1024C000022000022000022000022000023FFFFE46
:1024D00000000000000000000000000000000000FC
:1024E0000000000000080000100000300000200084
:1024F0000030000010000008000000000000000094
:1025000000000100000100000100000100000100C6
:1025100000010000010000010000010000010000B6
:102520000100000100000000000000000020000089
:10253000200000100000100000000000000000005B
:1025400000000000000000000000000000F0001982
:10255000F8001B1800220800260800240800241098
:10256000003FF8001FF800000800001800000004F9
:10257000000007FFF80FFFF00018180010080020F7
:1025800008002008003018001FF0000FC0000000F5
:102590000000000007C0001FF000183000200800F5
:1025A0002008002008003C08001C1000006000000B
:1025B000000000000000000007C0001FF0003818F5
:1025C00000200800200800200804101007FFF80F62
:1025D000FFF00000100000000000000000000007F5
:1025E000C0001FF00012300022180022080022084C
:1025F000003208001E10000E200000000000000045
:10260000200000200800200801FFF803FFF8062042
:102610000804200804200807200003000000000030
:1026200000000000000E000E6E001FF30031B1002C
:1026300020B10020B1003191001F13002E1E002098
:102640000E00300000000004000807FFF80FFFF83C
:10265000001008002000002000002008003FF800C3
:102660001FF800000800000000000000000000202B
:1026700008002008002008063FF8063FF800000880
:10268000000008000008000000000000000000003A
:1026900000000000030000030020010020010020D2
:1026A00003063FFE063FFC000000000000000000A3
:1026B00000000004000807FFF80FFFF80001880081
:1026C0000300002FC00038F8002038002008000068
:1026D00008000000000000000000040008040008DA
:1026E00004000807FFF80FFFF800000800000800CA
:1026F0000008000000000000002008003FF8003F34
:10270000F8001008002000003FF8003FF800100813
:10271000002000003FF8003FF80000080000000023
:102720002008003FF8003FF80010080010000020CB
:1027300000002008003FF8001FF80000080000001B
:102740000000000007C0000FF00018300030080043
:102750002008002008003008001830000FF00007A3
:10276000C0000000000000002001003FFF003FFF0C
:102770000010110020090020080020080030380057
:102780001FF0000FC00000000000000007C0001F85
:10279000F00038180020080020080020090010115F
:1027A000001FFF003FFF00000100000000200800A4
:1027B0002008002008003FF8003FF800080800103B
:1027C0000800200800200000300000300000000059
:1027D000000000000000000C78001E180033080004
:1027E00023080021080021880021980030F00038DB
:1027F0006000000000000000200000200000200019
:1028000000FFF003FFF80020080020080020080067
:102810000030000000000000000000002000003F29
:10282000F0007FF8000018000008000008002010E9
:10283000003FF8007FF000001000000000000000E2
:102840002000003000003C00003F800023F000002A
:1028500078000070002380003C0000300000200061
:10286000002000003C00003FE00023F80000E000F2
:102870002700003E00003FE00021F80001E0003E9C
:102880000000200000000000200800200800383868
:10289000003E680027800003C8002CF8003838008C
:1028A0002018002008000000000000002000003078
:1028B00003003C01003F830023EC000070002380F4
:1028C000003C00002000002000000000000000008C
:1028D00000000038080020380020F80023E8002F0E
:1028E00088003E0800380800201800007000000032
:1028F00000000000000000000000000000000000D8
:1029000008000014001FF7FC300006200002000041
:1029100000000000000000000000000000000000B7
:10292000000000000000FFFFFF00000000000000AA
:102930000000000000000000000000000000200077
:10294000023000061FF7FC00140000080000000021
:10295000000000000000000000000000000000185F
:102960000000600000400000400000200000100057
:10297000000800000400000400000C00001000002B
:10298000A029000800000020F4020000280100082F
:102990000C2B0008F4020020040C00008401000845
:1029A0004112FE124A1AAA06129A12EA1A830A3A27
:1029B0009A0C122A3242128012601A9F061A4F2471
:1029C000122A121A126F1ABA2212BA1AEF1432C04D
:1029D0001A102012023A8C0A49027AFF0A411A049C
:1029E00002127E1201124112E11251124912451ACD
:1029F000430C125112611AC116211A4002124232BE
:102A0000CC122812261A24023A3F06122472201AE7
:102A1000400A1A1F0412401A5F4069023A5F3A29BD
:102A2000A0128012FC129612E51A84081A80141A59
:102A30003E901A027469201A603E12021A4C0A3A39
:102A40007FEC5A420292FE3AFE32091202694001BC
:102A50001A12843A64AE3A2F06BAA40C3A64BE1233
:102A6000421A22021212120A12061AFF041A0A0C41
:102A700029123A42A01A10021291125612B01A905C
:102A8000081AD606129012B812543A931A211A0153
:102A9000022112EABAAA027AEA1A413A7CEC290225
:102AA0007AFF0A92FC891E12409A7F0C8922211A11
:102AB0007E8EA902B27E5AFE140A13FE10294A1A0B
:102AC00020021210120812041AE3041A080C291228
:102AD000291A492089789A7F6449202112101260AE
:102AE000328072FF490812C07A30601240DA4344E3
:102AF0005A410C3184A24A04E0090102030406078A
:0C2B000008092916691A250204060800BD
:04000005080001C925
:00000001FF
