:020000040800F2
:1000000060070020890100086D04000859030008FA
:100010006904000839020008870900080000000090
:10002000000000000000000000000000ED050008D6
:100030003D02000800000000F50400080107000868
:10004000A3010008A3010008A3010008A301000800
:10005000A3010008A3010008A3010008A3010008F0
:10006000A3010008A3010008A3010008A3010008E0
:10007000A3010008A3010008A3010008A3010008D0
:10008000A3010008A3010008A3010008A3010008C0
:10009000A3010008A3010008A3010008A3010008B0
:1000A000A3010008A3010008A3010008A3010008A0
:1000B000A3010008A3010008A3010008A301000890
:1000C000A3010008A3010008A3010008A301000880
:1000D000A301000865070008A3010008A3010008A8
:1000E000A3010008A3010008A301000800F002F822
:1000F00000F03AF80AA090E8000C82448344AAF188
:100100000107DA4501D100F02FF8AFF2090EBAE885
:100110000F0013F0010F18BFFB1A43F0010318473B
:10012000CC090000EC090000103A24BF78C878C15F
:10013000FAD8520724BF30C830C144BF04680C60ED
:10014000704700000023002400250026103A28BF35
:1001500078C1FBD8520728BF30C148BF0B60704739
:100160001FB51FBD10B510BD00F033F81146FFF7E5
:10017000F7FF00F055FC00F051F803B4FFF7F2FF71
:1001800003BC00F002FC0000094880470948004712
:10019000FEE7FEE7FEE7FEE7FEE7FEE7FEE7FEE737
:1001A000FEE7FEE704480549054A064B7047000094
:1001B00005070008ED00000860010020600700202E
:1001C000600300206003002070477047704770474D
:1001D0007047754600F02CF8AE4605006946534658
:1001E00020F00700854618B020B5FFF7DBFFBDE81B
:1001F00020404FF000064FF000074FF000084FF08E
:10020000000B21F00701AC46ACE8C009ACE8C0091E
:10021000ACE8C009ACE8C0098D46704710B504468B
:10022000AFF300802046BDE81040FFF7A6BF0000F6
:10023000004870470001002000BFFEE770472DE92D
:10024000F04102460025002600200023002400275C
:1002500091F803C00CF00F0591F803C00CF0100CDE
:10026000BCF1000F03D091F802C04CEA050591F8EB
:1002700000C0BCF1000F31D0146800202BE04FF01B
:10028000010C0CFA00F3B1F800C00CEA03069E4220
:1002900020D183004FF00F0C0CFA03F7BC4305FA92
:1002A00003FC4CEA040491F803C0BCF1280F06D10A
:1002B0004FF0010C0CFA00FCC2F814C00AE091F8EF
:1002C00003C0BCF1480F05D14FF0010C0CFA00FC43
:1002D000C2F810C0401C0828D1D31460B1F800C087
:1002E000BCF1FF0F34DD546800202EE000F1080C53
:1002F0004FF0010808FA0CF3B1F800C00CEA03064D
:100300009E4221D183004FF00F0C0CFA03F7BC433F
:1003100005FA03FC4CEA040491F803C0BCF1280F71
:1003200005D100F1080C08FA0CF8C2F8148091F815
:1003300003C0BCF1480F07D100F1080C4FF00108D1
:1003400008FA0CF8C2F81080401C0828CED354607C
:10035000BDE8F0810161704700BFFEE710B50020E5
:1003600006490860C82000F035FB01200449C1F8A7
:10037000B401C82000F02EFB10BD0000B4012242E1
:100380000000224208B50121102000F0B5F84FF41A
:100390000050ADF8000010208DF8030003208DF808
:1003A000020069460448FFF74AFF4FF40051024833
:1003B000FFF7D0FF08BD00000010014010B5044653
:1003C0000121194800880C300004184A02EB9030D3
:1003D000C0F88011012C0BD113480068401C124951
:1003E00008600846006804280FD1002008600CE06F
:1003F000022C0AD10C480068401E0B4908600846D0
:100400000068002801DA03200860002106480088FF
:100410000C300004054A02EB9030C0F88011C8206F
:1004200000F0D8FA10BD0000140000200080214226
:1004300008B50121082000F05FF84FF47040ADF8D6
:10044000000010208DF8030003208DF8020069469B
:100450000448FFF7F4FE4FF470410248FFF77AFFBB
:1004600008BD0000000C014000BFFEE7704700001F
:1004700070B5002100230F22C47804B3154C246802
:1004800004F4E064C4F5E064210AC1F10403CA4045
:10049000447804FA03F184781440214309010E4C96
:1004A0000678A155047804F01F050124AC400578B6
:1004B0006D11AD0005F1E025C5F8004109E00478B3
:1004C00004F01F050124AC40044D0678761145F870
:1004D000264070BD0CED00E000E400E080E100E0AB
:1004E00002490143024A1160704700000000FA050A
:1004F0000CED00E07047000029B1064A9269024302
:10050000044B9A6104E0034A92698243014B9A6169
:10051000704700000010024030B500210022002486
:1005200000232D4D6D6805F00C0121B1042905D083
:10053000082923D105E0294D056022E0274D0560FB
:100540001FE0254D6D6805F47012234D6D6805F4AC
:100550008034022505EB92421CB9214D55430560BC
:100560000BE01D4D6D6805F400351DB11C4D554364
:10057000056002E0194D5543056002E0174D056026
:1005800000BF00BF144D6D6805F0F0010909154D5D
:100590006B5C0568DD4045600F4D6D6805F4E061FA
:1005A000090A104D6B5C4568DD4085600A4D6D6839
:1005B00005F46051C90A0B4D6B5C4568DD40C560B0
:1005C000054D6D6805F44041890B074D6B5CC568AE
:1005D000B5FBF3F5056130BD0010024000127A0052
:1005E00000093D002200002032000020704710B5B5
:1005F00000F002F810BD00000CB500200190009042
:100600003348006840F480303149086000BF30480A
:10061000006800F4003000900198401C01900098A0
:1006200018B90198B0F5A06FF1D12948006800F41D
:10063000003010B10120009001E0002000900098EF
:10064000012843D12348006840F010002149086088
:100650000846006820F0030008600846006840F083
:10066000020008601A484068194948600846406816
:1006700048600846406840F480604860084640682A
:1006800020F47C1048600846406840F4E810486058
:100690000846006840F08070086000BF0C480068A1
:1006A00000F000700028F9D00948406820F00300ED
:1006B000074948600846406840F00200486000BFB3
:1006C0000348406800F00C000828F9D10CBD000078
:1006D0000010024000200240042808D14FF0E02121
:1006E000096941F004014FF0E022116107E04FF089
:1006F000E021096921F004014FF0E0221161704707
:100700007047000010B51348006840F0010011491F
:10071000086008464068104908400E49486008468D
:1007200000680E4908400B4908600846006820F43C
:10073000802008600846406820F4FE0048604FF4BE
:100740001F008860FFF753FF4FF000600449086006
:1007500010BD0000001002400000FFF8FFFFF6FE91
:1007600008ED00E010B540F225511D4800F04AF8B0
:1007700010B31B4800F002F9C4B21A48008800F414
:100780000040C8B91748008800F4804060B10A2CC6
:1007900003D000201349088020E01248008840F46C
:1007A00000401049088019E00D2C06D10D48008842
:1007B00040F480400B49088010E00A480088C0F3EC
:1007C0000D0009490C5407480088401C0549088061
:1007D00008460088C72801DD0020088010BD000001
:1007E00000380140200000203800002021B182891B
:1007F00042F40052828104E082894DF6FF731A4070
:100800008281704770B50246002400230025002035
:1008100040F66A16B14200D100BFC1F3421501F0A3
:100820001F03012606FA03F3012D02D196893340F6
:1008300006E0022D02D1168A334001E0968A334049
:100840000C12012606FA04F41688344013B10CB1D8
:10085000012000E0002070BDF0B503460024002612
:100860000025002040F66A17B94200D100BF1846A3
:10087000C1F3421401F01F06012707FA06F5012C07
:1008800001D10C3004E0022C01D1103000E0143012
:100890001AB107682F43076002E00768AF4307609B
:1008A000F0BD00002DE9F04786B005460E46002455
:1008B000A24600BFA1460027B08900B100BF2F4665
:1008C0002C8A4CF6FF700440F08804432C82AC89DB
:1008D0004EF6F3100440B08831890843718908430B
:1008E0000443AC81AC8A4FF6FF400440B089044316
:1008F000AC8201A8FFF710FE1F48874202D1DDF845
:1009000010A001E0DDF80CA0A88900F4004040B17F
:100910000AEBCA0000EB0A1031684900B0FBF1F89D
:1009200007E00AEBCA0000EB0A1031688900B0FB4F
:10093000F1F86420B8FBF0F004012009642101FB08
:100940001089A88900F4004040B1322000EBC900B2
:10095000B0FBF1F000F00700044308E0322000EBA8
:1009600009106421B0FBF1F000F00F0004432C816A
:1009700006B0BDE8F08700000038014001468888D5
:10098000C0F30800704700BFFEE7014600BF704794
:1009900010B56FF00400FFF79FFE0A4800680A498F
:1009A000B0FBF1F0094908700846007800EB4001FF
:1009B000C1EBC0104FF6FF7101EAC0000449088086
:1009C00010BD00000000002000127A001800002076
:1009D0001A0000200146114A12884A434FF0E023D2
:1009E0005A6100229A611A46126942F001021A61A4
:1009F00000BF4FF0E022106900F001021AB100F4CC
:100A00008032002AF5D04FF0E022126922F0010274
:100A10004FF0E0231A6100229A6170471A0000200B
:100A2000FFF7B6FF4FF4A060FFF75AFD4FF4E13037
:100A300000F00CF8FFF7A6FCFFF7FAFC04E0FFF764
:100A40008DFC0220FFF7BAFCF9E7000010B586B074
:100A50000446012144F20400FFF74EFD4FF40070FC
:100A6000ADF8140003208DF8160018208DF817003B
:100A700005A91C48FFF7E3FB4FF48060ADF81400B4
:100A800004208DF8170005A91648FFF7D8FB25208C
:100A90008DF8000003208DF801008DF80200012080
:100AA0008DF803006846FFF7E3FC01940020ADF8E1
:100AB0000800ADF80A00ADF80C00ADF810000C20ED
:100AC000ADF80E0001A90848FFF7ECFE012240F244
:100AD00025510548FFF7C0FE01210348FFF786FEB8
:100AE00006B010BD00080140003801400C0B0008A2
:100AF000000000203800000028010008440B000816
:100B000038000020280700004401000800A24A0421
:100B100000000000000000000102030406070809AD
:100B200000000000000000000000000000000000C5
:100B3000000001020304010203040607080902047D
:040B400006080000A3
:040000050800018965
:00000001FF
